{
    "abi": [
        {
            "type": "constructor",
            "inputs": [],
            "stateMutability": "nonpayable"
        },
        {
            "type": "function",
            "name": "CONTROLLER_ROLE",
            "inputs": [],
            "outputs": [
                {
                    "name": "",
                    "type": "bytes32",
                    "internalType": "bytes32"
                }
            ],
            "stateMutability": "view"
        },
        {
            "type": "function",
            "name": "DEFAULT_ADMIN_ROLE",
            "inputs": [],
            "outputs": [
                {
                    "name": "",
                    "type": "bytes32",
                    "internalType": "bytes32"
                }
            ],
            "stateMutability": "view"
        },
        {
            "type": "function",
            "name": "UPGRADER_ROLE",
            "inputs": [],
            "outputs": [
                {
                    "name": "",
                    "type": "bytes32",
                    "internalType": "bytes32"
                }
            ],
            "stateMutability": "view"
        },
        {
            "type": "function",
            "name": "UPGRADE_INTERFACE_VERSION",
            "inputs": [],
            "outputs": [
                {
                    "name": "",
                    "type": "string",
                    "internalType": "string"
                }
            ],
            "stateMutability": "view"
        },
        {
            "type": "function",
            "name": "changeVaultOwner",
            "inputs": [
                {
                    "name": "newOwner",
                    "type": "address",
                    "internalType": "address"
                }
            ],
            "outputs": [],
            "stateMutability": "nonpayable"
        },
        {
            "type": "function",
            "name": "contractType",
            "inputs": [],
            "outputs": [
                {
                    "name": "",
                    "type": "string",
                    "internalType": "string"
                }
            ],
            "stateMutability": "view"
        },
        {
            "type": "function",
            "name": "controllerLimits",
            "inputs": [
                {
                    "name": "controller",
                    "type": "address",
                    "internalType": "address"
                }
            ],
            "outputs": [
                {
                    "name": "quota",
                    "type": "uint256",
                    "internalType": "uint256"
                },
                {
                    "name": "allowance",
                    "type": "uint256",
                    "internalType": "uint256"
                }
            ],
            "stateMutability": "view"
        },
        {
            "type": "function",
            "name": "controllerLimitsEnabled",
            "inputs": [],
            "outputs": [
                {
                    "name": "",
                    "type": "bool",
                    "internalType": "bool"
                }
            ],
            "stateMutability": "view"
        },
        {
            "type": "function",
            "name": "defaultControllerLimits",
            "inputs": [],
            "outputs": [
                {
                    "name": "quota",
                    "type": "uint256",
                    "internalType": "uint256"
                },
                {
                    "name": "allowance",
                    "type": "uint256",
                    "internalType": "uint256"
                }
            ],
            "stateMutability": "view"
        },
        {
            "type": "function",
            "name": "getRoleAdmin",
            "inputs": [
                {
                    "name": "role",
                    "type": "bytes32",
                    "internalType": "bytes32"
                }
            ],
            "outputs": [
                {
                    "name": "",
                    "type": "bytes32",
                    "internalType": "bytes32"
                }
            ],
            "stateMutability": "view"
        },
        {
            "type": "function",
            "name": "getVaultInfo",
            "inputs": [],
            "outputs": [
                {
                    "name": "",
                    "type": "tuple",
                    "internalType": "struct VaultInfo",
                    "components": [
                        {
                            "name": "id",
                            "type": "uint256",
                            "internalType": "uint256"
                        },
                        {
                            "name": "version",
                            "type": "string",
                            "internalType": "string"
                        },
                        {
                            "name": "projectOwner",
                            "type": "address",
                            "internalType": "address"
                        },
                        {
                            "name": "projectName",
                            "type": "string",
                            "internalType": "string"
                        },
                        {
                            "name": "rewardToken",
                            "type": "address",
                            "internalType": "address"
                        },
                        {
                            "name": "createdAt",
                            "type": "uint256",
                            "internalType": "uint256"
                        },
                        {
                            "name": "deployer",
                            "type": "address",
                            "internalType": "address"
                        }
                    ]
                }
            ],
            "stateMutability": "view"
        },
        {
            "type": "function",
            "name": "grantPermit",
            "inputs": [
                {
                    "name": "controller",
                    "type": "address",
                    "internalType": "address"
                }
            ],
            "outputs": [],
            "stateMutability": "nonpayable"
        },
        {
            "type": "function",
            "name": "grantRole",
            "inputs": [
                {
                    "name": "role",
                    "type": "bytes32",
                    "internalType": "bytes32"
                },
                {
                    "name": "account",
                    "type": "address",
                    "internalType": "address"
                }
            ],
            "outputs": [],
            "stateMutability": "nonpayable"
        },
        {
            "type": "function",
            "name": "hasRole",
            "inputs": [
                {
                    "name": "role",
                    "type": "bytes32",
                    "internalType": "bytes32"
                },
                {
                    "name": "account",
                    "type": "address",
                    "internalType": "address"
                }
            ],
            "outputs": [
                {
                    "name": "",
                    "type": "bool",
                    "internalType": "bool"
                }
            ],
            "stateMutability": "view"
        },
        {
            "type": "function",
            "name": "initialize",
            "inputs": [
                {
                    "name": "initialAdmin",
                    "type": "address",
                    "internalType": "address"
                },
                {
                    "name": "_vaultInfo",
                    "type": "tuple",
                    "internalType": "struct VaultInfo",
                    "components": [
                        {
                            "name": "id",
                            "type": "uint256",
                            "internalType": "uint256"
                        },
                        {
                            "name": "version",
                            "type": "string",
                            "internalType": "string"
                        },
                        {
                            "name": "projectOwner",
                            "type": "address",
                            "internalType": "address"
                        },
                        {
                            "name": "projectName",
                            "type": "string",
                            "internalType": "string"
                        },
                        {
                            "name": "rewardToken",
                            "type": "address",
                            "internalType": "address"
                        },
                        {
                            "name": "createdAt",
                            "type": "uint256",
                            "internalType": "uint256"
                        },
                        {
                            "name": "deployer",
                            "type": "address",
                            "internalType": "address"
                        }
                    ]
                }
            ],
            "outputs": [],
            "stateMutability": "nonpayable"
        },
        {
            "type": "function",
            "name": "isController",
            "inputs": [
                {
                    "name": "controller",
                    "type": "address",
                    "internalType": "address"
                }
            ],
            "outputs": [
                {
                    "name": "",
                    "type": "bool",
                    "internalType": "bool"
                }
            ],
            "stateMutability": "view"
        },
        {
            "type": "function",
            "name": "proxiableUUID",
            "inputs": [],
            "outputs": [
                {
                    "name": "",
                    "type": "bytes32",
                    "internalType": "bytes32"
                }
            ],
            "stateMutability": "view"
        },
        {
            "type": "function",
            "name": "renounceRole",
            "inputs": [
                {
                    "name": "role",
                    "type": "bytes32",
                    "internalType": "bytes32"
                },
                {
                    "name": "callerConfirmation",
                    "type": "address",
                    "internalType": "address"
                }
            ],
            "outputs": [],
            "stateMutability": "nonpayable"
        },
        {
            "type": "function",
            "name": "revokePermit",
            "inputs": [
                {
                    "name": "controller",
                    "type": "address",
                    "internalType": "address"
                }
            ],
            "outputs": [],
            "stateMutability": "nonpayable"
        },
        {
            "type": "function",
            "name": "revokeRole",
            "inputs": [
                {
                    "name": "role",
                    "type": "bytes32",
                    "internalType": "bytes32"
                },
                {
                    "name": "account",
                    "type": "address",
                    "internalType": "address"
                }
            ],
            "outputs": [],
            "stateMutability": "nonpayable"
        },
        {
            "type": "function",
            "name": "reward",
            "inputs": [
                {
                    "name": "to",
                    "type": "address",
                    "internalType": "address"
                },
                {
                    "name": "amount",
                    "type": "uint256",
                    "internalType": "uint256"
                }
            ],
            "outputs": [
                {
                    "name": "",
                    "type": "bool",
                    "internalType": "bool"
                }
            ],
            "stateMutability": "nonpayable"
        },
        {
            "type": "function",
            "name": "rewardBatch",
            "inputs": [
                {
                    "name": "receivers",
                    "type": "tuple[]",
                    "internalType": "struct Receiver[]",
                    "components": [
                        {
                            "name": "receiver",
                            "type": "address",
                            "internalType": "address"
                        },
                        {
                            "name": "amount",
                            "type": "uint256",
                            "internalType": "uint256"
                        }
                    ]
                }
            ],
            "outputs": [
                {
                    "name": "returnData",
                    "type": "tuple[]",
                    "internalType": "struct Result[]",
                    "components": [
                        {
                            "name": "success",
                            "type": "bool",
                            "internalType": "bool"
                        },
                        {
                            "name": "returnData",
                            "type": "bytes",
                            "internalType": "bytes"
                        }
                    ]
                }
            ],
            "stateMutability": "nonpayable"
        },
        {
            "type": "function",
            "name": "rewardPool",
            "inputs": [],
            "outputs": [
                {
                    "name": "",
                    "type": "uint256",
                    "internalType": "uint256"
                }
            ],
            "stateMutability": "view"
        },
        {
            "type": "function",
            "name": "setControllerLimits",
            "inputs": [
                {
                    "name": "controller",
                    "type": "address",
                    "internalType": "address"
                },
                {
                    "name": "quota",
                    "type": "uint256",
                    "internalType": "uint256"
                },
                {
                    "name": "rewardAllowance",
                    "type": "uint256",
                    "internalType": "uint256"
                }
            ],
            "outputs": [],
            "stateMutability": "nonpayable"
        },
        {
            "type": "function",
            "name": "setDefaultControllerLimits",
            "inputs": [
                {
                    "name": "quota",
                    "type": "uint256",
                    "internalType": "uint256"
                },
                {
                    "name": "rewardAllowance",
                    "type": "uint256",
                    "internalType": "uint256"
                }
            ],
            "outputs": [],
            "stateMutability": "nonpayable"
        },
        {
            "type": "function",
            "name": "supportsInterface",
            "inputs": [
                {
                    "name": "interfaceId",
                    "type": "bytes4",
                    "internalType": "bytes4"
                }
            ],
            "outputs": [
                {
                    "name": "",
                    "type": "bool",
                    "internalType": "bool"
                }
            ],
            "stateMutability": "view"
        },
        {
            "type": "function",
            "name": "toggleControllerLimits",
            "inputs": [],
            "outputs": [],
            "stateMutability": "nonpayable"
        },
        {
            "type": "function",
            "name": "updateRewardToken",
            "inputs": [
                {
                    "name": "newRewardToken",
                    "type": "address",
                    "internalType": "address"
                }
            ],
            "outputs": [],
            "stateMutability": "nonpayable"
        },
        {
            "type": "function",
            "name": "upgradeToAndCall",
            "inputs": [
                {
                    "name": "newImplementation",
                    "type": "address",
                    "internalType": "address"
                },
                {
                    "name": "data",
                    "type": "bytes",
                    "internalType": "bytes"
                }
            ],
            "outputs": [],
            "stateMutability": "payable"
        },
        {
            "type": "function",
            "name": "version",
            "inputs": [],
            "outputs": [
                {
                    "name": "",
                    "type": "string",
                    "internalType": "string"
                }
            ],
            "stateMutability": "view"
        },
        {
            "type": "function",
            "name": "withdrawToken",
            "inputs": [
                {
                    "name": "tokenAddress",
                    "type": "address",
                    "internalType": "address"
                },
                {
                    "name": "amount",
                    "type": "uint256",
                    "internalType": "uint256"
                }
            ],
            "outputs": [
                {
                    "name": "",
                    "type": "bool",
                    "internalType": "bool"
                }
            ],
            "stateMutability": "nonpayable"
        },
        {
            "type": "event",
            "name": "ControllerLimitsToggled",
            "inputs": [
                {
                    "name": "caller",
                    "type": "address",
                    "indexed": true,
                    "internalType": "address"
                },
                {
                    "name": "enabled",
                    "type": "bool",
                    "indexed": true,
                    "internalType": "bool"
                }
            ],
            "anonymous": false
        },
        {
            "type": "event",
            "name": "ControllerLimitsUpdated",
            "inputs": [
                {
                    "name": "caller",
                    "type": "address",
                    "indexed": false,
                    "internalType": "address"
                },
                {
                    "name": "controller",
                    "type": "address",
                    "indexed": true,
                    "internalType": "address"
                },
                {
                    "name": "quota",
                    "type": "uint256",
                    "indexed": true,
                    "internalType": "uint256"
                },
                {
                    "name": "maxRewardAmount",
                    "type": "uint256",
                    "indexed": true,
                    "internalType": "uint256"
                }
            ],
            "anonymous": false
        },
        {
            "type": "event",
            "name": "ControllerPermissionGranted",
            "inputs": [
                {
                    "name": "permissionGiver",
                    "type": "address",
                    "indexed": true,
                    "internalType": "address"
                },
                {
                    "name": "controller",
                    "type": "address",
                    "indexed": true,
                    "internalType": "address"
                }
            ],
            "anonymous": false
        },
        {
            "type": "event",
            "name": "ControllerPermissionRevoked",
            "inputs": [
                {
                    "name": "permissionGiver",
                    "type": "address",
                    "indexed": true,
                    "internalType": "address"
                },
                {
                    "name": "controller",
                    "type": "address",
                    "indexed": true,
                    "internalType": "address"
                }
            ],
            "anonymous": false
        },
        {
            "type": "event",
            "name": "DefaultControllerLimitsUpdated",
            "inputs": [
                {
                    "name": "caller",
                    "type": "address",
                    "indexed": true,
                    "internalType": "address"
                },
                {
                    "name": "quota",
                    "type": "uint256",
                    "indexed": true,
                    "internalType": "uint256"
                },
                {
                    "name": "maxRewardAmount",
                    "type": "uint256",
                    "indexed": true,
                    "internalType": "uint256"
                }
            ],
            "anonymous": false
        },
        {
            "type": "event",
            "name": "Initialized",
            "inputs": [
                {
                    "name": "version",
                    "type": "uint64",
                    "indexed": false,
                    "internalType": "uint64"
                }
            ],
            "anonymous": false
        },
        {
            "type": "event",
            "name": "RewardTokenUpdated",
            "inputs": [
                {
                    "name": "caller",
                    "type": "address",
                    "indexed": true,
                    "internalType": "address"
                },
                {
                    "name": "newRewardToken",
                    "type": "address",
                    "indexed": true,
                    "internalType": "address"
                }
            ],
            "anonymous": false
        },
        {
            "type": "event",
            "name": "Rewarded",
            "inputs": [
                {
                    "name": "caller",
                    "type": "address",
                    "indexed": true,
                    "internalType": "address"
                },
                {
                    "name": "to",
                    "type": "address",
                    "indexed": true,
                    "internalType": "address"
                },
                {
                    "name": "amount",
                    "type": "uint256",
                    "indexed": true,
                    "internalType": "uint256"
                }
            ],
            "anonymous": false
        },
        {
            "type": "event",
            "name": "RewardedBatch",
            "inputs": [
                {
                    "name": "caller",
                    "type": "address",
                    "indexed": true,
                    "internalType": "address"
                },
                {
                    "name": "tokenAddress",
                    "type": "address",
                    "indexed": true,
                    "internalType": "address"
                },
                {
                    "name": "result",
                    "type": "tuple[]",
                    "indexed": true,
                    "internalType": "struct Result[]",
                    "components": [
                        {
                            "name": "success",
                            "type": "bool",
                            "internalType": "bool"
                        },
                        {
                            "name": "returnData",
                            "type": "bytes",
                            "internalType": "bytes"
                        }
                    ]
                }
            ],
            "anonymous": false
        },
        {
            "type": "event",
            "name": "RoleAdminChanged",
            "inputs": [
                {
                    "name": "role",
                    "type": "bytes32",
                    "indexed": true,
                    "internalType": "bytes32"
                },
                {
                    "name": "previousAdminRole",
                    "type": "bytes32",
                    "indexed": true,
                    "internalType": "bytes32"
                },
                {
                    "name": "newAdminRole",
                    "type": "bytes32",
                    "indexed": true,
                    "internalType": "bytes32"
                }
            ],
            "anonymous": false
        },
        {
            "type": "event",
            "name": "RoleGranted",
            "inputs": [
                {
                    "name": "role",
                    "type": "bytes32",
                    "indexed": true,
                    "internalType": "bytes32"
                },
                {
                    "name": "account",
                    "type": "address",
                    "indexed": true,
                    "internalType": "address"
                },
                {
                    "name": "sender",
                    "type": "address",
                    "indexed": true,
                    "internalType": "address"
                }
            ],
            "anonymous": false
        },
        {
            "type": "event",
            "name": "RoleRevoked",
            "inputs": [
                {
                    "name": "role",
                    "type": "bytes32",
                    "indexed": true,
                    "internalType": "bytes32"
                },
                {
                    "name": "account",
                    "type": "address",
                    "indexed": true,
                    "internalType": "address"
                },
                {
                    "name": "sender",
                    "type": "address",
                    "indexed": true,
                    "internalType": "address"
                }
            ],
            "anonymous": false
        },
        {
            "type": "event",
            "name": "TokenWithdrawn",
            "inputs": [
                {
                    "name": "caller",
                    "type": "address",
                    "indexed": true,
                    "internalType": "address"
                },
                {
                    "name": "tokenAddress",
                    "type": "address",
                    "indexed": true,
                    "internalType": "address"
                },
                {
                    "name": "amount",
                    "type": "uint256",
                    "indexed": true,
                    "internalType": "uint256"
                }
            ],
            "anonymous": false
        },
        {
            "type": "event",
            "name": "Upgraded",
            "inputs": [
                {
                    "name": "implementation",
                    "type": "address",
                    "indexed": true,
                    "internalType": "address"
                }
            ],
            "anonymous": false
        },
        {
            "type": "event",
            "name": "VaultOwnerUpdated",
            "inputs": [
                {
                    "name": "previousOwner",
                    "type": "address",
                    "indexed": true,
                    "internalType": "address"
                },
                {
                    "name": "newOwner",
                    "type": "address",
                    "indexed": true,
                    "internalType": "address"
                }
            ],
            "anonymous": false
        },
        {
            "type": "error",
            "name": "AccessControlBadConfirmation",
            "inputs": []
        },
        {
            "type": "error",
            "name": "AccessControlUnauthorizedAccount",
            "inputs": [
                {
                    "name": "account",
                    "type": "address",
                    "internalType": "address"
                },
                {
                    "name": "neededRole",
                    "type": "bytes32",
                    "internalType": "bytes32"
                }
            ]
        },
        {
            "type": "error",
            "name": "AddressEmptyCode",
            "inputs": [
                {
                    "name": "target",
                    "type": "address",
                    "internalType": "address"
                }
            ]
        },
        {
            "type": "error",
            "name": "AddressInsufficientBalance",
            "inputs": [
                {
                    "name": "account",
                    "type": "address",
                    "internalType": "address"
                }
            ]
        },
        {
            "type": "error",
            "name": "CanNotBeZeroAddress",
            "inputs": []
        },
        {
            "type": "error",
            "name": "ERC1967InvalidImplementation",
            "inputs": [
                {
                    "name": "implementation",
                    "type": "address",
                    "internalType": "address"
                }
            ]
        },
        {
            "type": "error",
            "name": "ERC1967NonPayable",
            "inputs": []
        },
        {
            "type": "error",
            "name": "FailedInnerCall",
            "inputs": []
        },
        {
            "type": "error",
            "name": "InsufficientRewardAllowance",
            "inputs": []
        },
        {
            "type": "error",
            "name": "InsufficientRewardQuota",
            "inputs": []
        },
        {
            "type": "error",
            "name": "InvalidInitialization",
            "inputs": []
        },
        {
            "type": "error",
            "name": "NoReceiversFound",
            "inputs": []
        },
        {
            "type": "error",
            "name": "NotInitializing",
            "inputs": []
        },
        {
            "type": "error",
            "name": "NotVaultOwner",
            "inputs": []
        },
        {
            "type": "error",
            "name": "ReentrancyGuardReentrantCall",
            "inputs": []
        },
        {
            "type": "error",
            "name": "SafeERC20FailedOperation",
            "inputs": [
                {
                    "name": "token",
                    "type": "address",
                    "internalType": "address"
                }
            ]
        },
        {
            "type": "error",
            "name": "UUPSUnauthorizedCallContext",
            "inputs": []
        },
        {
            "type": "error",
            "name": "UUPSUnsupportedProxiableUUID",
            "inputs": [
                {
                    "name": "slot",
                    "type": "bytes32",
                    "internalType": "bytes32"
                }
            ]
        }
    ],
    "bytecode": {
        "object": "0x60a0604052306080523480156200001557600080fd5b506200002062000026565b620000da565b7ff0c57e16840df040f15088dc2f81fe391c3923bec73e23a9662efc9c229c6a00805468010000000000000000900460ff1615620000775760405163f92ee8a960e01b815260040160405180910390fd5b80546001600160401b0390811614620000d75780546001600160401b0319166001600160401b0390811782556040519081527fc7f505b2f371ae2175ee4913f4499e1f2633a7b5936321eed1cdaeb6115181d29060200160405180910390a15b50565b60805161288862000104600039600081816118d3015281816118fc0152611a5201526128886000f3fe6080604052600436106101d85760003560e01c806391d1485411610102578063d258877d11610095578063e699947411610064578063e699947414610584578063f72c0d8b14610599578063f8cf31cb146105bb578063fde6ce55146105db57600080fd5b8063d258877d14610504578063d547741f14610524578063daa92f3114610544578063dc790b731461056457600080fd5b8063b429afeb116100d1578063b429afeb14610473578063ba54e8d114610493578063c110bd35146104b3578063cb2ef6f7146104d357600080fd5b806391d14854146103ed5780639e281a981461040d578063a217fddf1461042d578063ad3cb1cc1461044257600080fd5b80633d62f5791161017a57806354fd4d501161014957806354fd4d501461035857806366666aa9146103965780637f98aa71146103ab57806385771172146103cd57600080fd5b80633d62f579146102f1578063404421e91461031b5780634f1ef2861461033057806352d1902d1461034357600080fd5b8063248a9ca3116101b6578063248a9ca3146102625780632f2ff15d1461028257806332020eb1146102a457806336568abe146102d157600080fd5b806301ffc9a7146101dd578063092c5b3b1461021257806321670f2214610242575b600080fd5b3480156101e957600080fd5b506101fd6101f8366004611ff0565b6105fb565b60405190151581526020015b60405180910390f35b34801561021e57600080fd5b506102346000805160206127b383398151915281565b604051908152602001610209565b34801561024e57600080fd5b506101fd61025d366004612036565b610632565b34801561026e57600080fd5b5061023461027d366004612060565b610728565b34801561028e57600080fd5b506102a261029d366004612079565b61074a565b005b3480156102b057600080fd5b506102c46102bf3660046120a5565b61076c565b604051610209919061216a565b3480156102dd57600080fd5b506102a26102ec366004612079565b6109ec565b3480156102fd57600080fd5b50610306610a24565b60408051928352602083019190915201610209565b34801561032757600080fd5b506101fd610a6a565b6102a261033e366004612295565b610a7d565b34801561034f57600080fd5b50610234610a9c565b34801561036457600080fd5b5061038960405180604001604052806005815260200164302e302e3160d81b81525081565b60405161020991906122f7565b3480156103a257600080fd5b50610234610ab9565b3480156103b757600080fd5b506103c0610b49565b604051610209919061230a565b3480156103d957600080fd5b506102a26103e8366004612396565b610d42565b3480156103f957600080fd5b506101fd610408366004612079565b610da0565b34801561041957600080fd5b506101fd610428366004612036565b610dd8565b34801561043957600080fd5b50610234600081565b34801561044e57600080fd5b50610389604051806040016040528060058152602001640352e302e360dc1b81525081565b34801561047f57600080fd5b506101fd61048e366004612396565b610e73565b34801561049f57600080fd5b506102a26104ae3660046123b1565b610ea2565b3480156104bf57600080fd5b506103066104ce366004612396565b610f20565b3480156104df57600080fd5b5061038960405180604001604052806005815260200164159055531560da1b81525081565b34801561051057600080fd5b506102a261051f366004612396565b610f99565b34801561053057600080fd5b506102a261053f366004612079565b610fdc565b34801561055057600080fd5b506102a261055f366004612396565b610ff8565b34801561057057600080fd5b506102a261057f3660046123f3565b611174565b34801561059057600080fd5b506102a26113dd565b3480156105a557600080fd5b506102346000805160206127d383398151915281565b3480156105c757600080fd5b506102a26105d6366004612396565b611457565b3480156105e757600080fd5b506102a26105f63660046124de565b611509565b60006001600160e01b03198216637965db0b60e01b148061062c57506301ffc9a760e01b6001600160e01b03198316145b92915050565b600061063c6115d4565b6000805160206127b38339815191526106548161160c565b6001600160a01b03841661067b5760405163114a079360e21b815260040160405180910390fd5b336000610686611616565b9050610690611678565b5460ff16156106a3576106a382866116a9565b6000808052602082905260409020600401546106c9906001600160a01b03168787611755565b84866001600160a01b0316836001600160a01b03167f6876a213a761d9b4f8d7ba3609528ef85da671684271f75fdacb41be8db29f4560405160405180910390a46001935050505061062c600160008051602061283383398151915255565b6000908152600080516020612813833981519152602052604090206001015490565b61075382610728565b61075c8161160c565b61076683836117a7565b50505050565b60606107766115d4565b6000805160206127b383398151915261078e8161160c565b338360018110156107b257604051634030268d60e01b815260040160405180910390fd5b60006107bc611616565b90508167ffffffffffffffff8111156107d7576107d76121e0565b60405190808252806020026020018201604052801561081d57816020015b6040805180820190915260008152606060208201528152602001906001900390816107f55790505b506000808052602083905260408120600401549196506001600160a01b03909116908190805b858110156109775760008b8b8381811061085f5761085f612511565b9050604002018036038101906108759190612527565b80519091506001600160a01b03166108a05760405163114a079360e21b815260040160405180910390fd5b6108a8611678565b5460ff16156108bf576108bf8882602001516116a9565b6108d28482600001518360200151611755565b60408051808201825260018152825160208481015193516001600160a01b03808a16602483015290921660448301526064820193909352909182019060840160408051601f198184030181529190526020810180516001600160e01b031663d0c407e160e01b17905290528a518b908490811061095157610951612511565b602002602001018190525080602001518361096c9190612594565b925050600101610843565b508760405161098691906125a7565b6040518091039020836001600160a01b0316876001600160a01b03167fde7ea29066b143a05c35b1f74ad4bd6cdb890bd64c295cc24e7dbdb007b59eff60405160405180910390a45050505050505061062c600160008051602061283383398151915255565b6001600160a01b0381163314610a155760405163334bd91960e11b815260040160405180910390fd5b610a1f828261184c565b505050565b6000806000610a31611616565b60008080526002919091016020908152604091829020825180840190935280548084526001909101549290910182905294909350915050565b6000610a74611678565b5460ff16919050565b610a856118c8565b610a8e8261196d565b610a988282611985565b5050565b6000610aa6611a47565b506000805160206127f383398151915290565b6000610ac3611616565b600080805260209190915260409081902060049081015491516370a0823160e01b815230918101919091526001600160a01b03909116906370a0823190602401602060405180830381865afa158015610b20573d6000803e3d6000fd5b505050506040513d601f19601f82011682018060405250810190610b449190612600565b905090565b610ba46040518060e00160405280600081526020016060815260200160006001600160a01b031681526020016060815260200160006001600160a01b031681526020016000815260200160006001600160a01b031681525090565b610bac611616565b60000160008081526020019081526020016000206040518060e001604052908160008201548152602001600182018054610be590612619565b80601f0160208091040260200160405190810160405280929190818152602001828054610c1190612619565b8015610c5e5780601f10610c3357610100808354040283529160200191610c5e565b820191906000526020600020905b815481529060010190602001808311610c4157829003601f168201915b505050918352505060028201546001600160a01b03166020820152600382018054604090920191610c8e90612619565b80601f0160208091040260200160405190810160405280929190818152602001828054610cba90612619565b8015610d075780601f10610cdc57610100808354040283529160200191610d07565b820191906000526020600020905b815481529060010190602001808311610cea57829003601f168201915b505050918352505060048201546001600160a01b03908116602083015260058301546040830152600690920154909116606090910152919050565b610d4a6115d4565b6000610d558161160c565b6001600160a01b038216610d7c5760405163114a079360e21b815260040160405180910390fd5b610d8582611a90565b50610d9d600160008051602061283383398151915255565b50565b6000918252600080516020612813833981519152602090815260408084206001600160a01b0393909316845291905290205460ff1690565b6000610de26115d4565b6000610ded8161160c565b6001600160a01b038416610e145760405163114a079360e21b815260040160405180910390fd5b610e1f843385611755565b60405183906001600160a01b0386169033907f8210728e7c071f615b840ee026032693858fbcd5e5359e67e438c890f59e562090600090a4600191505061062c600160008051602061283383398151915255565b6000610e7d611616565b6001600160a01b03909216600090815260019290920160205250604090205460ff1690565b610eaa6115d4565b6000610eb58161160c565b6000610ebf611616565b6000808052600282016020526040808220878155600101869055519192508491869133917f6ffc444c2de3b25a7216a5f375ee8f532bd9425d1856b9bda232525e6af9308d9190a45050610a98600160008051602061283383398151915255565b6000806000610f2d611616565b6001600160a01b03948516600090815260019182016020908152604091829020825160a081018452815460ff8116151582526101009004891692810192909252928301549096169086015260028101546060860181905260039091015460809095018590529492505050565b610fa16115d4565b6000610fac8161160c565b6001600160a01b038216610fd35760405163114a079360e21b815260040160405180910390fd5b610d8582611bb5565b610fe582610728565b610fee8161160c565b610766838361184c565b6110006115d4565b600061100b8161160c565b6001600160a01b0382166110325760405163114a079360e21b815260040160405180910390fd5b600061103c611616565b6000808052602091909152604090206002810180546001600160a01b038681166001600160a01b031983161790925591925016806110773390565b6001600160a01b03161461109e57604051630e7fea9d60e01b815260040160405180910390fd5b6110a960008261184c565b506110c26000805160206127d38339815191528261184c565b506110db6000805160206127b38339815191528261184c565b506110e76000856117a7565b506111006000805160206127d3833981519152856117a7565b506111196000805160206127b3833981519152856117a7565b50836001600160a01b0316816001600160a01b03167f9d665019b6175404f3979bfbc732a0bd8119560477528a32dac6d960aee0717b60405160405180910390a3505050610d9d600160008051602061283383398151915255565b7ff0c57e16840df040f15088dc2f81fe391c3923bec73e23a9662efc9c229c6a008054600160401b810460ff16159067ffffffffffffffff166000811580156111ba5750825b905060008267ffffffffffffffff1660011480156111d75750303b155b9050811580156111e5575080155b156112035760405163f92ee8a960e01b815260040160405180910390fd5b845467ffffffffffffffff19166001178555831561122d57845460ff60401b1916600160401b1785555b6001600160a01b038716158061124e575060408601516001600160a01b0316155b80611264575060808601516001600160a01b0316155b156112825760405163114a079360e21b815260040160405180910390fd5b61128d6000886117a7565b506112a66000805160206127d3833981519152886117a7565b506112b087611a90565b60006112ba611616565b6000808052602082815260409091208951815590890151919250889160018201906112e590826126a1565b5060408201516002820180546001600160a01b0319166001600160a01b039092169190911790556060820151600382019061132090826126a1565b5060808201516004820180546001600160a01b03199081166001600160a01b039384161790915560a0840151600584015560c0909301516006909201805490931691161790556000808052600291909101602052604090206064815569152d02c7e14af68000006001919091015583156113d457845460ff60401b19168555604051600181527fc7f505b2f371ae2175ee4913f4499e1f2633a7b5936321eed1cdaeb6115181d29060200160405180910390a15b50505050505050565b6113e56115d4565b60006113f08161160c565b60006113fa611678565b805460ff8116801560ff19909216821783556040519293509133907f9adb3e582c35fa3920f3cfc7a50eed21b8d04f413f5065911fcc901a70bbe09a90600090a3505050611455600160008051602061283383398151915255565b565b61145f6115d4565b600061146a8161160c565b6001600160a01b0382166114915760405163114a079360e21b815260040160405180910390fd5b8161149a611616565b6000808052602091909152604080822060040180546001600160a01b0319166001600160a01b03948516179055519184169133917f906ff2422a6ffa134f2d7ccaffd446bc0c583a5cb6615749b4b2836942a5fea891a350610d9d600160008051602061283383398151915255565b6115116115d4565b600061151c8161160c565b6001600160a01b0384166115435760405163114a079360e21b815260040160405180910390fd5b600061154d611616565b6001600160a01b0386166000818152600192909201602052604090912060028101869055600381018590559150839085907f2750747be327f6d4212971bae40c06e282fa5a55c0f75e4c66b1d25dab588acf336040516001600160a01b03909116815260200160405180910390a45050610a1f600160008051602061283383398151915255565b60008051602061283383398151915280546001190161160657604051633ee5aeb560e01b815260040160405180910390fd5b60029055565b610d9d8133611ccd565b60008060ff1961164760017fcc440a4e49ac80091baa1fa5de52df1774b71f773bb702285f102b1cd93dd716612761565b60405160200161165991815260200190565b60408051601f1981840301815291905280516020909101201692915050565b60008060ff1961164760017fa6204137b84992162232d5029944b39e3549b256a226a8bc483a4109873cb3b4612761565b6116b4600083610da0565b610a985760006116c2611616565b6001600160a01b0384166000908152600191820160205260409020600381015460028201549193509181101561170b5760405163817b6b5360e01b815260040160405180910390fd5b8382101561172c57604051630202c0d760e41b815260040160405180910390fd5b611737600182612761565b60028401556117468483612761565b83600301819055505050505050565b604080516001600160a01b038416602482015260448082018490528251808303909101815260649091019091526020810180516001600160e01b031663a9059cbb60e01b179052610a1f908490611d06565b60006000805160206128138339815191526117c28484610da0565b611842576000848152602082815260408083206001600160a01b03871684529091529020805460ff191660011790556117f83390565b6001600160a01b0316836001600160a01b0316857f2f8788117e7eff1d82e926ec794901d17c78024a50270940304540a733656f0d60405160405180910390a4600191505061062c565b600091505061062c565b60006000805160206128138339815191526118678484610da0565b15611842576000848152602082815260408083206001600160a01b0387168085529252808320805460ff1916905551339287917ff6391f5c32d9c69d2a47ea670b442974b53935d1edc7fd64eb21e047a839171b9190a4600191505061062c565b306001600160a01b037f000000000000000000000000000000000000000000000000000000000000000016148061194f57507f00000000000000000000000000000000000000000000000000000000000000006001600160a01b03166119436000805160206127f3833981519152546001600160a01b031690565b6001600160a01b031614155b156114555760405163703e46dd60e11b815260040160405180910390fd5b6000805160206127d3833981519152610a988161160c565b816001600160a01b03166352d1902d6040518163ffffffff1660e01b8152600401602060405180830381865afa9250505080156119df575060408051601f3d908101601f191682019092526119dc91810190612600565b60015b611a0c57604051634c9c8ce360e01b81526001600160a01b03831660048201526024015b60405180910390fd5b6000805160206127f38339815191528114611a3d57604051632a87526960e21b815260048101829052602401611a03565b610a1f8383611d69565b306001600160a01b037f000000000000000000000000000000000000000000000000000000000000000016146114555760405163703e46dd60e11b815260040160405180910390fd5b33611aa96000805160206127b3833981519152836117a7565b506000611ab4611616565b60008080526002828101602090815260408084208151808301835281548152600191820154818501908152835160a0810185528381526001600160a01b038c81168288018181528d8316848901818152875160608701908152965160808701908152848e52898f01909b52898d209551865493516001600160a81b0319909416901515610100600160a81b0319161761010093861693909302929092178555905196840180546001600160a01b031916979093169690961790915591519681019690965593516003909501949094559051949550919390927f7b9c8b9efe397fb771c7c860a9f9f8722bc3797e38e4641d3e2f6c0bf55acbd591a350505050565b33611bce6000805160206127b38339815191528361184c565b506040518060a00160405280600015158152602001836001600160a01b03168152602001826001600160a01b03168152602001600081526020016000815250611c15611616565b6001600160a01b03848116600081815260019384016020908152604080832087518154938901516001600160a81b0319909416901515610100600160a81b03191617610100938716939093029290921782558681015195820180546001600160a01b031916968616969096179095556060860151600282015560809095015160039095019490945591519192908416917fa9fcffc2fbd770d6f8195447d01e38a19ed4022313ab51b5e899060a8d7bfca39190a35050565b611cd78282610da0565b610a985760405163e2517d3f60e01b81526001600160a01b038216600482015260248101839052604401611a03565b6000611d1b6001600160a01b03841683611dbf565b90508051600014158015611d40575080806020019051810190611d3e9190612774565b155b15610a1f57604051635274afe760e01b81526001600160a01b0384166004820152602401611a03565b611d7282611dd4565b6040516001600160a01b038316907fbc7cd75a20ee27fd9adebab32041f755214dbc6bffa90cc0225b39da2e5c2d3b90600090a2805115611db757610a1f8282611e39565b610a98611eaf565b6060611dcd83836000611ece565b9392505050565b806001600160a01b03163b600003611e0a57604051634c9c8ce360e01b81526001600160a01b0382166004820152602401611a03565b6000805160206127f383398151915280546001600160a01b0319166001600160a01b0392909216919091179055565b6060600080846001600160a01b031684604051611e569190612796565b600060405180830381855af49150503d8060008114611e91576040519150601f19603f3d011682016040523d82523d6000602084013e611e96565b606091505b5091509150611ea6858383611f6b565b95945050505050565b34156114555760405163b398979f60e01b815260040160405180910390fd5b606081471015611ef35760405163cd78605960e01b8152306004820152602401611a03565b600080856001600160a01b03168486604051611f0f9190612796565b60006040518083038185875af1925050503d8060008114611f4c576040519150601f19603f3d011682016040523d82523d6000602084013e611f51565b606091505b5091509150611f61868383611f6b565b9695505050505050565b606082611f8057611f7b82611fc7565b611dcd565b8151158015611f9757506001600160a01b0384163b155b15611fc057604051639996b31560e01b81526001600160a01b0385166004820152602401611a03565b5080611dcd565b805115611fd75780518082602001fd5b604051630a12f52160e11b815260040160405180910390fd5b60006020828403121561200257600080fd5b81356001600160e01b031981168114611dcd57600080fd5b80356001600160a01b038116811461203157600080fd5b919050565b6000806040838503121561204957600080fd5b6120528361201a565b946020939093013593505050565b60006020828403121561207257600080fd5b5035919050565b6000806040838503121561208c57600080fd5b8235915061209c6020840161201a565b90509250929050565b600080602083850312156120b857600080fd5b823567ffffffffffffffff808211156120d057600080fd5b818501915085601f8301126120e457600080fd5b8135818111156120f357600080fd5b8660208260061b850101111561210857600080fd5b60209290920196919550909350505050565b60005b8381101561213557818101518382015260200161211d565b50506000910152565b6000815180845261215681602086016020860161211a565b601f01601f19169290920160200192915050565b60006020808301818452808551808352604092508286019150828160051b87010184880160005b838110156121d257888303603f1901855281518051151584528701518784018790526121bf8785018261213e565b9588019593505090860190600101612191565b509098975050505050505050565b634e487b7160e01b600052604160045260246000fd5b60405160e0810167ffffffffffffffff81118282101715612219576122196121e0565b60405290565b600067ffffffffffffffff8084111561223a5761223a6121e0565b604051601f8501601f19908116603f01168101908282118183101715612262576122626121e0565b8160405280935085815286868601111561227b57600080fd5b858560208301376000602087830101525050509392505050565b600080604083850312156122a857600080fd5b6122b18361201a565b9150602083013567ffffffffffffffff8111156122cd57600080fd5b8301601f810185136122de57600080fd5b6122ed8582356020840161221f565b9150509250929050565b602081526000611dcd602083018461213e565b60208152815160208201526000602083015160e0604084015261233161010084018261213e565b60408501516001600160a01b03908116606086810191909152860151858303601f19016080870152919250612366838361213e565b92508060808701511660a086015260a086015160c08601528060c08701511660e086015250508091505092915050565b6000602082840312156123a857600080fd5b611dcd8261201a565b600080604083850312156123c457600080fd5b50508035926020909101359150565b600082601f8301126123e457600080fd5b611dcd8383356020850161221f565b6000806040838503121561240657600080fd5b61240f8361201a565b9150602083013567ffffffffffffffff8082111561242c57600080fd5b9084019060e0828703121561244057600080fd5b6124486121f6565b8235815260208301358281111561245e57600080fd5b61246a888286016123d3565b60208301525061247c6040840161201a565b604082015260608301358281111561249357600080fd5b61249f888286016123d3565b6060830152506124b16080840161201a565b608082015260a083013560a08201526124cc60c0840161201a565b60c08201528093505050509250929050565b6000806000606084860312156124f357600080fd5b6124fc8461201a565b95602085013595506040909401359392505050565b634e487b7160e01b600052603260045260246000fd5b60006040828403121561253957600080fd5b6040516040810181811067ffffffffffffffff8211171561255c5761255c6121e0565b6040526125688361201a565b8152602083013560208201528091505092915050565b634e487b7160e01b600052601160045260246000fd5b8082018082111561062c5761062c61257e565b815160009082906020808601845b838110156125f457815180511515865283015180516125d98186890184880161211a565b601f01601f19169590950183019450908201906001016125b5565b50929695505050505050565b60006020828403121561261257600080fd5b5051919050565b600181811c9082168061262d57607f821691505b60208210810361264d57634e487b7160e01b600052602260045260246000fd5b50919050565b601f821115610a1f57600081815260208120601f850160051c8101602086101561267a5750805b601f850160051c820191505b8181101561269957828155600101612686565b505050505050565b815167ffffffffffffffff8111156126bb576126bb6121e0565b6126cf816126c98454612619565b84612653565b602080601f83116001811461270457600084156126ec5750858301515b600019600386901b1c1916600185901b178555612699565b600085815260208120601f198616915b8281101561273357888601518255948401946001909101908401612714565b50858210156127515787850151600019600388901b60f8161c191681555b5050505050600190811b01905550565b8181038181111561062c5761062c61257e565b60006020828403121561278657600080fd5b81518015158114611dcd57600080fd5b600082516127a881846020870161211a565b919091019291505056fe7b765e0e932d348852a6f810bfa1ab891e259123f02db8cdcde614c570223357189ab7a9244df0848122154315af71fe140f3db0fe014031783b0946b8c9d2e3360894a13ba1a3210667c828492db98dca3e2076cc3735a920a3ca505d382bbc02dd7bc7dec4dceedda775e58dd541e08a116c6c53815c0bd028192f7b6268009b779b17422d0df92223018b32b4d1fa46e071723d6817e2486d003becc55f00a2646970667358221220813350e2e52d7ef4f4c83d079ed43dbc93d8457da5b08e9444e9d7a2d649fc5a64736f6c63430008140033",
        "linkReferences": {}
    },
    "methodIdentifiers": {
        "CONTROLLER_ROLE()": "092c5b3b",
        "DEFAULT_ADMIN_ROLE()": "a217fddf",
        "UPGRADER_ROLE()": "f72c0d8b",
        "UPGRADE_INTERFACE_VERSION()": "ad3cb1cc",
        "changeVaultOwner(address)": "daa92f31",
        "contractType()": "cb2ef6f7",
        "controllerLimits(address)": "c110bd35",
        "controllerLimitsEnabled()": "404421e9",
        "defaultControllerLimits()": "3d62f579",
        "getRoleAdmin(bytes32)": "248a9ca3",
        "getVaultInfo()": "7f98aa71",
        "grantPermit(address)": "85771172",
        "grantRole(bytes32,address)": "2f2ff15d",
        "hasRole(bytes32,address)": "91d14854",
        "initialize(address,(uint256,string,address,string,address,uint256,address))": "dc790b73",
        "isController(address)": "b429afeb",
        "proxiableUUID()": "52d1902d",
        "renounceRole(bytes32,address)": "36568abe",
        "revokePermit(address)": "d258877d",
        "revokeRole(bytes32,address)": "d547741f",
        "reward(address,uint256)": "21670f22",
        "rewardBatch((address,uint256)[])": "32020eb1",
        "rewardPool()": "66666aa9",
        "setControllerLimits(address,uint256,uint256)": "fde6ce55",
        "setDefaultControllerLimits(uint256,uint256)": "ba54e8d1",
        "supportsInterface(bytes4)": "01ffc9a7",
        "toggleControllerLimits()": "e6999474",
        "updateRewardToken(address)": "f8cf31cb",
        "upgradeToAndCall(address,bytes)": "4f1ef286",
        "version()": "54fd4d50",
        "withdrawToken(address,uint256)": "9e281a98"
    },
    "storageLayout": {
        "storage": [],
        "types": {}
    },
    "id": 122
}