{
    "abi": [
        {
            "type": "constructor",
            "inputs": [
                {
                    "name": "initialOwner",
                    "type": "address",
                    "internalType": "address"
                }
            ],
            "stateMutability": "nonpayable"
        },
        {
            "type": "function",
            "name": "approve",
            "inputs": [
                {
                    "name": "to",
                    "type": "address",
                    "internalType": "address"
                },
                {
                    "name": "tokenId",
                    "type": "uint256",
                    "internalType": "uint256"
                }
            ],
            "outputs": [],
            "stateMutability": "nonpayable"
        },
        {
            "type": "function",
            "name": "balanceOf",
            "inputs": [
                {
                    "name": "owner",
                    "type": "address",
                    "internalType": "address"
                }
            ],
            "outputs": [
                {
                    "name": "",
                    "type": "uint256",
                    "internalType": "uint256"
                }
            ],
            "stateMutability": "view"
        },
        {
            "type": "function",
            "name": "burn",
            "inputs": [
                {
                    "name": "tokenId",
                    "type": "uint256",
                    "internalType": "uint256"
                }
            ],
            "outputs": [],
            "stateMutability": "nonpayable"
        },
        {
            "type": "function",
            "name": "getApproved",
            "inputs": [
                {
                    "name": "tokenId",
                    "type": "uint256",
                    "internalType": "uint256"
                }
            ],
            "outputs": [
                {
                    "name": "",
                    "type": "address",
                    "internalType": "address"
                }
            ],
            "stateMutability": "view"
        },
        {
            "type": "function",
            "name": "isApprovedForAll",
            "inputs": [
                {
                    "name": "owner",
                    "type": "address",
                    "internalType": "address"
                },
                {
                    "name": "operator",
                    "type": "address",
                    "internalType": "address"
                }
            ],
            "outputs": [
                {
                    "name": "",
                    "type": "bool",
                    "internalType": "bool"
                }
            ],
            "stateMutability": "view"
        },
        {
            "type": "function",
            "name": "name",
            "inputs": [],
            "outputs": [
                {
                    "name": "",
                    "type": "string",
                    "internalType": "string"
                }
            ],
            "stateMutability": "view"
        },
        {
            "type": "function",
            "name": "owner",
            "inputs": [],
            "outputs": [
                {
                    "name": "",
                    "type": "address",
                    "internalType": "address"
                }
            ],
            "stateMutability": "view"
        },
        {
            "type": "function",
            "name": "ownerOf",
            "inputs": [
                {
                    "name": "tokenId",
                    "type": "uint256",
                    "internalType": "uint256"
                }
            ],
            "outputs": [
                {
                    "name": "",
                    "type": "address",
                    "internalType": "address"
                }
            ],
            "stateMutability": "view"
        },
        {
            "type": "function",
            "name": "pause",
            "inputs": [],
            "outputs": [],
            "stateMutability": "nonpayable"
        },
        {
            "type": "function",
            "name": "paused",
            "inputs": [],
            "outputs": [
                {
                    "name": "",
                    "type": "bool",
                    "internalType": "bool"
                }
            ],
            "stateMutability": "view"
        },
        {
            "type": "function",
            "name": "renounceOwnership",
            "inputs": [],
            "outputs": [],
            "stateMutability": "nonpayable"
        },
        {
            "type": "function",
            "name": "safeMint",
            "inputs": [
                {
                    "name": "to",
                    "type": "address",
                    "internalType": "address"
                }
            ],
            "outputs": [],
            "stateMutability": "nonpayable"
        },
        {
            "type": "function",
            "name": "safeTransferFrom",
            "inputs": [
                {
                    "name": "from",
                    "type": "address",
                    "internalType": "address"
                },
                {
                    "name": "to",
                    "type": "address",
                    "internalType": "address"
                },
                {
                    "name": "tokenId",
                    "type": "uint256",
                    "internalType": "uint256"
                }
            ],
            "outputs": [],
            "stateMutability": "nonpayable"
        },
        {
            "type": "function",
            "name": "safeTransferFrom",
            "inputs": [
                {
                    "name": "from",
                    "type": "address",
                    "internalType": "address"
                },
                {
                    "name": "to",
                    "type": "address",
                    "internalType": "address"
                },
                {
                    "name": "tokenId",
                    "type": "uint256",
                    "internalType": "uint256"
                },
                {
                    "name": "data",
                    "type": "bytes",
                    "internalType": "bytes"
                }
            ],
            "outputs": [],
            "stateMutability": "nonpayable"
        },
        {
            "type": "function",
            "name": "setApprovalForAll",
            "inputs": [
                {
                    "name": "operator",
                    "type": "address",
                    "internalType": "address"
                },
                {
                    "name": "approved",
                    "type": "bool",
                    "internalType": "bool"
                }
            ],
            "outputs": [],
            "stateMutability": "nonpayable"
        },
        {
            "type": "function",
            "name": "supportsInterface",
            "inputs": [
                {
                    "name": "interfaceId",
                    "type": "bytes4",
                    "internalType": "bytes4"
                }
            ],
            "outputs": [
                {
                    "name": "",
                    "type": "bool",
                    "internalType": "bool"
                }
            ],
            "stateMutability": "view"
        },
        {
            "type": "function",
            "name": "symbol",
            "inputs": [],
            "outputs": [
                {
                    "name": "",
                    "type": "string",
                    "internalType": "string"
                }
            ],
            "stateMutability": "view"
        },
        {
            "type": "function",
            "name": "tokenURI",
            "inputs": [
                {
                    "name": "tokenId",
                    "type": "uint256",
                    "internalType": "uint256"
                }
            ],
            "outputs": [
                {
                    "name": "",
                    "type": "string",
                    "internalType": "string"
                }
            ],
            "stateMutability": "view"
        },
        {
            "type": "function",
            "name": "transferFrom",
            "inputs": [
                {
                    "name": "from",
                    "type": "address",
                    "internalType": "address"
                },
                {
                    "name": "to",
                    "type": "address",
                    "internalType": "address"
                },
                {
                    "name": "tokenId",
                    "type": "uint256",
                    "internalType": "uint256"
                }
            ],
            "outputs": [],
            "stateMutability": "nonpayable"
        },
        {
            "type": "function",
            "name": "transferOwnership",
            "inputs": [
                {
                    "name": "newOwner",
                    "type": "address",
                    "internalType": "address"
                }
            ],
            "outputs": [],
            "stateMutability": "nonpayable"
        },
        {
            "type": "function",
            "name": "unpause",
            "inputs": [],
            "outputs": [],
            "stateMutability": "nonpayable"
        },
        {
            "type": "event",
            "name": "Approval",
            "inputs": [
                {
                    "name": "owner",
                    "type": "address",
                    "indexed": true,
                    "internalType": "address"
                },
                {
                    "name": "approved",
                    "type": "address",
                    "indexed": true,
                    "internalType": "address"
                },
                {
                    "name": "tokenId",
                    "type": "uint256",
                    "indexed": true,
                    "internalType": "uint256"
                }
            ],
            "anonymous": false
        },
        {
            "type": "event",
            "name": "ApprovalForAll",
            "inputs": [
                {
                    "name": "owner",
                    "type": "address",
                    "indexed": true,
                    "internalType": "address"
                },
                {
                    "name": "operator",
                    "type": "address",
                    "indexed": true,
                    "internalType": "address"
                },
                {
                    "name": "approved",
                    "type": "bool",
                    "indexed": false,
                    "internalType": "bool"
                }
            ],
            "anonymous": false
        },
        {
            "type": "event",
            "name": "OwnershipTransferred",
            "inputs": [
                {
                    "name": "previousOwner",
                    "type": "address",
                    "indexed": true,
                    "internalType": "address"
                },
                {
                    "name": "newOwner",
                    "type": "address",
                    "indexed": true,
                    "internalType": "address"
                }
            ],
            "anonymous": false
        },
        {
            "type": "event",
            "name": "Paused",
            "inputs": [
                {
                    "name": "account",
                    "type": "address",
                    "indexed": false,
                    "internalType": "address"
                }
            ],
            "anonymous": false
        },
        {
            "type": "event",
            "name": "Transfer",
            "inputs": [
                {
                    "name": "from",
                    "type": "address",
                    "indexed": true,
                    "internalType": "address"
                },
                {
                    "name": "to",
                    "type": "address",
                    "indexed": true,
                    "internalType": "address"
                },
                {
                    "name": "tokenId",
                    "type": "uint256",
                    "indexed": true,
                    "internalType": "uint256"
                }
            ],
            "anonymous": false
        },
        {
            "type": "event",
            "name": "Unpaused",
            "inputs": [
                {
                    "name": "account",
                    "type": "address",
                    "indexed": false,
                    "internalType": "address"
                }
            ],
            "anonymous": false
        },
        {
            "type": "error",
            "name": "ERC721IncorrectOwner",
            "inputs": [
                {
                    "name": "sender",
                    "type": "address",
                    "internalType": "address"
                },
                {
                    "name": "tokenId",
                    "type": "uint256",
                    "internalType": "uint256"
                },
                {
                    "name": "owner",
                    "type": "address",
                    "internalType": "address"
                }
            ]
        },
        {
            "type": "error",
            "name": "ERC721InsufficientApproval",
            "inputs": [
                {
                    "name": "operator",
                    "type": "address",
                    "internalType": "address"
                },
                {
                    "name": "tokenId",
                    "type": "uint256",
                    "internalType": "uint256"
                }
            ]
        },
        {
            "type": "error",
            "name": "ERC721InvalidApprover",
            "inputs": [
                {
                    "name": "approver",
                    "type": "address",
                    "internalType": "address"
                }
            ]
        },
        {
            "type": "error",
            "name": "ERC721InvalidOperator",
            "inputs": [
                {
                    "name": "operator",
                    "type": "address",
                    "internalType": "address"
                }
            ]
        },
        {
            "type": "error",
            "name": "ERC721InvalidOwner",
            "inputs": [
                {
                    "name": "owner",
                    "type": "address",
                    "internalType": "address"
                }
            ]
        },
        {
            "type": "error",
            "name": "ERC721InvalidReceiver",
            "inputs": [
                {
                    "name": "receiver",
                    "type": "address",
                    "internalType": "address"
                }
            ]
        },
        {
            "type": "error",
            "name": "ERC721InvalidSender",
            "inputs": [
                {
                    "name": "sender",
                    "type": "address",
                    "internalType": "address"
                }
            ]
        },
        {
            "type": "error",
            "name": "ERC721NonexistentToken",
            "inputs": [
                {
                    "name": "tokenId",
                    "type": "uint256",
                    "internalType": "uint256"
                }
            ]
        },
        {
            "type": "error",
            "name": "EnforcedPause",
            "inputs": []
        },
        {
            "type": "error",
            "name": "ExpectedPause",
            "inputs": []
        },
        {
            "type": "error",
            "name": "OwnableInvalidOwner",
            "inputs": [
                {
                    "name": "owner",
                    "type": "address",
                    "internalType": "address"
                }
            ]
        },
        {
            "type": "error",
            "name": "OwnableUnauthorizedAccount",
            "inputs": [
                {
                    "name": "account",
                    "type": "address",
                    "internalType": "address"
                }
            ]
        }
    ],
    "bytecode": {
        "object": "0x60806040523480156200001157600080fd5b50604051620015b3380380620015b3833981016040819052620000349162000139565b806040518060400160405280600681526020016544657637323160d01b815250604051806040016040528060038152602001622232bb60e91b815250816000908162000081919062000210565b50600162000090828262000210565b50506006805460ff19169055506001600160a01b038116620000cc57604051631e4fbdf760e01b81526000600482015260240160405180910390fd5b620000d781620000df565b5050620002dc565b600680546001600160a01b03838116610100818102610100600160a81b031985161790945560405193909204169182907f8be0079c531659141344cd1fd0a4f28419497f9722a3daafe3b4186f6b6457e090600090a35050565b6000602082840312156200014c57600080fd5b81516001600160a01b03811681146200016457600080fd5b9392505050565b634e487b7160e01b600052604160045260246000fd5b600181811c908216806200019657607f821691505b602082108103620001b757634e487b7160e01b600052602260045260246000fd5b50919050565b601f8211156200020b57600081815260208120601f850160051c81016020861015620001e65750805b601f850160051c820191505b818110156200020757828155600101620001f2565b5050505b505050565b81516001600160401b038111156200022c576200022c6200016b565b62000244816200023d845462000181565b84620001bd565b602080601f8311600181146200027c5760008415620002635750858301515b600019600386901b1c1916600185901b17855562000207565b600085815260208120601f198616915b82811015620002ad578886015182559484019460019091019084016200028c565b5085821015620002cc5787850151600019600388901b60f8161c191681555b5050505050600190811b01905550565b6112c780620002ec6000396000f3fe608060405234801561001057600080fd5b50600436106101375760003560e01c80636352211e116100b857806395d89b411161007c57806395d89b4114610272578063a22cb4651461027a578063b88d4fde1461028d578063c87b56dd146102a0578063e985e9c5146102b3578063f2fde38b146102c657600080fd5b80636352211e1461021857806370a082311461022b578063715018a61461024c5780638456cb59146102545780638da5cb5b1461025c57600080fd5b80633f4ba83a116100ff5780633f4ba83a146101cc57806340d097c3146101d457806342842e0e146101e757806342966c68146101fa5780635c975abb1461020d57600080fd5b806301ffc9a71461013c57806306fdde0314610164578063081812fc14610179578063095ea7b3146101a457806323b872dd146101b9575b600080fd5b61014f61014a366004610f10565b6102d9565b60405190151581526020015b60405180910390f35b61016c61032b565b60405161015b9190610f7d565b61018c610187366004610f90565b6103bd565b6040516001600160a01b03909116815260200161015b565b6101b76101b2366004610fc5565b6103e6565b005b6101b76101c7366004610fef565b6103f5565b6101b7610485565b6101b76101e236600461102b565b610497565b6101b76101f5366004610fef565b6104c0565b6101b7610208366004610f90565b6104e0565b60065460ff1661014f565b61018c610226366004610f90565b6104ec565b61023e61023936600461102b565b6104f7565b60405190815260200161015b565b6101b761053f565b6101b7610551565b60065461010090046001600160a01b031661018c565b61016c610561565b6101b7610288366004611046565b610570565b6101b761029b366004611098565b61057b565b61016c6102ae366004610f90565b610592565b61014f6102c1366004611174565b61062c565b6101b76102d436600461102b565b61065a565b60006001600160e01b031982166380ac58cd60e01b148061030a57506001600160e01b03198216635b5e139f60e01b145b8061032557506301ffc9a760e01b6001600160e01b03198316145b92915050565b60606000805461033a906111a7565b80601f0160208091040260200160405190810160405280929190818152602001828054610366906111a7565b80156103b35780601f10610388576101008083540402835291602001916103b3565b820191906000526020600020905b81548152906001019060200180831161039657829003601f168201915b5050505050905090565b60006103c882610698565b506000828152600460205260409020546001600160a01b0316610325565b6103f18282336106d1565b5050565b6001600160a01b03821661042457604051633250574960e11b8152600060048201526024015b60405180910390fd5b60006104318383336106de565b9050836001600160a01b0316816001600160a01b03161461047f576040516364283d7b60e01b81526001600160a01b038086166004830152602482018490528216604482015260640161041b565b50505050565b61048d6106f3565b610495610726565b565b61049f6106f3565b60078054600091826104b0836111e1565b9190505590506103f18282610778565b6104db8383836040518060200160405280600081525061057b565b505050565b6103f1600082336106de565b600061032582610698565b60006001600160a01b038216610523576040516322718ad960e21b81526000600482015260240161041b565b506001600160a01b031660009081526003602052604090205490565b6105476106f3565b6104956000610792565b6105596106f3565b6104956107ec565b60606001805461033a906111a7565b6103f1338383610829565b6105868484846103f5565b61047f848484846108c8565b606061059d82610698565b5060006105da60408051808201909152601d81527f68747470733a2f2f6578616d706c652e636f6d2f6d657461646174612f000000602082015290565b905060008151116105fa5760405180602001604052806000815250610625565b80610604846109f1565b604051602001610615929190611208565b6040516020818303038152906040525b9392505050565b6001600160a01b03918216600090815260056020908152604080832093909416825291909152205460ff1690565b6106626106f3565b6001600160a01b03811661068c57604051631e4fbdf760e01b81526000600482015260240161041b565b61069581610792565b50565b6000818152600260205260408120546001600160a01b03168061032557604051637e27328960e01b81526004810184905260240161041b565b6104db8383836001610a84565b60006106eb848484610b8a565b949350505050565b6006546001600160a01b036101009091041633146104955760405163118cdaa760e01b815233600482015260240161041b565b61072e610b9f565b6006805460ff191690557f5db9ee0a495bf2e6ff9c91a7834c1ba4fdd244a5e8aa4e537bd38aeae4b073aa335b6040516001600160a01b03909116815260200160405180910390a1565b6103f1828260405180602001604052806000815250610bc2565b600680546001600160a01b03838116610100818102610100600160a81b031985161790945560405193909204169182907f8be0079c531659141344cd1fd0a4f28419497f9722a3daafe3b4186f6b6457e090600090a35050565b6107f4610bd9565b6006805460ff191660011790557f62e78cea01bee320cd4e420270b5ea74000d11b0c9f74754ebdbfc544b05a25861075b3390565b6001600160a01b03821661085b57604051630b61174360e31b81526001600160a01b038316600482015260240161041b565b6001600160a01b03838116600081815260056020908152604080832094871680845294825291829020805460ff191686151590811790915591519182527f17307eab39ab6107e8899845ad3d59bd9653f200f220920489ca2b5937696c31910160405180910390a3505050565b6001600160a01b0383163b1561047f57604051630a85bd0160e11b81526001600160a01b0384169063150b7a029061090a903390889087908790600401611237565b6020604051808303816000875af1925050508015610945575060408051601f3d908101601f1916820190925261094291810190611274565b60015b6109ae573d808015610973576040519150601f19603f3d011682016040523d82523d6000602084013e610978565b606091505b5080516000036109a657604051633250574960e11b81526001600160a01b038516600482015260240161041b565b805181602001fd5b6001600160e01b03198116630a85bd0160e11b146109ea57604051633250574960e11b81526001600160a01b038516600482015260240161041b565b5050505050565b606060006109fe83610bfd565b600101905060008167ffffffffffffffff811115610a1e57610a1e611082565b6040519080825280601f01601f191660200182016040528015610a48576020820181803683370190505b5090508181016020015b600019016f181899199a1a9b1b9c1cb0b131b232b360811b600a86061a8153600a8504945084610a5257509392505050565b8080610a9857506001600160a01b03821615155b15610b5a576000610aa884610698565b90506001600160a01b03831615801590610ad45750826001600160a01b0316816001600160a01b031614155b8015610ae75750610ae5818461062c565b155b15610b105760405163a9fbf51f60e01b81526001600160a01b038416600482015260240161041b565b8115610b585783856001600160a01b0316826001600160a01b03167f8c5be1e5ebec7d5bd14f71427d1e84f3dd0314c0f7b2291e5b200ac8c7c3b92560405160405180910390a45b505b5050600090815260046020526040902080546001600160a01b0319166001600160a01b0392909216919091179055565b6000610b94610bd9565b6106eb848484610cd5565b60065460ff1661049557604051638dfc202b60e01b815260040160405180910390fd5b610bcc8383610dce565b6104db60008484846108c8565b60065460ff16156104955760405163d93c066560e01b815260040160405180910390fd5b60008072184f03e93ff9f4daa797ed6e38ed64bf6a1f0160401b8310610c3c5772184f03e93ff9f4daa797ed6e38ed64bf6a1f0160401b830492506040015b6d04ee2d6d415b85acef81000000008310610c68576d04ee2d6d415b85acef8100000000830492506020015b662386f26fc100008310610c8657662386f26fc10000830492506010015b6305f5e1008310610c9e576305f5e100830492506008015b6127108310610cb257612710830492506004015b60648310610cc4576064830492506002015b600a83106103255760010192915050565b6000828152600260205260408120546001600160a01b0390811690831615610d0257610d02818486610e33565b6001600160a01b03811615610d4057610d1f600085600080610a84565b6001600160a01b038116600090815260036020526040902080546000190190555b6001600160a01b03851615610d6f576001600160a01b0385166000908152600360205260409020805460010190555b60008481526002602052604080822080546001600160a01b0319166001600160a01b0389811691821790925591518793918516917fddf252ad1be2c89b69c2b068fc378daa952ba7f163c4a11628f55a4df523b3ef91a4949350505050565b6001600160a01b038216610df857604051633250574960e11b81526000600482015260240161041b565b6000610e06838360006106de565b90506001600160a01b038116156104db576040516339e3563760e11b81526000600482015260240161041b565b610e3e838383610e97565b6104db576001600160a01b038316610e6c57604051637e27328960e01b81526004810182905260240161041b565b60405163177e802f60e01b81526001600160a01b03831660048201526024810182905260440161041b565b60006001600160a01b038316158015906106eb5750826001600160a01b0316846001600160a01b03161480610ed15750610ed1848461062c565b806106eb5750506000908152600460205260409020546001600160a01b03908116911614919050565b6001600160e01b03198116811461069557600080fd5b600060208284031215610f2257600080fd5b813561062581610efa565b60005b83811015610f48578181015183820152602001610f30565b50506000910152565b60008151808452610f69816020860160208601610f2d565b601f01601f19169290920160200192915050565b6020815260006106256020830184610f51565b600060208284031215610fa257600080fd5b5035919050565b80356001600160a01b0381168114610fc057600080fd5b919050565b60008060408385031215610fd857600080fd5b610fe183610fa9565b946020939093013593505050565b60008060006060848603121561100457600080fd5b61100d84610fa9565b925061101b60208501610fa9565b9150604084013590509250925092565b60006020828403121561103d57600080fd5b61062582610fa9565b6000806040838503121561105957600080fd5b61106283610fa9565b91506020830135801515811461107757600080fd5b809150509250929050565b634e487b7160e01b600052604160045260246000fd5b600080600080608085870312156110ae57600080fd5b6110b785610fa9565b93506110c560208601610fa9565b925060408501359150606085013567ffffffffffffffff808211156110e957600080fd5b818701915087601f8301126110fd57600080fd5b81358181111561110f5761110f611082565b604051601f8201601f19908116603f0116810190838211818310171561113757611137611082565b816040528281528a602084870101111561115057600080fd5b82602086016020830137600060208483010152809550505050505092959194509250565b6000806040838503121561118757600080fd5b61119083610fa9565b915061119e60208401610fa9565b90509250929050565b600181811c908216806111bb57607f821691505b6020821081036111db57634e487b7160e01b600052602260045260246000fd5b50919050565b60006001820161120157634e487b7160e01b600052601160045260246000fd5b5060010190565b6000835161121a818460208801610f2d565b83519083019061122e818360208801610f2d565b01949350505050565b6001600160a01b038581168252841660208201526040810183905260806060820181905260009061126a90830184610f51565b9695505050505050565b60006020828403121561128657600080fd5b815161062581610efa56fea26469706673582212204e3bcd749bf502a67397210e26fb06e242a0c1a5d1eecec819b326c30d28bd3264736f6c63430008140033",
        "linkReferences": {}
    },
    "methodIdentifiers": {
        "approve(address,uint256)": "095ea7b3",
        "balanceOf(address)": "70a08231",
        "burn(uint256)": "42966c68",
        "getApproved(uint256)": "081812fc",
        "isApprovedForAll(address,address)": "e985e9c5",
        "name()": "06fdde03",
        "owner()": "8da5cb5b",
        "ownerOf(uint256)": "6352211e",
        "pause()": "8456cb59",
        "paused()": "5c975abb",
        "renounceOwnership()": "715018a6",
        "safeMint(address)": "40d097c3",
        "safeTransferFrom(address,address,uint256)": "42842e0e",
        "safeTransferFrom(address,address,uint256,bytes)": "b88d4fde",
        "setApprovalForAll(address,bool)": "a22cb465",
        "supportsInterface(bytes4)": "01ffc9a7",
        "symbol()": "95d89b41",
        "tokenURI(uint256)": "c87b56dd",
        "transferFrom(address,address,uint256)": "23b872dd",
        "transferOwnership(address)": "f2fde38b",
        "unpause()": "3f4ba83a"
    },
    "storageLayout": {
        "storage": [
            {
                "astId": 56713,
                "contract": "helpers/token/Dev721.sol:Dev721",
                "label": "_name",
                "offset": 0,
                "slot": "0",
                "type": "t_string_storage"
            },
            {
                "astId": 56715,
                "contract": "helpers/token/Dev721.sol:Dev721",
                "label": "_symbol",
                "offset": 0,
                "slot": "1",
                "type": "t_string_storage"
            },
            {
                "astId": 56719,
                "contract": "helpers/token/Dev721.sol:Dev721",
                "label": "_owners",
                "offset": 0,
                "slot": "2",
                "type": "t_mapping(t_uint256,t_address)"
            },
            {
                "astId": 56723,
                "contract": "helpers/token/Dev721.sol:Dev721",
                "label": "_balances",
                "offset": 0,
                "slot": "3",
                "type": "t_mapping(t_address,t_uint256)"
            },
            {
                "astId": 56727,
                "contract": "helpers/token/Dev721.sol:Dev721",
                "label": "_tokenApprovals",
                "offset": 0,
                "slot": "4",
                "type": "t_mapping(t_uint256,t_address)"
            },
            {
                "astId": 56733,
                "contract": "helpers/token/Dev721.sol:Dev721",
                "label": "_operatorApprovals",
                "offset": 0,
                "slot": "5",
                "type": "t_mapping(t_address,t_mapping(t_address,t_bool))"
            },
            {
                "astId": 58206,
                "contract": "helpers/token/Dev721.sol:Dev721",
                "label": "_paused",
                "offset": 0,
                "slot": "6",
                "type": "t_bool"
            },
            {
                "astId": 53664,
                "contract": "helpers/token/Dev721.sol:Dev721",
                "label": "_owner",
                "offset": 1,
                "slot": "6",
                "type": "t_address"
            },
            {
                "astId": 1613,
                "contract": "helpers/token/Dev721.sol:Dev721",
                "label": "_nextTokenId",
                "offset": 0,
                "slot": "7",
                "type": "t_uint256"
            }
        ],
        "types": {
            "t_address": {
                "encoding": "inplace",
                "label": "address",
                "numberOfBytes": "20"
            },
            "t_bool": {
                "encoding": "inplace",
                "label": "bool",
                "numberOfBytes": "1"
            },
            "t_mapping(t_address,t_bool)": {
                "encoding": "mapping",
                "key": "t_address",
                "label": "mapping(address => bool)",
                "numberOfBytes": "32",
                "value": "t_bool"
            },
            "t_mapping(t_address,t_mapping(t_address,t_bool))": {
                "encoding": "mapping",
                "key": "t_address",
                "label": "mapping(address => mapping(address => bool))",
                "numberOfBytes": "32",
                "value": "t_mapping(t_address,t_bool)"
            },
            "t_mapping(t_address,t_uint256)": {
                "encoding": "mapping",
                "key": "t_address",
                "label": "mapping(address => uint256)",
                "numberOfBytes": "32",
                "value": "t_uint256"
            },
            "t_mapping(t_uint256,t_address)": {
                "encoding": "mapping",
                "key": "t_uint256",
                "label": "mapping(uint256 => address)",
                "numberOfBytes": "32",
                "value": "t_address"
            },
            "t_string_storage": {
                "encoding": "bytes",
                "label": "string",
                "numberOfBytes": "32"
            },
            "t_uint256": {
                "encoding": "inplace",
                "label": "uint256",
                "numberOfBytes": "32"
            }
        }
    },
    "id": 4
}