{
    "abi": [
        {
            "type": "constructor",
            "inputs": [],
            "stateMutability": "nonpayable"
        },
        {
            "type": "function",
            "name": "BOT_ROLE",
            "inputs": [],
            "outputs": [
                {
                    "name": "",
                    "type": "bytes32",
                    "internalType": "bytes32"
                }
            ],
            "stateMutability": "view"
        },
        {
            "type": "function",
            "name": "CALLER_ROLE",
            "inputs": [],
            "outputs": [
                {
                    "name": "",
                    "type": "bytes32",
                    "internalType": "bytes32"
                }
            ],
            "stateMutability": "view"
        },
        {
            "type": "function",
            "name": "DEFAULT_ADMIN_ROLE",
            "inputs": [],
            "outputs": [
                {
                    "name": "",
                    "type": "bytes32",
                    "internalType": "bytes32"
                }
            ],
            "stateMutability": "view"
        },
        {
            "type": "function",
            "name": "ERC_TRANSFER_ROLE",
            "inputs": [],
            "outputs": [
                {
                    "name": "",
                    "type": "bytes32",
                    "internalType": "bytes32"
                }
            ],
            "stateMutability": "view"
        },
        {
            "type": "function",
            "name": "UPGRADER_ROLE",
            "inputs": [],
            "outputs": [
                {
                    "name": "",
                    "type": "bytes32",
                    "internalType": "bytes32"
                }
            ],
            "stateMutability": "view"
        },
        {
            "type": "function",
            "name": "UPGRADE_INTERFACE_VERSION",
            "inputs": [],
            "outputs": [
                {
                    "name": "",
                    "type": "string",
                    "internalType": "string"
                }
            ],
            "stateMutability": "view"
        },
        {
            "type": "function",
            "name": "addControllerRole",
            "inputs": [
                {
                    "name": "role",
                    "type": "uint8",
                    "internalType": "enum ControllerRole"
                },
                {
                    "name": "account",
                    "type": "address",
                    "internalType": "address"
                }
            ],
            "outputs": [],
            "stateMutability": "nonpayable"
        },
        {
            "type": "function",
            "name": "call",
            "inputs": [
                {
                    "name": "targetContract",
                    "type": "address",
                    "internalType": "address"
                },
                {
                    "name": "callData",
                    "type": "bytes",
                    "internalType": "bytes"
                }
            ],
            "outputs": [
                {
                    "name": "",
                    "type": "bytes",
                    "internalType": "bytes"
                }
            ],
            "stateMutability": "payable"
        },
        {
            "type": "function",
            "name": "callBatch",
            "inputs": [
                {
                    "name": "calls",
                    "type": "tuple[]",
                    "internalType": "struct IMulticall3.Call3[]",
                    "components": [
                        {
                            "name": "target",
                            "type": "address",
                            "internalType": "address"
                        },
                        {
                            "name": "allowFailure",
                            "type": "bool",
                            "internalType": "bool"
                        },
                        {
                            "name": "callData",
                            "type": "bytes",
                            "internalType": "bytes"
                        }
                    ]
                }
            ],
            "outputs": [
                {
                    "name": "",
                    "type": "tuple[]",
                    "internalType": "struct IMulticall3.Result[]",
                    "components": [
                        {
                            "name": "success",
                            "type": "bool",
                            "internalType": "bool"
                        },
                        {
                            "name": "returnData",
                            "type": "bytes",
                            "internalType": "bytes"
                        }
                    ]
                }
            ],
            "stateMutability": "payable"
        },
        {
            "type": "function",
            "name": "callBatchValue",
            "inputs": [
                {
                    "name": "calls",
                    "type": "tuple[]",
                    "internalType": "struct IMulticall3.Call3Value[]",
                    "components": [
                        {
                            "name": "target",
                            "type": "address",
                            "internalType": "address"
                        },
                        {
                            "name": "allowFailure",
                            "type": "bool",
                            "internalType": "bool"
                        },
                        {
                            "name": "value",
                            "type": "uint256",
                            "internalType": "uint256"
                        },
                        {
                            "name": "callData",
                            "type": "bytes",
                            "internalType": "bytes"
                        }
                    ]
                }
            ],
            "outputs": [
                {
                    "name": "",
                    "type": "tuple[]",
                    "internalType": "struct IMulticall3.Result[]",
                    "components": [
                        {
                            "name": "success",
                            "type": "bool",
                            "internalType": "bool"
                        },
                        {
                            "name": "returnData",
                            "type": "bytes",
                            "internalType": "bytes"
                        }
                    ]
                }
            ],
            "stateMutability": "payable"
        },
        {
            "type": "function",
            "name": "changeControllerOwner",
            "inputs": [
                {
                    "name": "newOwner",
                    "type": "address",
                    "internalType": "address"
                }
            ],
            "outputs": [],
            "stateMutability": "nonpayable"
        },
        {
            "type": "function",
            "name": "contractType",
            "inputs": [],
            "outputs": [
                {
                    "name": "",
                    "type": "string",
                    "internalType": "string"
                }
            ],
            "stateMutability": "view"
        },
        {
            "type": "function",
            "name": "createVault",
            "inputs": [
                {
                    "name": "targetVaultFactory",
                    "type": "address",
                    "internalType": "address"
                },
                {
                    "name": "projectOwner",
                    "type": "address",
                    "internalType": "address"
                },
                {
                    "name": "rewardToken",
                    "type": "address",
                    "internalType": "address"
                },
                {
                    "name": "projectName",
                    "type": "string",
                    "internalType": "string"
                }
            ],
            "outputs": [
                {
                    "name": "",
                    "type": "address",
                    "internalType": "address"
                }
            ],
            "stateMutability": "nonpayable"
        },
        {
            "type": "function",
            "name": "feeReceiver",
            "inputs": [],
            "outputs": [
                {
                    "name": "",
                    "type": "address",
                    "internalType": "address"
                }
            ],
            "stateMutability": "view"
        },
        {
            "type": "function",
            "name": "getRoleAdmin",
            "inputs": [
                {
                    "name": "role",
                    "type": "bytes32",
                    "internalType": "bytes32"
                }
            ],
            "outputs": [
                {
                    "name": "",
                    "type": "bytes32",
                    "internalType": "bytes32"
                }
            ],
            "stateMutability": "view"
        },
        {
            "type": "function",
            "name": "grantRole",
            "inputs": [
                {
                    "name": "role",
                    "type": "bytes32",
                    "internalType": "bytes32"
                },
                {
                    "name": "account",
                    "type": "address",
                    "internalType": "address"
                }
            ],
            "outputs": [],
            "stateMutability": "nonpayable"
        },
        {
            "type": "function",
            "name": "hasControllerRole",
            "inputs": [
                {
                    "name": "role",
                    "type": "uint8",
                    "internalType": "enum ControllerRole"
                },
                {
                    "name": "account",
                    "type": "address",
                    "internalType": "address"
                }
            ],
            "outputs": [
                {
                    "name": "",
                    "type": "bool",
                    "internalType": "bool"
                }
            ],
            "stateMutability": "view"
        },
        {
            "type": "function",
            "name": "hasRole",
            "inputs": [
                {
                    "name": "role",
                    "type": "bytes32",
                    "internalType": "bytes32"
                },
                {
                    "name": "account",
                    "type": "address",
                    "internalType": "address"
                }
            ],
            "outputs": [
                {
                    "name": "",
                    "type": "bool",
                    "internalType": "bool"
                }
            ],
            "stateMutability": "view"
        },
        {
            "type": "function",
            "name": "initialize",
            "inputs": [
                {
                    "name": "initialAdmin",
                    "type": "address",
                    "internalType": "address"
                },
                {
                    "name": "_feeReceiver",
                    "type": "address",
                    "internalType": "address"
                },
                {
                    "name": "initialBot",
                    "type": "address",
                    "internalType": "address"
                }
            ],
            "outputs": [],
            "stateMutability": "nonpayable"
        },
        {
            "type": "function",
            "name": "multicallAddress",
            "inputs": [],
            "outputs": [
                {
                    "name": "",
                    "type": "address",
                    "internalType": "address"
                }
            ],
            "stateMutability": "view"
        },
        {
            "type": "function",
            "name": "owner",
            "inputs": [],
            "outputs": [
                {
                    "name": "",
                    "type": "address",
                    "internalType": "address"
                }
            ],
            "stateMutability": "view"
        },
        {
            "type": "function",
            "name": "proxiableUUID",
            "inputs": [],
            "outputs": [
                {
                    "name": "",
                    "type": "bytes32",
                    "internalType": "bytes32"
                }
            ],
            "stateMutability": "view"
        },
        {
            "type": "function",
            "name": "removeControllerRole",
            "inputs": [
                {
                    "name": "role",
                    "type": "uint8",
                    "internalType": "enum ControllerRole"
                },
                {
                    "name": "account",
                    "type": "address",
                    "internalType": "address"
                }
            ],
            "outputs": [],
            "stateMutability": "nonpayable"
        },
        {
            "type": "function",
            "name": "renounceRole",
            "inputs": [
                {
                    "name": "role",
                    "type": "bytes32",
                    "internalType": "bytes32"
                },
                {
                    "name": "callerConfirmation",
                    "type": "address",
                    "internalType": "address"
                }
            ],
            "outputs": [],
            "stateMutability": "nonpayable"
        },
        {
            "type": "function",
            "name": "revokeRole",
            "inputs": [
                {
                    "name": "role",
                    "type": "bytes32",
                    "internalType": "bytes32"
                },
                {
                    "name": "account",
                    "type": "address",
                    "internalType": "address"
                }
            ],
            "outputs": [],
            "stateMutability": "nonpayable"
        },
        {
            "type": "function",
            "name": "setFeeReceiver",
            "inputs": [
                {
                    "name": "newFeeReceiver",
                    "type": "address",
                    "internalType": "address"
                }
            ],
            "outputs": [],
            "stateMutability": "nonpayable"
        },
        {
            "type": "function",
            "name": "setMulticallAddress",
            "inputs": [
                {
                    "name": "newMulticallContract",
                    "type": "address",
                    "internalType": "address"
                }
            ],
            "outputs": [],
            "stateMutability": "nonpayable"
        },
        {
            "type": "function",
            "name": "supportsInterface",
            "inputs": [
                {
                    "name": "interfaceId",
                    "type": "bytes4",
                    "internalType": "bytes4"
                }
            ],
            "outputs": [
                {
                    "name": "",
                    "type": "bool",
                    "internalType": "bool"
                }
            ],
            "stateMutability": "view"
        },
        {
            "type": "function",
            "name": "transferERC20Token",
            "inputs": [
                {
                    "name": "tokenAddress",
                    "type": "address",
                    "internalType": "address"
                },
                {
                    "name": "receiver",
                    "type": "address",
                    "internalType": "address"
                },
                {
                    "name": "amount",
                    "type": "uint256",
                    "internalType": "uint256"
                }
            ],
            "outputs": [],
            "stateMutability": "nonpayable"
        },
        {
            "type": "function",
            "name": "upgradeToAndCall",
            "inputs": [
                {
                    "name": "newImplementation",
                    "type": "address",
                    "internalType": "address"
                },
                {
                    "name": "data",
                    "type": "bytes",
                    "internalType": "bytes"
                }
            ],
            "outputs": [],
            "stateMutability": "payable"
        },
        {
            "type": "function",
            "name": "vaultReward",
            "inputs": [
                {
                    "name": "targetVault",
                    "type": "address",
                    "internalType": "address"
                },
                {
                    "name": "to",
                    "type": "address",
                    "internalType": "address"
                },
                {
                    "name": "amount",
                    "type": "uint256",
                    "internalType": "uint256"
                }
            ],
            "outputs": [
                {
                    "name": "",
                    "type": "bool",
                    "internalType": "bool"
                }
            ],
            "stateMutability": "nonpayable"
        },
        {
            "type": "function",
            "name": "vaultRewardBatch",
            "inputs": [
                {
                    "name": "targetVault",
                    "type": "address",
                    "internalType": "address"
                },
                {
                    "name": "receivers",
                    "type": "tuple[]",
                    "internalType": "struct Receiver[]",
                    "components": [
                        {
                            "name": "receiver",
                            "type": "address",
                            "internalType": "address"
                        },
                        {
                            "name": "amount",
                            "type": "uint256",
                            "internalType": "uint256"
                        }
                    ]
                }
            ],
            "outputs": [
                {
                    "name": "returnData",
                    "type": "tuple[]",
                    "internalType": "struct Result[]",
                    "components": [
                        {
                            "name": "success",
                            "type": "bool",
                            "internalType": "bool"
                        },
                        {
                            "name": "returnData",
                            "type": "bytes",
                            "internalType": "bytes"
                        }
                    ]
                }
            ],
            "stateMutability": "nonpayable"
        },
        {
            "type": "function",
            "name": "version",
            "inputs": [],
            "outputs": [
                {
                    "name": "",
                    "type": "string",
                    "internalType": "string"
                }
            ],
            "stateMutability": "view"
        },
        {
            "type": "event",
            "name": "AddedControllerRole",
            "inputs": [
                {
                    "name": "role",
                    "type": "uint8",
                    "indexed": true,
                    "internalType": "enum ControllerRole"
                },
                {
                    "name": "account",
                    "type": "address",
                    "indexed": true,
                    "internalType": "address"
                }
            ],
            "anonymous": false
        },
        {
            "type": "event",
            "name": "CallBatchExecuted",
            "inputs": [
                {
                    "name": "caller",
                    "type": "address",
                    "indexed": true,
                    "internalType": "address"
                },
                {
                    "name": "calls",
                    "type": "tuple[]",
                    "indexed": true,
                    "internalType": "struct IMulticall3.Call3[]",
                    "components": [
                        {
                            "name": "target",
                            "type": "address",
                            "internalType": "address"
                        },
                        {
                            "name": "allowFailure",
                            "type": "bool",
                            "internalType": "bool"
                        },
                        {
                            "name": "callData",
                            "type": "bytes",
                            "internalType": "bytes"
                        }
                    ]
                }
            ],
            "anonymous": false
        },
        {
            "type": "event",
            "name": "CallBatchValueExecuted",
            "inputs": [
                {
                    "name": "caller",
                    "type": "address",
                    "indexed": true,
                    "internalType": "address"
                },
                {
                    "name": "calls",
                    "type": "tuple[]",
                    "indexed": true,
                    "internalType": "struct IMulticall3.Call3Value[]",
                    "components": [
                        {
                            "name": "target",
                            "type": "address",
                            "internalType": "address"
                        },
                        {
                            "name": "allowFailure",
                            "type": "bool",
                            "internalType": "bool"
                        },
                        {
                            "name": "value",
                            "type": "uint256",
                            "internalType": "uint256"
                        },
                        {
                            "name": "callData",
                            "type": "bytes",
                            "internalType": "bytes"
                        }
                    ]
                }
            ],
            "anonymous": false
        },
        {
            "type": "event",
            "name": "CallExecuted",
            "inputs": [
                {
                    "name": "caller",
                    "type": "address",
                    "indexed": true,
                    "internalType": "address"
                },
                {
                    "name": "target",
                    "type": "address",
                    "indexed": true,
                    "internalType": "address"
                },
                {
                    "name": "callData",
                    "type": "bytes",
                    "indexed": true,
                    "internalType": "bytes"
                }
            ],
            "anonymous": false
        },
        {
            "type": "event",
            "name": "ControllerOwnerUpdated",
            "inputs": [
                {
                    "name": "previousOwner",
                    "type": "address",
                    "indexed": true,
                    "internalType": "address"
                },
                {
                    "name": "newOwner",
                    "type": "address",
                    "indexed": true,
                    "internalType": "address"
                }
            ],
            "anonymous": false
        },
        {
            "type": "event",
            "name": "ERCTransferExecuted",
            "inputs": [
                {
                    "name": "ercType",
                    "type": "string",
                    "indexed": false,
                    "internalType": "string"
                },
                {
                    "name": "caller",
                    "type": "address",
                    "indexed": true,
                    "internalType": "address"
                },
                {
                    "name": "receiver",
                    "type": "address",
                    "indexed": true,
                    "internalType": "address"
                },
                {
                    "name": "tokenAddress",
                    "type": "address",
                    "indexed": true,
                    "internalType": "address"
                },
                {
                    "name": "tokenId",
                    "type": "uint256",
                    "indexed": false,
                    "internalType": "uint256"
                },
                {
                    "name": "amount",
                    "type": "uint256",
                    "indexed": false,
                    "internalType": "uint256"
                }
            ],
            "anonymous": false
        },
        {
            "type": "event",
            "name": "FeeReceiverUpdated",
            "inputs": [
                {
                    "name": "caller",
                    "type": "address",
                    "indexed": true,
                    "internalType": "address"
                },
                {
                    "name": "newFeeReceiver",
                    "type": "address",
                    "indexed": true,
                    "internalType": "address"
                }
            ],
            "anonymous": false
        },
        {
            "type": "event",
            "name": "Initialized",
            "inputs": [
                {
                    "name": "version",
                    "type": "uint64",
                    "indexed": false,
                    "internalType": "uint64"
                }
            ],
            "anonymous": false
        },
        {
            "type": "event",
            "name": "MulticallContractUpdated",
            "inputs": [
                {
                    "name": "caller",
                    "type": "address",
                    "indexed": true,
                    "internalType": "address"
                },
                {
                    "name": "newMulticallContract",
                    "type": "address",
                    "indexed": true,
                    "internalType": "address"
                }
            ],
            "anonymous": false
        },
        {
            "type": "event",
            "name": "RemovedControllerRole",
            "inputs": [
                {
                    "name": "role",
                    "type": "uint8",
                    "indexed": true,
                    "internalType": "enum ControllerRole"
                },
                {
                    "name": "account",
                    "type": "address",
                    "indexed": true,
                    "internalType": "address"
                }
            ],
            "anonymous": false
        },
        {
            "type": "event",
            "name": "Rewarded",
            "inputs": [
                {
                    "name": "caller",
                    "type": "address",
                    "indexed": true,
                    "internalType": "address"
                },
                {
                    "name": "targetVault",
                    "type": "address",
                    "indexed": true,
                    "internalType": "address"
                },
                {
                    "name": "receiver",
                    "type": "address",
                    "indexed": true,
                    "internalType": "address"
                },
                {
                    "name": "amount",
                    "type": "uint256",
                    "indexed": false,
                    "internalType": "uint256"
                }
            ],
            "anonymous": false
        },
        {
            "type": "event",
            "name": "RewardedBatch",
            "inputs": [
                {
                    "name": "caller",
                    "type": "address",
                    "indexed": true,
                    "internalType": "address"
                },
                {
                    "name": "targetVault",
                    "type": "address",
                    "indexed": true,
                    "internalType": "address"
                },
                {
                    "name": "receiverAmount",
                    "type": "uint256",
                    "indexed": true,
                    "internalType": "uint256"
                },
                {
                    "name": "receivers",
                    "type": "tuple[]",
                    "indexed": false,
                    "internalType": "struct Receiver[]",
                    "components": [
                        {
                            "name": "receiver",
                            "type": "address",
                            "internalType": "address"
                        },
                        {
                            "name": "amount",
                            "type": "uint256",
                            "internalType": "uint256"
                        }
                    ]
                }
            ],
            "anonymous": false
        },
        {
            "type": "event",
            "name": "RoleAdminChanged",
            "inputs": [
                {
                    "name": "role",
                    "type": "bytes32",
                    "indexed": true,
                    "internalType": "bytes32"
                },
                {
                    "name": "previousAdminRole",
                    "type": "bytes32",
                    "indexed": true,
                    "internalType": "bytes32"
                },
                {
                    "name": "newAdminRole",
                    "type": "bytes32",
                    "indexed": true,
                    "internalType": "bytes32"
                }
            ],
            "anonymous": false
        },
        {
            "type": "event",
            "name": "RoleGranted",
            "inputs": [
                {
                    "name": "role",
                    "type": "bytes32",
                    "indexed": true,
                    "internalType": "bytes32"
                },
                {
                    "name": "account",
                    "type": "address",
                    "indexed": true,
                    "internalType": "address"
                },
                {
                    "name": "sender",
                    "type": "address",
                    "indexed": true,
                    "internalType": "address"
                }
            ],
            "anonymous": false
        },
        {
            "type": "event",
            "name": "RoleRevoked",
            "inputs": [
                {
                    "name": "role",
                    "type": "bytes32",
                    "indexed": true,
                    "internalType": "bytes32"
                },
                {
                    "name": "account",
                    "type": "address",
                    "indexed": true,
                    "internalType": "address"
                },
                {
                    "name": "sender",
                    "type": "address",
                    "indexed": true,
                    "internalType": "address"
                }
            ],
            "anonymous": false
        },
        {
            "type": "event",
            "name": "Upgraded",
            "inputs": [
                {
                    "name": "implementation",
                    "type": "address",
                    "indexed": true,
                    "internalType": "address"
                }
            ],
            "anonymous": false
        },
        {
            "type": "event",
            "name": "VaultCreated",
            "inputs": [
                {
                    "name": "caller",
                    "type": "address",
                    "indexed": true,
                    "internalType": "address"
                },
                {
                    "name": "vault",
                    "type": "address",
                    "indexed": true,
                    "internalType": "address"
                },
                {
                    "name": "factory",
                    "type": "address",
                    "indexed": true,
                    "internalType": "address"
                },
                {
                    "name": "projectOwner",
                    "type": "address",
                    "indexed": false,
                    "internalType": "address"
                },
                {
                    "name": "projectName",
                    "type": "string",
                    "indexed": false,
                    "internalType": "string"
                },
                {
                    "name": "rewardToken",
                    "type": "address",
                    "indexed": false,
                    "internalType": "address"
                }
            ],
            "anonymous": false
        },
        {
            "type": "error",
            "name": "AccessControlBadConfirmation",
            "inputs": []
        },
        {
            "type": "error",
            "name": "AccessControlUnauthorizedAccount",
            "inputs": [
                {
                    "name": "account",
                    "type": "address",
                    "internalType": "address"
                },
                {
                    "name": "neededRole",
                    "type": "bytes32",
                    "internalType": "bytes32"
                }
            ]
        },
        {
            "type": "error",
            "name": "AddressEmptyCode",
            "inputs": [
                {
                    "name": "target",
                    "type": "address",
                    "internalType": "address"
                }
            ]
        },
        {
            "type": "error",
            "name": "AddressInsufficientBalance",
            "inputs": [
                {
                    "name": "account",
                    "type": "address",
                    "internalType": "address"
                }
            ]
        },
        {
            "type": "error",
            "name": "CallFailed",
            "inputs": []
        },
        {
            "type": "error",
            "name": "CanNotBeZeroAddress",
            "inputs": []
        },
        {
            "type": "error",
            "name": "ERC1967InvalidImplementation",
            "inputs": [
                {
                    "name": "implementation",
                    "type": "address",
                    "internalType": "address"
                }
            ]
        },
        {
            "type": "error",
            "name": "ERC1967NonPayable",
            "inputs": []
        },
        {
            "type": "error",
            "name": "FailedInnerCall",
            "inputs": []
        },
        {
            "type": "error",
            "name": "InvalidInitialization",
            "inputs": []
        },
        {
            "type": "error",
            "name": "NoReceiversFound",
            "inputs": []
        },
        {
            "type": "error",
            "name": "NotControllerOwner",
            "inputs": []
        },
        {
            "type": "error",
            "name": "NotInitializing",
            "inputs": []
        },
        {
            "type": "error",
            "name": "ReentrancyGuardReentrantCall",
            "inputs": []
        },
        {
            "type": "error",
            "name": "SafeERC20FailedOperation",
            "inputs": [
                {
                    "name": "token",
                    "type": "address",
                    "internalType": "address"
                }
            ]
        },
        {
            "type": "error",
            "name": "UUPSUnauthorizedCallContext",
            "inputs": []
        },
        {
            "type": "error",
            "name": "UUPSUnsupportedProxiableUUID",
            "inputs": [
                {
                    "name": "slot",
                    "type": "bytes32",
                    "internalType": "bytes32"
                }
            ]
        }
    ],
    "bytecode": {
        "object": "0x60a0604052306080523480156200001557600080fd5b506200002062000026565b620000da565b7ff0c57e16840df040f15088dc2f81fe391c3923bec73e23a9662efc9c229c6a00805468010000000000000000900460ff1615620000775760405163f92ee8a960e01b815260040160405180910390fd5b80546001600160401b0390811614620000d75780546001600160401b0319166001600160401b0390811782556040519081527fc7f505b2f371ae2175ee4913f4499e1f2633a7b5936321eed1cdaeb6115181d29060200160405180910390a15b50565b608051612bdb6200010460003960008181611a1101528181611a3a0152611b760152612bdb6000f3fe6080604052600436106101ec5760003560e01c80638da5cb5b1161010d578063b3f00674116100a0578063dbde727b1161006f578063dbde727b146105ba578063e2684ae3146105da578063eabbb469146105ed578063efdcd9741461060d578063f72c0d8b1461062d57600080fd5b8063b3f006741461052f578063c0c53b8b14610544578063cb2ef6f714610564578063d547741f1461059a57600080fd5b8063a217fddf116100dc578063a217fddf146104a7578063a518be1a146104bc578063ad3cb1cc146104dc578063b15037741461050d57600080fd5b80638da5cb5b1461043257806391d148541461044757806392940bf9146104675780639828a4431461048757600080fd5b806336568abe1161018557806354fd4d501161015457806354fd4d501461038d57806361d24f15146103c3578063774237fc146103f057806385ab402b1461041257600080fd5b806336568abe146103255780634f1ef2861461034557806352d1902d14610358578063541726701461036d57600080fd5b806318548069116101c157806318548069146102a35780631b8b921d146102c5578063248a9ca3146102e55780632f2ff15d1461030557600080fd5b806245c409146101f1578062c6bd731461022657806301ffc9a7146102565780630817860414610276575b600080fd5b3480156101fd57600080fd5b50610213600080516020612b8683398151915281565b6040519081526020015b60405180910390f35b34801561023257600080fd5b50610246610241366004611f44565b61064f565b604051901515815260200161021d565b34801561026257600080fd5b50610246610271366004611f85565b6107dc565b34801561028257600080fd5b5061028b610813565b6040516001600160a01b03909116815260200161021d565b3480156102af57600080fd5b506102c36102be366004611faf565b61082f565b005b6102d86102d3366004612034565b61092d565b60405161021d91906120d8565b3480156102f157600080fd5b506102136103003660046120eb565b610a63565b34801561031157600080fd5b506102c3610320366004612104565b610a85565b34801561033157600080fd5b506102c3610340366004612104565b610aa7565b6102c3610353366004612196565b610adf565b34801561036457600080fd5b50610213610afa565b61038061037b36600461226c565b610b17565b60405161021d91906122ce565b34801561039957600080fd5b506102d86040518060400160405280600a815260200169302e302e312d6d6f636b60b01b81525081565b3480156103cf57600080fd5b506103e36103de366004612330565b610c20565b60405161021d91906123b7565b3480156103fc57600080fd5b50610213600080516020612ae683398151915281565b34801561041e57600080fd5b506102c361042d36600461240c565b610d59565b34801561043e57600080fd5b5061028b610dfd565b34801561045357600080fd5b50610246610462366004612104565b610e16565b34801561047357600080fd5b506102c3610482366004611f44565b610e4e565b34801561049357600080fd5b5061028b6104a2366004612429565b610f42565b3480156104b357600080fd5b50610213600081565b3480156104c857600080fd5b506102466104d7366004611faf565b61109f565b3480156104e857600080fd5b506102d8604051806040016040528060058152602001640352e302e360dc1b81525081565b34801561051957600080fd5b50610213600080516020612b6683398151915281565b34801561053b57600080fd5b5061028b611140565b34801561055057600080fd5b506102c361055f3660046124a4565b61115c565b34801561057057600080fd5b506102d86040518060400160405280600a81526020016921a7a72a2927a62622a960b11b81525081565b3480156105a657600080fd5b506102c36105b5366004612104565b611394565b3480156105c657600080fd5b506102c36105d536600461240c565b6113b0565b6103806105e836600461226c565b611565565b3480156105f957600080fd5b506102c3610608366004611faf565b61166e565b34801561061957600080fd5b506102c361062836600461240c565b611768565b34801561063957600080fd5b50610213600080516020612b0683398151915281565b6000610659611809565b600080516020612b6683398151915261067181611853565b6001600160a01b038516158061068e57506001600160a01b038416155b156106ac5760405163114a079360e21b815260040160405180910390fd5b6040516310b3879160e11b81526001600160a01b03858116600483015260248201859052600091908716906321670f22906044016020604051808303816000875af11580156106ff573d6000803e3d6000fd5b505050506040513d601f19601f8201168201806040525081019061072391906124fd565b90508061076d5760405162461bcd60e51b815260206004820152601360248201527215985d5b1d0814995dd85c990811985a5b1959606a1b60448201526064015b60405180910390fd5b846001600160a01b0316866001600160a01b03166107883390565b6001600160a01b03167fa209447764afbca4d7c43c9962941f114f3465f7fde32167c76661eb75b3ef77876040516107c291815260200190565b60405180910390a49150506107d561185d565b9392505050565b60006001600160e01b03198216637965db0b60e01b148061080d57506301ffc9a760e01b6001600160e01b03198316145b92915050565b600061081d611883565b600201546001600160a01b0316919050565b610837611809565b600061084281611853565b60018360028111156108565761085661251a565b0361087557610873600080516020612ae6833981519152836118e5565b505b60028360028111156108895761088961251a565b036108a8576108a6600080516020612b86833981519152836118e5565b505b60008360028111156108bc576108bc61251a565b036108db576108d9600080516020612b66833981519152836118e5565b505b816001600160a01b03168360028111156108f7576108f761251a565b6040517f4b161b2586562122c2baa9d5327770f41b259167642836d78ab7c5bdc37159b190600090a35061092961185d565b5050565b6060610937611809565b600080516020612ae683398151915261094f81611853565b6001600160a01b0385166109765760405163114a079360e21b815260040160405180910390fd5b600080866001600160a01b0316348787604051610994929190612530565b60006040518083038185875af1925050503d80600081146109d1576040519150601f19603f3d011682016040523d82523d6000602084013e6109d6565b606091505b5091509150816109f957604051633204506f60e01b815260040160405180910390fd5b8585604051610a09929190612530565b6040518091039020876001600160a01b0316610a223390565b6001600160a01b03167f8750bdaf6e88201790ee2765fea3ac73b514a52658c818723a30de91029ad00060405160405180910390a4925050506107d561185d565b6000908152600080516020612b46833981519152602052604090206001015490565b610a8e82610a63565b610a9781611853565b610aa183836118e5565b50505050565b6001600160a01b0381163314610ad05760405163334bd91960e11b815260040160405180910390fd5b610ada828261198a565b505050565b610ae7611a06565b610af082611a96565b6109298282611aae565b6000610b04611b6b565b50600080516020612b2683398151915290565b6060610b21611809565b600080516020612ae6833981519152610b3981611853565b6000610b43611883565b6002015460405163174dea7160e01b81526001600160a01b039091169063174dea71903490610b7890899089906004016125cd565b60006040518083038185885af1158015610b96573d6000803e3d6000fd5b50505050506040513d6000823e601f3d908101601f19168201604052610bbf919081019061279a565b90508484604051610bd19291906127f8565b6040518091039020610be03390565b6001600160a01b03167fcbcb3a8b7dd9e7cf253f8b1138b90a7242c3a769fb24e00544d8306f3f1560d460405160405180910390a391505061080d61185d565b6060610c2a611809565b600080516020612b66833981519152610c4281611853565b6001600160a01b038516610c695760405163114a079360e21b815260040160405180910390fd5b6001831015610c8b57604051634030268d60e01b815260040160405180910390fd5b6040516332020eb160e01b81526001600160a01b038616906332020eb190610cb9908790879060040161287f565b6000604051808303816000875af1158015610cd8573d6000803e3d6000fd5b505050506040513d6000823e601f3d908101601f19168201604052610d00919081019061279a565b9150826001600160a01b038616336001600160a01b03167f214f875e8c01fad6f3fc1514d8444a1bbc3920b93a723c614620c28a608c96e78787604051610d4892919061287f565b60405180910390a4506107d561185d565b610d61611809565b6000610d6c81611853565b6001600160a01b038216610d935760405163114a079360e21b815260040160405180910390fd5b81610d9c611883565b60020180546001600160a01b0319166001600160a01b039283161790558216336001600160a01b03167f749fd2b8a141c6e6bbadd89bc4c73dd5602d57c519077d76885c2925b618754d60405160405180910390a350610dfa61185d565b50565b6000610e07611883565b546001600160a01b0316919050565b6000918252600080516020612b46833981519152602090815260408084206001600160a01b0393909316845291905290205460ff1690565b610e56611809565b600080516020612b86833981519152610e6e81611853565b6001600160a01b0384161580610e8b57506001600160a01b038316155b15610ea95760405163114a079360e21b815260040160405180910390fd5b610eb4848484611bb4565b836001600160a01b0316836001600160a01b0316610ecf3390565b6001600160a01b03167f6a5cf4b6acc50e564e581932844482294e3f905ffef66f281dc8685d7eede6e6600086604051610f31929190606080825260059082015264045524332360dc1b60808201526020810192909252604082015260a00190565b60405180910390a450610ada61185d565b6000610f4c611809565b600080516020612b66833981519152610f6481611853565b6001600160a01b0387161580610f8157506001600160a01b038616155b80610f9357506001600160a01b038516155b15610fb15760405163114a079360e21b815260040160405180910390fd5b6040516353d718b760e11b815233906000906001600160a01b038a169063a7ae316e90610fea908b908b908b908b9088906004016128d8565b6020604051808303816000875af1158015611009573d6000803e3d6000fd5b505050506040513d601f19601f8201168201806040525081019061102d9190612919565b9050886001600160a01b0316816001600160a01b0316836001600160a01b03167f49a49fae4394926b3cce410dea6b7b566ed710e53806947d896556c4cc3f67ef8b8a8a8d6040516110829493929190612936565b60405180910390a49250505061109661185d565b95945050505050565b6000600080516020612b6683398151915260018460028111156110c4576110c461251a565b036110da5750600080516020612ae68339815191525b60028460028111156110ee576110ee61251a565b036111045750600080516020612b868339815191525b60008460028111156111185761111861251a565b0361112e5750600080516020612b668339815191525b6111388184610e16565b949350505050565b600061114a611883565b600101546001600160a01b0316919050565b7ff0c57e16840df040f15088dc2f81fe391c3923bec73e23a9662efc9c229c6a008054600160401b810460ff1615906001600160401b03166000811580156111a15750825b90506000826001600160401b031660011480156111bd5750303b155b9050811580156111cb575080155b156111e95760405163f92ee8a960e01b815260040160405180910390fd5b845467ffffffffffffffff19166001178555831561121357845460ff60401b1916600160401b1785555b6001600160a01b038816158061123057506001600160a01b038716155b8061124257506001600160a01b038616155b156112605760405163114a079360e21b815260040160405180910390fd5b61126b6000896118e5565b50611284600080516020612b06833981519152896118e5565b5061129d600080516020612b66833981519152896118e5565b506112b6600080516020612ae6833981519152896118e5565b506112cf600080516020612b86833981519152896118e5565b506112e8600080516020612b66833981519152876118e5565b5060006112f3611883565b80546001600160a01b03808c166001600160a01b0319928316178355600183018054918c169183169190911790556002909101805490911673ca11bde05977b3631167028862be2a173976ca1117905550831561138a57845460ff60401b19168555604051600181527fc7f505b2f371ae2175ee4913f4499e1f2633a7b5936321eed1cdaeb6115181d29060200160405180910390a15b5050505050505050565b61139d82610a63565b6113a681611853565b610aa1838361198a565b6113b8611809565b60006113c381611853565b6001600160a01b0382166113ea5760405163114a079360e21b815260040160405180910390fd5b60006113f4611883565b80549091506001600160a01b03163381146114215760405162a5c79760e41b815260040160405180910390fd5b81546001600160a01b0319166001600160a01b03851617825561144560008261198a565b5061145e600080516020612b068339815191528261198a565b50611477600080516020612b668339815191528261198a565b50611490600080516020612ae68339815191528261198a565b506114a9600080516020612b868339815191528261198a565b506114b56000856118e5565b506114ce600080516020612b06833981519152856118e5565b506114e7600080516020612b66833981519152856118e5565b50611500600080516020612ae6833981519152856118e5565b50611519600080516020612b86833981519152856118e5565b50836001600160a01b0316816001600160a01b03167fbf0c0c73cfc0eccde2277c57290f75aabadd38cb627566d4cc42c25d97a5fb3c60405160405180910390a3505050610dfa61185d565b606061156f611809565b600080516020612ae683398151915261158781611853565b6000611591611883565b600201546040516382ad56cb60e01b81526001600160a01b03909116906382ad56cb9034906115c69089908990600401612983565b60006040518083038185885af11580156115e4573d6000803e3d6000fd5b50505050506040513d6000823e601f3d908101601f1916820160405261160d919081019061279a565b9050848460405161161f929190612a1d565b604051809103902061162e3390565b6001600160a01b03167f3518a77611c1c3a02d53bed7b70d148773b2b7c0f4e5c199297e6976c1eeebd760405160405180910390a391505061080d61185d565b611676611809565b600061168181611853565b60018360028111156116955761169561251a565b036116b4576116b2600080516020612ae68339815191528361198a565b505b60028360028111156116c8576116c861251a565b036116e7576116e5600080516020612b868339815191528361198a565b505b60008360028111156116fb576116fb61251a565b0361171a57611718600080516020612b668339815191528361198a565b505b816001600160a01b03168360028111156117365761173661251a565b6040517f91aa2436a405788ec3c5269ffda990ad9a1e759151c1f78660d9070f42846bcb90600090a35061092961185d565b611770611809565b600061177b81611853565b6001600160a01b0382166117a25760405163114a079360e21b815260040160405180910390fd5b816117ab611883565b60010180546001600160a01b0319166001600160a01b039283161790558216336001600160a01b03167fa92ff4390fe6943f0b30e8fe715dde86f85ab79b2b2c640a10fc094cc4036cc860405160405180910390a350610dfa61185d565b7f9b779b17422d0df92223018b32b4d1fa46e071723d6817e2486d003becc55f0080546001190161184d57604051633ee5aeb560e01b815260040160405180910390fd5b60029055565b610dfa8133611c06565b60017f9b779b17422d0df92223018b32b4d1fa46e071723d6817e2486d003becc55f0055565b60008060ff196118b460017f153cef6fd0619de07444f92a016f0551ad800400d6ec757150b9a37e52a9d4ee612a8f565b6040516020016118c691815260200190565b60408051601f1981840301815291905280516020909101201692915050565b6000600080516020612b468339815191526119008484610e16565b611980576000848152602082815260408083206001600160a01b03871684529091529020805460ff191660011790556119363390565b6001600160a01b0316836001600160a01b0316857f2f8788117e7eff1d82e926ec794901d17c78024a50270940304540a733656f0d60405160405180910390a4600191505061080d565b600091505061080d565b6000600080516020612b468339815191526119a58484610e16565b15611980576000848152602082815260408083206001600160a01b0387168085529252808320805460ff1916905551339287917ff6391f5c32d9c69d2a47ea670b442974b53935d1edc7fd64eb21e047a839171b9190a4600191505061080d565b306001600160a01b037f0000000000000000000000000000000000000000000000000000000000000000161480611a7657507f00000000000000000000000000000000000000000000000000000000000000006001600160a01b0316611a6a611c3f565b6001600160a01b031614155b15611a945760405163703e46dd60e11b815260040160405180910390fd5b565b600080516020612b0683398151915261092981611853565b816001600160a01b03166352d1902d6040518163ffffffff1660e01b8152600401602060405180830381865afa925050508015611b08575060408051601f3d908101601f19168201909252611b0591810190612ab0565b60015b611b3057604051634c9c8ce360e01b81526001600160a01b0383166004820152602401610764565b600080516020612b268339815191528114611b6157604051632a87526960e21b815260048101829052602401610764565b610ada8383611c55565b306001600160a01b037f00000000000000000000000000000000000000000000000000000000000000001614611a945760405163703e46dd60e11b815260040160405180910390fd5b604080516001600160a01b038416602482015260448082018490528251808303909101815260649091019091526020810180516001600160e01b031663a9059cbb60e01b179052610ada908490611cab565b611c108282610e16565b6109295760405163e2517d3f60e01b81526001600160a01b038216600482015260248101839052604401610764565b6000600080516020612b26833981519152610e07565b611c5e82611d0e565b6040516001600160a01b038316907fbc7cd75a20ee27fd9adebab32041f755214dbc6bffa90cc0225b39da2e5c2d3b90600090a2805115611ca357610ada8282611d73565b610929611de0565b6000611cc06001600160a01b03841683611dff565b90508051600014158015611ce5575080806020019051810190611ce391906124fd565b155b15610ada57604051635274afe760e01b81526001600160a01b0384166004820152602401610764565b806001600160a01b03163b600003611d4457604051634c9c8ce360e01b81526001600160a01b0382166004820152602401610764565b600080516020612b2683398151915280546001600160a01b0319166001600160a01b0392909216919091179055565b6060600080846001600160a01b031684604051611d909190612ac9565b600060405180830381855af49150503d8060008114611dcb576040519150601f19603f3d011682016040523d82523d6000602084013e611dd0565b606091505b5091509150611096858383611e0d565b3415611a945760405163b398979f60e01b815260040160405180910390fd5b60606107d583836000611e69565b606082611e2257611e1d82611f06565b6107d5565b8151158015611e3957506001600160a01b0384163b155b15611e6257604051639996b31560e01b81526001600160a01b0385166004820152602401610764565b50806107d5565b606081471015611e8e5760405163cd78605960e01b8152306004820152602401610764565b600080856001600160a01b03168486604051611eaa9190612ac9565b60006040518083038185875af1925050503d8060008114611ee7576040519150601f19603f3d011682016040523d82523d6000602084013e611eec565b606091505b5091509150611efc868383611e0d565b9695505050505050565b805115611f165780518082602001fd5b604051630a12f52160e11b815260040160405180910390fd5b6001600160a01b0381168114610dfa57600080fd5b600080600060608486031215611f5957600080fd5b8335611f6481611f2f565b92506020840135611f7481611f2f565b929592945050506040919091013590565b600060208284031215611f9757600080fd5b81356001600160e01b0319811681146107d557600080fd5b60008060408385031215611fc257600080fd5b823560038110611fd157600080fd5b91506020830135611fe181611f2f565b809150509250929050565b60008083601f840112611ffe57600080fd5b5081356001600160401b0381111561201557600080fd5b60208301915083602082850101111561202d57600080fd5b9250929050565b60008060006040848603121561204957600080fd5b833561205481611f2f565b925060208401356001600160401b0381111561206f57600080fd5b61207b86828701611fec565b9497909650939450505050565b60005b838110156120a357818101518382015260200161208b565b50506000910152565b600081518084526120c4816020860160208601612088565b601f01601f19169290920160200192915050565b6020815260006107d560208301846120ac565b6000602082840312156120fd57600080fd5b5035919050565b6000806040838503121561211757600080fd5b823591506020830135611fe181611f2f565b634e487b7160e01b600052604160045260246000fd5b604051601f8201601f191681016001600160401b038111828210171561216757612167612129565b604052919050565b60006001600160401b0382111561218857612188612129565b50601f01601f191660200190565b600080604083850312156121a957600080fd5b82356121b481611f2f565b915060208301356001600160401b038111156121cf57600080fd5b8301601f810185136121e057600080fd5b80356121f36121ee8261216f565b61213f565b81815286602083850101111561220857600080fd5b816020840160208301376000602083830101528093505050509250929050565b60008083601f84011261223a57600080fd5b5081356001600160401b0381111561225157600080fd5b6020830191508360208260051b850101111561202d57600080fd5b6000806020838503121561227f57600080fd5b82356001600160401b0381111561229557600080fd5b6122a185828601612228565b90969095509350505050565b805115158252600060208201516040602085015261113860408501826120ac565b6000602080830181845280855180835260408601915060408160051b870101925083870160005b8281101561232357603f198886030184526123118583516122ad565b945092850192908501906001016122f5565b5092979650505050505050565b60008060006040848603121561234557600080fd5b833561235081611f2f565b925060208401356001600160401b038082111561236c57600080fd5b818601915086601f83011261238057600080fd5b81358181111561238f57600080fd5b8760208260061b85010111156123a457600080fd5b6020830194508093505050509250925092565b6000602080830181845280855180835260408601915060408160051b870101925083870160005b8281101561232357603f198886030184526123fa8583516122ad565b945092850192908501906001016123de565b60006020828403121561241e57600080fd5b81356107d581611f2f565b60008060008060006080868803121561244157600080fd5b853561244c81611f2f565b9450602086013561245c81611f2f565b9350604086013561246c81611f2f565b925060608601356001600160401b0381111561248757600080fd5b61249388828901611fec565b969995985093965092949392505050565b6000806000606084860312156124b957600080fd5b83356124c481611f2f565b925060208401356124d481611f2f565b915060408401356124e481611f2f565b809150509250925092565b8015158114610dfa57600080fd5b60006020828403121561250f57600080fd5b81516107d5816124ef565b634e487b7160e01b600052602160045260246000fd5b8183823760009101908152919050565b6000808335601e1984360301811261255757600080fd5b83016020810192503590506001600160401b0381111561257657600080fd5b80360382131561202d57600080fd5b81835281816020850137506000828201602090810191909152601f909101601f19169091010190565b60008235607e198336030181126125c457600080fd5b90910192915050565b60208082528181018390526000906040808401600586901b8501820187855b8881101561267257878303603f19018452612607828b6125ae565b6080813561261481611f2f565b6001600160a01b031685528188013561262c816124ef565b1515858901528187013587860152606061264881840184612540565b9350828288015261265c8388018583612585565b978a0197965050509287019250506001016125ec565b509098975050505050505050565b60006001600160401b038084111561269a5761269a612129565b8360051b60206126ab81830161213f565b868152935090840190808401878311156126c457600080fd5b855b8381101561278e578051858111156126de5760008081fd5b87016040818b038113156126f25760008081fd5b8051818101818110898211171561270b5761270b612129565b90915281519061271a826124ef565b9081528185015190878211156127305760008081fd5b81830192508b601f84011261274757600091508182fd5b825191506127576121ee8361216f565b8281528c8784860101111561276c5760008081fd5b61277b83888301898701612088565b81870152845250509082019082016126c6565b50505050509392505050565b6000602082840312156127ac57600080fd5b81516001600160401b038111156127c257600080fd5b8201601f810184136127d357600080fd5b61113884825160208401612680565b8181843750600082820152601f01601f19160190565b60008184825b858110156128745761281082886125ae565b803561281b81611f2f565b6001600160a01b03168452602081810135612835816124ef565b15158582015260408281013590860152606061285381840184612540565b935061286282880185836127e2565b965050509290920191506001016127fe565b509095945050505050565b6020808252818101839052600090604080840186845b878110156128cb5781356128a881611f2f565b6001600160a01b0316835281850135858401529183019190830190600101612895565b5090979650505050505050565b6001600160a01b038681168252851660208201526080604082018190526000906129059083018587612585565b905082151560608301529695505050505050565b60006020828403121561292b57600080fd5b81516107d581611f2f565b600060018060a01b03808716835260606020840152612959606084018688612585565b915080841660408401525095945050505050565b60008235605e198336030181126125c457600080fd5b60208082528181018390526000906040808401600586901b8501820187855b8881101561267257878303603f190184526129bd828b61296d565b606081356129ca81611f2f565b6001600160a01b03168552818801356129e2816124ef565b1515858901526129f482880183612540565b92508188870152612a088287018483612585565b968901969550505091860191506001016129a2565b60008184825b8581101561287457612a35828861296d565b8035612a4081611f2f565b6001600160a01b03168452602081810135612a5a816124ef565b1515858201526040612a6e83820184612540565b9350612a7d82880185836127e2565b96505050929092019150600101612a23565b8181038181111561080d57634e487b7160e01b600052601160045260246000fd5b600060208284031215612ac257600080fd5b5051919050565b60008251612adb818460208701612088565b919091019291505056fe843c3a00fa95510a35f425371231fd3fe4642e719cb4595160763d6d02594b50189ab7a9244df0848122154315af71fe140f3db0fe014031783b0946b8c9d2e3360894a13ba1a3210667c828492db98dca3e2076cc3735a920a3ca505d382bbc02dd7bc7dec4dceedda775e58dd541e08a116c6c53815c0bd028192f7b6268006d5c9827c1f410bbb61d3b2a0a34b6b30492d9a1fd38588edca7ec4562ab9c9b72fabfa2b1ac915ec70485dd733361de83483a38cea0223da675234b1613f808a264697066735822122046ea19cee4ca801f13988efaa059fe0c1c2767ef2e4ce8f6c2f3272f42fb034264736f6c63430008140033",
        "linkReferences": {}
    },
    "methodIdentifiers": {
        "BOT_ROLE()": "b1503774",
        "CALLER_ROLE()": "774237fc",
        "DEFAULT_ADMIN_ROLE()": "a217fddf",
        "ERC_TRANSFER_ROLE()": "0045c409",
        "UPGRADER_ROLE()": "f72c0d8b",
        "UPGRADE_INTERFACE_VERSION()": "ad3cb1cc",
        "addControllerRole(uint8,address)": "18548069",
        "call(address,bytes)": "1b8b921d",
        "callBatch((address,bool,bytes)[])": "e2684ae3",
        "callBatchValue((address,bool,uint256,bytes)[])": "54172670",
        "changeControllerOwner(address)": "dbde727b",
        "contractType()": "cb2ef6f7",
        "createVault(address,address,address,string)": "9828a443",
        "feeReceiver()": "b3f00674",
        "getRoleAdmin(bytes32)": "248a9ca3",
        "grantRole(bytes32,address)": "2f2ff15d",
        "hasControllerRole(uint8,address)": "a518be1a",
        "hasRole(bytes32,address)": "91d14854",
        "initialize(address,address,address)": "c0c53b8b",
        "multicallAddress()": "08178604",
        "owner()": "8da5cb5b",
        "proxiableUUID()": "52d1902d",
        "removeControllerRole(uint8,address)": "eabbb469",
        "renounceRole(bytes32,address)": "36568abe",
        "revokeRole(bytes32,address)": "d547741f",
        "setFeeReceiver(address)": "efdcd974",
        "setMulticallAddress(address)": "85ab402b",
        "supportsInterface(bytes4)": "01ffc9a7",
        "transferERC20Token(address,address,uint256)": "92940bf9",
        "upgradeToAndCall(address,bytes)": "4f1ef286",
        "vaultReward(address,address,uint256)": "00c6bd73",
        "vaultRewardBatch(address,(address,uint256)[])": "61d24f15",
        "version()": "54fd4d50"
    },
    "storageLayout": {
        "storage": [],
        "types": {}
    },
    "id": 118
}