{"abi":[{"type":"constructor","inputs":[],"stateMutability":"nonpayable"},{"type":"function","name":"BOT_ROLE","inputs":[],"outputs":[{"name":"","type":"bytes32","internalType":"bytes32"}],"stateMutability":"view"},{"type":"function","name":"CALLER_ROLE","inputs":[],"outputs":[{"name":"","type":"bytes32","internalType":"bytes32"}],"stateMutability":"view"},{"type":"function","name":"DEFAULT_ADMIN_ROLE","inputs":[],"outputs":[{"name":"","type":"bytes32","internalType":"bytes32"}],"stateMutability":"view"},{"type":"function","name":"ERC_TRANSFER_ROLE","inputs":[],"outputs":[{"name":"","type":"bytes32","internalType":"bytes32"}],"stateMutability":"view"},{"type":"function","name":"UPGRADER_ROLE","inputs":[],"outputs":[{"name":"","type":"bytes32","internalType":"bytes32"}],"stateMutability":"view"},{"type":"function","name":"UPGRADE_INTERFACE_VERSION","inputs":[],"outputs":[{"name":"","type":"string","internalType":"string"}],"stateMutability":"view"},{"type":"function","name":"addControllerRole","inputs":[{"name":"role","type":"uint8","internalType":"enum ControllerRole"},{"name":"account","type":"address","internalType":"address"}],"outputs":[],"stateMutability":"nonpayable"},{"type":"function","name":"call","inputs":[{"name":"targetContract","type":"address","internalType":"address"},{"name":"callData","type":"bytes","internalType":"bytes"}],"outputs":[{"name":"","type":"bytes","internalType":"bytes"}],"stateMutability":"payable"},{"type":"function","name":"callBatch","inputs":[{"name":"calls","type":"tuple[]","internalType":"struct IMulticall3.Call3[]","components":[{"name":"target","type":"address","internalType":"address"},{"name":"allowFailure","type":"bool","internalType":"bool"},{"name":"callData","type":"bytes","internalType":"bytes"}]}],"outputs":[{"name":"","type":"tuple[]","internalType":"struct IMulticall3.Result[]","components":[{"name":"success","type":"bool","internalType":"bool"},{"name":"returnData","type":"bytes","internalType":"bytes"}]}],"stateMutability":"payable"},{"type":"function","name":"callBatchValue","inputs":[{"name":"calls","type":"tuple[]","internalType":"struct IMulticall3.Call3Value[]","components":[{"name":"target","type":"address","internalType":"address"},{"name":"allowFailure","type":"bool","internalType":"bool"},{"name":"value","type":"uint256","internalType":"uint256"},{"name":"callData","type":"bytes","internalType":"bytes"}]}],"outputs":[{"name":"","type":"tuple[]","internalType":"struct IMulticall3.Result[]","components":[{"name":"success","type":"bool","internalType":"bool"},{"name":"returnData","type":"bytes","internalType":"bytes"}]}],"stateMutability":"payable"},{"type":"function","name":"changeControllerOwner","inputs":[{"name":"newOwner","type":"address","internalType":"address"}],"outputs":[],"stateMutability":"nonpayable"},{"type":"function","name":"contractType","inputs":[],"outputs":[{"name":"","type":"string","internalType":"string"}],"stateMutability":"view"},{"type":"function","name":"createVault","inputs":[{"name":"targetVaultFactory","type":"address","internalType":"address"},{"name":"projectOwner","type":"address","internalType":"address"},{"name":"rewardToken","type":"address","internalType":"address"},{"name":"projectName","type":"string","internalType":"string"}],"outputs":[{"name":"","type":"address","internalType":"address"}],"stateMutability":"nonpayable"},{"type":"function","name":"feeReceiver","inputs":[],"outputs":[{"name":"","type":"address","internalType":"address"}],"stateMutability":"view"},{"type":"function","name":"getRoleAdmin","inputs":[{"name":"role","type":"bytes32","internalType":"bytes32"}],"outputs":[{"name":"","type":"bytes32","internalType":"bytes32"}],"stateMutability":"view"},{"type":"function","name":"grantRole","inputs":[{"name":"role","type":"bytes32","internalType":"bytes32"},{"name":"account","type":"address","internalType":"address"}],"outputs":[],"stateMutability":"nonpayable"},{"type":"function","name":"hasControllerRole","inputs":[{"name":"role","type":"uint8","internalType":"enum ControllerRole"},{"name":"account","type":"address","internalType":"address"}],"outputs":[{"name":"","type":"bool","internalType":"bool"}],"stateMutability":"view"},{"type":"function","name":"hasRole","inputs":[{"name":"role","type":"bytes32","internalType":"bytes32"},{"name":"account","type":"address","internalType":"address"}],"outputs":[{"name":"","type":"bool","internalType":"bool"}],"stateMutability":"view"},{"type":"function","name":"initialize","inputs":[{"name":"initialAdmin","type":"address","internalType":"address"},{"name":"_feeReceiver","type":"address","internalType":"address"},{"name":"initialBot","type":"address","internalType":"address"}],"outputs":[],"stateMutability":"nonpayable"},{"type":"function","name":"multicallAddress","inputs":[],"outputs":[{"name":"","type":"address","internalType":"address"}],"stateMutability":"view"},{"type":"function","name":"owner","inputs":[],"outputs":[{"name":"","type":"address","internalType":"address"}],"stateMutability":"view"},{"type":"function","name":"proxiableUUID","inputs":[],"outputs":[{"name":"","type":"bytes32","internalType":"bytes32"}],"stateMutability":"view"},{"type":"function","name":"removeControllerRole","inputs":[{"name":"role","type":"uint8","internalType":"enum ControllerRole"},{"name":"account","type":"address","internalType":"address"}],"outputs":[],"stateMutability":"nonpayable"},{"type":"function","name":"renounceRole","inputs":[{"name":"role","type":"bytes32","internalType":"bytes32"},{"name":"callerConfirmation","type":"address","internalType":"address"}],"outputs":[],"stateMutability":"nonpayable"},{"type":"function","name":"revokeRole","inputs":[{"name":"role","type":"bytes32","internalType":"bytes32"},{"name":"account","type":"address","internalType":"address"}],"outputs":[],"stateMutability":"nonpayable"},{"type":"function","name":"setFeeReceiver","inputs":[{"name":"newFeeReceiver","type":"address","internalType":"address"}],"outputs":[],"stateMutability":"nonpayable"},{"type":"function","name":"setMulticallAddress","inputs":[{"name":"newMulticallContract","type":"address","internalType":"address"}],"outputs":[],"stateMutability":"nonpayable"},{"type":"function","name":"supportsInterface","inputs":[{"name":"interfaceId","type":"bytes4","internalType":"bytes4"}],"outputs":[{"name":"","type":"bool","internalType":"bool"}],"stateMutability":"view"},{"type":"function","name":"transferERC20Token","inputs":[{"name":"tokenAddress","type":"address","internalType":"address"},{"name":"receiver","type":"address","internalType":"address"},{"name":"amount","type":"uint256","internalType":"uint256"}],"outputs":[],"stateMutability":"nonpayable"},{"type":"function","name":"upgradeToAndCall","inputs":[{"name":"newImplementation","type":"address","internalType":"address"},{"name":"data","type":"bytes","internalType":"bytes"}],"outputs":[],"stateMutability":"payable"},{"type":"function","name":"vaultReward","inputs":[{"name":"targetVault","type":"address","internalType":"address"},{"name":"to","type":"address","internalType":"address"},{"name":"amount","type":"uint256","internalType":"uint256"}],"outputs":[{"name":"","type":"bool","internalType":"bool"}],"stateMutability":"nonpayable"},{"type":"function","name":"vaultRewardBatch","inputs":[{"name":"targetVault","type":"address","internalType":"address"},{"name":"receivers","type":"tuple[]","internalType":"struct Receiver[]","components":[{"name":"receiver","type":"address","internalType":"address"},{"name":"amount","type":"uint256","internalType":"uint256"}]}],"outputs":[{"name":"returnData","type":"tuple[]","internalType":"struct Result[]","components":[{"name":"success","type":"bool","internalType":"bool"},{"name":"returnData","type":"bytes","internalType":"bytes"}]}],"stateMutability":"nonpayable"},{"type":"function","name":"version","inputs":[],"outputs":[{"name":"","type":"string","internalType":"string"}],"stateMutability":"view"},{"type":"event","name":"AddedControllerRole","inputs":[{"name":"role","type":"uint8","indexed":true,"internalType":"enum ControllerRole"},{"name":"account","type":"address","indexed":true,"internalType":"address"}],"anonymous":false},{"type":"event","name":"CallBatchExecuted","inputs":[{"name":"caller","type":"address","indexed":true,"internalType":"address"},{"name":"calls","type":"tuple[]","indexed":true,"internalType":"struct IMulticall3.Call3[]","components":[{"name":"target","type":"address","internalType":"address"},{"name":"allowFailure","type":"bool","internalType":"bool"},{"name":"callData","type":"bytes","internalType":"bytes"}]}],"anonymous":false},{"type":"event","name":"CallBatchValueExecuted","inputs":[{"name":"caller","type":"address","indexed":true,"internalType":"address"},{"name":"calls","type":"tuple[]","indexed":true,"internalType":"struct IMulticall3.Call3Value[]","components":[{"name":"target","type":"address","internalType":"address"},{"name":"allowFailure","type":"bool","internalType":"bool"},{"name":"value","type":"uint256","internalType":"uint256"},{"name":"callData","type":"bytes","internalType":"bytes"}]}],"anonymous":false},{"type":"event","name":"CallExecuted","inputs":[{"name":"caller","type":"address","indexed":true,"internalType":"address"},{"name":"target","type":"address","indexed":true,"internalType":"address"},{"name":"callData","type":"bytes","indexed":true,"internalType":"bytes"}],"anonymous":false},{"type":"event","name":"ControllerOwnerUpdated","inputs":[{"name":"previousOwner","type":"address","indexed":true,"internalType":"address"},{"name":"newOwner","type":"address","indexed":true,"internalType":"address"}],"anonymous":false},{"type":"event","name":"ERCTransferExecuted","inputs":[{"name":"ercType","type":"string","indexed":false,"internalType":"string"},{"name":"caller","type":"address","indexed":true,"internalType":"address"},{"name":"receiver","type":"address","indexed":true,"internalType":"address"},{"name":"tokenAddress","type":"address","indexed":true,"internalType":"address"},{"name":"tokenId","type":"uint256","indexed":false,"internalType":"uint256"},{"name":"amount","type":"uint256","indexed":false,"internalType":"uint256"}],"anonymous":false},{"type":"event","name":"FeeReceiverUpdated","inputs":[{"name":"caller","type":"address","indexed":true,"internalType":"address"},{"name":"newFeeReceiver","type":"address","indexed":true,"internalType":"address"}],"anonymous":false},{"type":"event","name":"Initialized","inputs":[{"name":"version","type":"uint64","indexed":false,"internalType":"uint64"}],"anonymous":false},{"type":"event","name":"MulticallContractUpdated","inputs":[{"name":"caller","type":"address","indexed":true,"internalType":"address"},{"name":"newMulticallContract","type":"address","indexed":true,"internalType":"address"}],"anonymous":false},{"type":"event","name":"RemovedControllerRole","inputs":[{"name":"role","type":"uint8","indexed":true,"internalType":"enum ControllerRole"},{"name":"account","type":"address","indexed":true,"internalType":"address"}],"anonymous":false},{"type":"event","name":"Rewarded","inputs":[{"name":"caller","type":"address","indexed":true,"internalType":"address"},{"name":"targetVault","type":"address","indexed":true,"internalType":"address"},{"name":"receiver","type":"address","indexed":true,"internalType":"address"},{"name":"amount","type":"uint256","indexed":false,"internalType":"uint256"}],"anonymous":false},{"type":"event","name":"RewardedBatch","inputs":[{"name":"caller","type":"address","indexed":true,"internalType":"address"},{"name":"targetVault","type":"address","indexed":true,"internalType":"address"},{"name":"receiverAmount","type":"uint256","indexed":true,"internalType":"uint256"},{"name":"receivers","type":"tuple[]","indexed":false,"internalType":"struct Receiver[]","components":[{"name":"receiver","type":"address","internalType":"address"},{"name":"amount","type":"uint256","internalType":"uint256"}]}],"anonymous":false},{"type":"event","name":"RoleAdminChanged","inputs":[{"name":"role","type":"bytes32","indexed":true,"internalType":"bytes32"},{"name":"previousAdminRole","type":"bytes32","indexed":true,"internalType":"bytes32"},{"name":"newAdminRole","type":"bytes32","indexed":true,"internalType":"bytes32"}],"anonymous":false},{"type":"event","name":"RoleGranted","inputs":[{"name":"role","type":"bytes32","indexed":true,"internalType":"bytes32"},{"name":"account","type":"address","indexed":true,"internalType":"address"},{"name":"sender","type":"address","indexed":true,"internalType":"address"}],"anonymous":false},{"type":"event","name":"RoleRevoked","inputs":[{"name":"role","type":"bytes32","indexed":true,"internalType":"bytes32"},{"name":"account","type":"address","indexed":true,"internalType":"address"},{"name":"sender","type":"address","indexed":true,"internalType":"address"}],"anonymous":false},{"type":"event","name":"Upgraded","inputs":[{"name":"implementation","type":"address","indexed":true,"internalType":"address"}],"anonymous":false},{"type":"event","name":"VaultCreated","inputs":[{"name":"caller","type":"address","indexed":true,"internalType":"address"},{"name":"vault","type":"address","indexed":true,"internalType":"address"},{"name":"factory","type":"address","indexed":true,"internalType":"address"},{"name":"projectOwner","type":"address","indexed":false,"internalType":"address"},{"name":"projectName","type":"string","indexed":false,"internalType":"string"},{"name":"rewardToken","type":"address","indexed":false,"internalType":"address"}],"anonymous":false},{"type":"error","name":"AccessControlBadConfirmation","inputs":[]},{"type":"error","name":"AccessControlUnauthorizedAccount","inputs":[{"name":"account","type":"address","internalType":"address"},{"name":"neededRole","type":"bytes32","internalType":"bytes32"}]},{"type":"error","name":"AddressEmptyCode","inputs":[{"name":"target","type":"address","internalType":"address"}]},{"type":"error","name":"AddressInsufficientBalance","inputs":[{"name":"account","type":"address","internalType":"address"}]},{"type":"error","name":"CallFailed","inputs":[]},{"type":"error","name":"CanNotBeZeroAddress","inputs":[]},{"type":"error","name":"ERC1967InvalidImplementation","inputs":[{"name":"implementation","type":"address","internalType":"address"}]},{"type":"error","name":"ERC1967NonPayable","inputs":[]},{"type":"error","name":"FailedInnerCall","inputs":[]},{"type":"error","name":"InvalidInitialization","inputs":[]},{"type":"error","name":"NoReceiversFound","inputs":[]},{"type":"error","name":"NotControllerOwner","inputs":[]},{"type":"error","name":"NotInitializing","inputs":[]},{"type":"error","name":"ReentrancyGuardReentrantCall","inputs":[]},{"type":"error","name":"SafeERC20FailedOperation","inputs":[{"name":"token","type":"address","internalType":"address"}]},{"type":"error","name":"UUPSUnauthorizedCallContext","inputs":[]},{"type":"error","name":"UUPSUnsupportedProxiableUUID","inputs":[{"name":"slot","type":"bytes32","internalType":"bytes32"}]}],"bytecode":{"object":"0x60a0604052306080523480156200001557600080fd5b506200002062000026565b620000da565b7ff0c57e16840df040f15088dc2f81fe391c3923bec73e23a9662efc9c229c6a00805468010000000000000000900460ff1615620000775760405163f92ee8a960e01b815260040160405180910390fd5b80546001600160401b0390811614620000d75780546001600160401b0319166001600160401b0390811782556040519081527fc7f505b2f371ae2175ee4913f4499e1f2633a7b5936321eed1cdaeb6115181d29060200160405180910390a15b50565b608051612bd66200010460003960008181611a0c01528181611a350152611b710152612bd66000f3fe6080604052600436106101ec5760003560e01c80638da5cb5b1161010d578063b3f00674116100a0578063dbde727b1161006f578063dbde727b146105b5578063e2684ae3146105d5578063eabbb469146105e8578063efdcd97414610608578063f72c0d8b1461062857600080fd5b8063b3f006741461052a578063c0c53b8b1461053f578063cb2ef6f71461055f578063d547741f1461059557600080fd5b8063a217fddf116100dc578063a217fddf146104a2578063a518be1a146104b7578063ad3cb1cc146104d7578063b15037741461050857600080fd5b80638da5cb5b1461042d57806391d148541461044257806392940bf9146104625780639828a4431461048257600080fd5b806336568abe1161018557806354fd4d501161015457806354fd4d501461038d57806361d24f15146103be578063774237fc146103eb57806385ab402b1461040d57600080fd5b806336568abe146103255780634f1ef2861461034557806352d1902d14610358578063541726701461036d57600080fd5b806318548069116101c157806318548069146102a35780631b8b921d146102c5578063248a9ca3146102e55780632f2ff15d1461030557600080fd5b806245c409146101f1578062c6bd731461022657806301ffc9a7146102565780630817860414610276575b600080fd5b3480156101fd57600080fd5b50610213600080516020612b8183398151915281565b6040519081526020015b60405180910390f35b34801561023257600080fd5b50610246610241366004611f3f565b61064a565b604051901515815260200161021d565b34801561026257600080fd5b50610246610271366004611f80565b6107d7565b34801561028257600080fd5b5061028b61080e565b6040516001600160a01b03909116815260200161021d565b3480156102af57600080fd5b506102c36102be366004611faa565b61082a565b005b6102d86102d336600461202f565b610928565b60405161021d91906120d3565b3480156102f157600080fd5b506102136103003660046120e6565b610a5e565b34801561031157600080fd5b506102c36103203660046120ff565b610a80565b34801561033157600080fd5b506102c36103403660046120ff565b610aa2565b6102c3610353366004612191565b610ada565b34801561036457600080fd5b50610213610af5565b61038061037b366004612267565b610b12565b60405161021d91906122c9565b34801561039957600080fd5b506102d860405180604001604052806005815260200164302e302e3160d81b81525081565b3480156103ca57600080fd5b506103de6103d936600461232b565b610c1b565b60405161021d91906123b2565b3480156103f757600080fd5b50610213600080516020612ae183398151915281565b34801561041957600080fd5b506102c3610428366004612407565b610d54565b34801561043957600080fd5b5061028b610df8565b34801561044e57600080fd5b5061024661045d3660046120ff565b610e11565b34801561046e57600080fd5b506102c361047d366004611f3f565b610e49565b34801561048e57600080fd5b5061028b61049d366004612424565b610f3d565b3480156104ae57600080fd5b50610213600081565b3480156104c357600080fd5b506102466104d2366004611faa565b61109a565b3480156104e357600080fd5b506102d8604051806040016040528060058152602001640352e302e360dc1b81525081565b34801561051457600080fd5b50610213600080516020612b6183398151915281565b34801561053657600080fd5b5061028b61113b565b34801561054b57600080fd5b506102c361055a36600461249f565b611157565b34801561056b57600080fd5b506102d86040518060400160405280600a81526020016921a7a72a2927a62622a960b11b81525081565b3480156105a157600080fd5b506102c36105b03660046120ff565b61138f565b3480156105c157600080fd5b506102c36105d0366004612407565b6113ab565b6103806105e3366004612267565b611560565b3480156105f457600080fd5b506102c3610603366004611faa565b611669565b34801561061457600080fd5b506102c3610623366004612407565b611763565b34801561063457600080fd5b50610213600080516020612b0183398151915281565b6000610654611804565b600080516020612b6183398151915261066c8161184e565b6001600160a01b038516158061068957506001600160a01b038416155b156106a75760405163114a079360e21b815260040160405180910390fd5b6040516310b3879160e11b81526001600160a01b03858116600483015260248201859052600091908716906321670f22906044016020604051808303816000875af11580156106fa573d6000803e3d6000fd5b505050506040513d601f19601f8201168201806040525081019061071e91906124f8565b9050806107685760405162461bcd60e51b815260206004820152601360248201527215985d5b1d0814995dd85c990811985a5b1959606a1b60448201526064015b60405180910390fd5b846001600160a01b0316866001600160a01b03166107833390565b6001600160a01b03167fa209447764afbca4d7c43c9962941f114f3465f7fde32167c76661eb75b3ef77876040516107bd91815260200190565b60405180910390a49150506107d0611858565b9392505050565b60006001600160e01b03198216637965db0b60e01b148061080857506301ffc9a760e01b6001600160e01b03198316145b92915050565b600061081861187e565b600201546001600160a01b0316919050565b610832611804565b600061083d8161184e565b600183600281111561085157610851612515565b036108705761086e600080516020612ae1833981519152836118e0565b505b600283600281111561088457610884612515565b036108a3576108a1600080516020612b81833981519152836118e0565b505b60008360028111156108b7576108b7612515565b036108d6576108d4600080516020612b61833981519152836118e0565b505b816001600160a01b03168360028111156108f2576108f2612515565b6040517f4b161b2586562122c2baa9d5327770f41b259167642836d78ab7c5bdc37159b190600090a350610924611858565b5050565b6060610932611804565b600080516020612ae183398151915261094a8161184e565b6001600160a01b0385166109715760405163114a079360e21b815260040160405180910390fd5b600080866001600160a01b031634878760405161098f92919061252b565b60006040518083038185875af1925050503d80600081146109cc576040519150601f19603f3d011682016040523d82523d6000602084013e6109d1565b606091505b5091509150816109f457604051633204506f60e01b815260040160405180910390fd5b8585604051610a0492919061252b565b6040518091039020876001600160a01b0316610a1d3390565b6001600160a01b03167f8750bdaf6e88201790ee2765fea3ac73b514a52658c818723a30de91029ad00060405160405180910390a4925050506107d0611858565b6000908152600080516020612b41833981519152602052604090206001015490565b610a8982610a5e565b610a928161184e565b610a9c83836118e0565b50505050565b6001600160a01b0381163314610acb5760405163334bd91960e11b815260040160405180910390fd5b610ad58282611985565b505050565b610ae2611a01565b610aeb82611a91565b6109248282611aa9565b6000610aff611b66565b50600080516020612b2183398151915290565b6060610b1c611804565b600080516020612ae1833981519152610b348161184e565b6000610b3e61187e565b6002015460405163174dea7160e01b81526001600160a01b039091169063174dea71903490610b7390899089906004016125c8565b60006040518083038185885af1158015610b91573d6000803e3d6000fd5b50505050506040513d6000823e601f3d908101601f19168201604052610bba9190810190612795565b90508484604051610bcc9291906127f3565b6040518091039020610bdb3390565b6001600160a01b03167fcbcb3a8b7dd9e7cf253f8b1138b90a7242c3a769fb24e00544d8306f3f1560d460405160405180910390a3915050610808611858565b6060610c25611804565b600080516020612b61833981519152610c3d8161184e565b6001600160a01b038516610c645760405163114a079360e21b815260040160405180910390fd5b6001831015610c8657604051634030268d60e01b815260040160405180910390fd5b6040516332020eb160e01b81526001600160a01b038616906332020eb190610cb4908790879060040161287a565b6000604051808303816000875af1158015610cd3573d6000803e3d6000fd5b505050506040513d6000823e601f3d908101601f19168201604052610cfb9190810190612795565b9150826001600160a01b038616336001600160a01b03167f214f875e8c01fad6f3fc1514d8444a1bbc3920b93a723c614620c28a608c96e78787604051610d4392919061287a565b60405180910390a4506107d0611858565b610d5c611804565b6000610d678161184e565b6001600160a01b038216610d8e5760405163114a079360e21b815260040160405180910390fd5b81610d9761187e565b60020180546001600160a01b0319166001600160a01b039283161790558216336001600160a01b03167f749fd2b8a141c6e6bbadd89bc4c73dd5602d57c519077d76885c2925b618754d60405160405180910390a350610df5611858565b50565b6000610e0261187e565b546001600160a01b0316919050565b6000918252600080516020612b41833981519152602090815260408084206001600160a01b0393909316845291905290205460ff1690565b610e51611804565b600080516020612b81833981519152610e698161184e565b6001600160a01b0384161580610e8657506001600160a01b038316155b15610ea45760405163114a079360e21b815260040160405180910390fd5b610eaf848484611baf565b836001600160a01b0316836001600160a01b0316610eca3390565b6001600160a01b03167f6a5cf4b6acc50e564e581932844482294e3f905ffef66f281dc8685d7eede6e6600086604051610f2c929190606080825260059082015264045524332360dc1b60808201526020810192909252604082015260a00190565b60405180910390a450610ad5611858565b6000610f47611804565b600080516020612b61833981519152610f5f8161184e565b6001600160a01b0387161580610f7c57506001600160a01b038616155b80610f8e57506001600160a01b038516155b15610fac5760405163114a079360e21b815260040160405180910390fd5b6040516353d718b760e11b815233906000906001600160a01b038a169063a7ae316e90610fe5908b908b908b908b9088906004016128d3565b6020604051808303816000875af1158015611004573d6000803e3d6000fd5b505050506040513d601f19601f820116820180604052508101906110289190612914565b9050886001600160a01b0316816001600160a01b0316836001600160a01b03167f49a49fae4394926b3cce410dea6b7b566ed710e53806947d896556c4cc3f67ef8b8a8a8d60405161107d9493929190612931565b60405180910390a492505050611091611858565b95945050505050565b6000600080516020612b6183398151915260018460028111156110bf576110bf612515565b036110d55750600080516020612ae18339815191525b60028460028111156110e9576110e9612515565b036110ff5750600080516020612b818339815191525b600084600281111561111357611113612515565b036111295750600080516020612b618339815191525b6111338184610e11565b949350505050565b600061114561187e565b600101546001600160a01b0316919050565b7ff0c57e16840df040f15088dc2f81fe391c3923bec73e23a9662efc9c229c6a008054600160401b810460ff1615906001600160401b031660008115801561119c5750825b90506000826001600160401b031660011480156111b85750303b155b9050811580156111c6575080155b156111e45760405163f92ee8a960e01b815260040160405180910390fd5b845467ffffffffffffffff19166001178555831561120e57845460ff60401b1916600160401b1785555b6001600160a01b038816158061122b57506001600160a01b038716155b8061123d57506001600160a01b038616155b1561125b5760405163114a079360e21b815260040160405180910390fd5b6112666000896118e0565b5061127f600080516020612b01833981519152896118e0565b50611298600080516020612b61833981519152896118e0565b506112b1600080516020612ae1833981519152896118e0565b506112ca600080516020612b81833981519152896118e0565b506112e3600080516020612b61833981519152876118e0565b5060006112ee61187e565b80546001600160a01b03808c166001600160a01b0319928316178355600183018054918c169183169190911790556002909101805490911673ca11bde05977b3631167028862be2a173976ca1117905550831561138557845460ff60401b19168555604051600181527fc7f505b2f371ae2175ee4913f4499e1f2633a7b5936321eed1cdaeb6115181d29060200160405180910390a15b5050505050505050565b61139882610a5e565b6113a18161184e565b610a9c8383611985565b6113b3611804565b60006113be8161184e565b6001600160a01b0382166113e55760405163114a079360e21b815260040160405180910390fd5b60006113ef61187e565b80549091506001600160a01b031633811461141c5760405162a5c79760e41b815260040160405180910390fd5b81546001600160a01b0319166001600160a01b038516178255611440600082611985565b50611459600080516020612b0183398151915282611985565b50611472600080516020612b6183398151915282611985565b5061148b600080516020612ae183398151915282611985565b506114a4600080516020612b8183398151915282611985565b506114b06000856118e0565b506114c9600080516020612b01833981519152856118e0565b506114e2600080516020612b61833981519152856118e0565b506114fb600080516020612ae1833981519152856118e0565b50611514600080516020612b81833981519152856118e0565b50836001600160a01b0316816001600160a01b03167fbf0c0c73cfc0eccde2277c57290f75aabadd38cb627566d4cc42c25d97a5fb3c60405160405180910390a3505050610df5611858565b606061156a611804565b600080516020612ae18339815191526115828161184e565b600061158c61187e565b600201546040516382ad56cb60e01b81526001600160a01b03909116906382ad56cb9034906115c1908990899060040161297e565b60006040518083038185885af11580156115df573d6000803e3d6000fd5b50505050506040513d6000823e601f3d908101601f191682016040526116089190810190612795565b9050848460405161161a929190612a18565b60405180910390206116293390565b6001600160a01b03167f3518a77611c1c3a02d53bed7b70d148773b2b7c0f4e5c199297e6976c1eeebd760405160405180910390a3915050610808611858565b611671611804565b600061167c8161184e565b600183600281111561169057611690612515565b036116af576116ad600080516020612ae183398151915283611985565b505b60028360028111156116c3576116c3612515565b036116e2576116e0600080516020612b8183398151915283611985565b505b60008360028111156116f6576116f6612515565b0361171557611713600080516020612b6183398151915283611985565b505b816001600160a01b031683600281111561173157611731612515565b6040517f91aa2436a405788ec3c5269ffda990ad9a1e759151c1f78660d9070f42846bcb90600090a350610924611858565b61176b611804565b60006117768161184e565b6001600160a01b03821661179d5760405163114a079360e21b815260040160405180910390fd5b816117a661187e565b60010180546001600160a01b0319166001600160a01b039283161790558216336001600160a01b03167fa92ff4390fe6943f0b30e8fe715dde86f85ab79b2b2c640a10fc094cc4036cc860405160405180910390a350610df5611858565b7f9b779b17422d0df92223018b32b4d1fa46e071723d6817e2486d003becc55f0080546001190161184857604051633ee5aeb560e01b815260040160405180910390fd5b60029055565b610df58133611c01565b60017f9b779b17422d0df92223018b32b4d1fa46e071723d6817e2486d003becc55f0055565b60008060ff196118af60017f153cef6fd0619de07444f92a016f0551ad800400d6ec757150b9a37e52a9d4ee612a8a565b6040516020016118c191815260200190565b60408051601f1981840301815291905280516020909101201692915050565b6000600080516020612b418339815191526118fb8484610e11565b61197b576000848152602082815260408083206001600160a01b03871684529091529020805460ff191660011790556119313390565b6001600160a01b0316836001600160a01b0316857f2f8788117e7eff1d82e926ec794901d17c78024a50270940304540a733656f0d60405160405180910390a46001915050610808565b6000915050610808565b6000600080516020612b418339815191526119a08484610e11565b1561197b576000848152602082815260408083206001600160a01b0387168085529252808320805460ff1916905551339287917ff6391f5c32d9c69d2a47ea670b442974b53935d1edc7fd64eb21e047a839171b9190a46001915050610808565b306001600160a01b037f0000000000000000000000000000000000000000000000000000000000000000161480611a7157507f00000000000000000000000000000000000000000000000000000000000000006001600160a01b0316611a65611c3a565b6001600160a01b031614155b15611a8f5760405163703e46dd60e11b815260040160405180910390fd5b565b600080516020612b018339815191526109248161184e565b816001600160a01b03166352d1902d6040518163ffffffff1660e01b8152600401602060405180830381865afa925050508015611b03575060408051601f3d908101601f19168201909252611b0091810190612aab565b60015b611b2b57604051634c9c8ce360e01b81526001600160a01b038316600482015260240161075f565b600080516020612b218339815191528114611b5c57604051632a87526960e21b81526004810182905260240161075f565b610ad58383611c50565b306001600160a01b037f00000000000000000000000000000000000000000000000000000000000000001614611a8f5760405163703e46dd60e11b815260040160405180910390fd5b604080516001600160a01b038416602482015260448082018490528251808303909101815260649091019091526020810180516001600160e01b031663a9059cbb60e01b179052610ad5908490611ca6565b611c0b8282610e11565b6109245760405163e2517d3f60e01b81526001600160a01b03821660048201526024810183905260440161075f565b6000600080516020612b21833981519152610e02565b611c5982611d09565b6040516001600160a01b038316907fbc7cd75a20ee27fd9adebab32041f755214dbc6bffa90cc0225b39da2e5c2d3b90600090a2805115611c9e57610ad58282611d6e565b610924611ddb565b6000611cbb6001600160a01b03841683611dfa565b90508051600014158015611ce0575080806020019051810190611cde91906124f8565b155b15610ad557604051635274afe760e01b81526001600160a01b038416600482015260240161075f565b806001600160a01b03163b600003611d3f57604051634c9c8ce360e01b81526001600160a01b038216600482015260240161075f565b600080516020612b2183398151915280546001600160a01b0319166001600160a01b0392909216919091179055565b6060600080846001600160a01b031684604051611d8b9190612ac4565b600060405180830381855af49150503d8060008114611dc6576040519150601f19603f3d011682016040523d82523d6000602084013e611dcb565b606091505b5091509150611091858383611e08565b3415611a8f5760405163b398979f60e01b815260040160405180910390fd5b60606107d083836000611e64565b606082611e1d57611e1882611f01565b6107d0565b8151158015611e3457506001600160a01b0384163b155b15611e5d57604051639996b31560e01b81526001600160a01b038516600482015260240161075f565b50806107d0565b606081471015611e895760405163cd78605960e01b815230600482015260240161075f565b600080856001600160a01b03168486604051611ea59190612ac4565b60006040518083038185875af1925050503d8060008114611ee2576040519150601f19603f3d011682016040523d82523d6000602084013e611ee7565b606091505b5091509150611ef7868383611e08565b9695505050505050565b805115611f115780518082602001fd5b604051630a12f52160e11b815260040160405180910390fd5b6001600160a01b0381168114610df557600080fd5b600080600060608486031215611f5457600080fd5b8335611f5f81611f2a565b92506020840135611f6f81611f2a565b929592945050506040919091013590565b600060208284031215611f9257600080fd5b81356001600160e01b0319811681146107d057600080fd5b60008060408385031215611fbd57600080fd5b823560038110611fcc57600080fd5b91506020830135611fdc81611f2a565b809150509250929050565b60008083601f840112611ff957600080fd5b5081356001600160401b0381111561201057600080fd5b60208301915083602082850101111561202857600080fd5b9250929050565b60008060006040848603121561204457600080fd5b833561204f81611f2a565b925060208401356001600160401b0381111561206a57600080fd5b61207686828701611fe7565b9497909650939450505050565b60005b8381101561209e578181015183820152602001612086565b50506000910152565b600081518084526120bf816020860160208601612083565b601f01601f19169290920160200192915050565b6020815260006107d060208301846120a7565b6000602082840312156120f857600080fd5b5035919050565b6000806040838503121561211257600080fd5b823591506020830135611fdc81611f2a565b634e487b7160e01b600052604160045260246000fd5b604051601f8201601f191681016001600160401b038111828210171561216257612162612124565b604052919050565b60006001600160401b0382111561218357612183612124565b50601f01601f191660200190565b600080604083850312156121a457600080fd5b82356121af81611f2a565b915060208301356001600160401b038111156121ca57600080fd5b8301601f810185136121db57600080fd5b80356121ee6121e98261216a565b61213a565b81815286602083850101111561220357600080fd5b816020840160208301376000602083830101528093505050509250929050565b60008083601f84011261223557600080fd5b5081356001600160401b0381111561224c57600080fd5b6020830191508360208260051b850101111561202857600080fd5b6000806020838503121561227a57600080fd5b82356001600160401b0381111561229057600080fd5b61229c85828601612223565b90969095509350505050565b805115158252600060208201516040602085015261113360408501826120a7565b6000602080830181845280855180835260408601915060408160051b870101925083870160005b8281101561231e57603f1988860301845261230c8583516122a8565b945092850192908501906001016122f0565b5092979650505050505050565b60008060006040848603121561234057600080fd5b833561234b81611f2a565b925060208401356001600160401b038082111561236757600080fd5b818601915086601f83011261237b57600080fd5b81358181111561238a57600080fd5b8760208260061b850101111561239f57600080fd5b6020830194508093505050509250925092565b6000602080830181845280855180835260408601915060408160051b870101925083870160005b8281101561231e57603f198886030184526123f58583516122a8565b945092850192908501906001016123d9565b60006020828403121561241957600080fd5b81356107d081611f2a565b60008060008060006080868803121561243c57600080fd5b853561244781611f2a565b9450602086013561245781611f2a565b9350604086013561246781611f2a565b925060608601356001600160401b0381111561248257600080fd5b61248e88828901611fe7565b969995985093965092949392505050565b6000806000606084860312156124b457600080fd5b83356124bf81611f2a565b925060208401356124cf81611f2a565b915060408401356124df81611f2a565b809150509250925092565b8015158114610df557600080fd5b60006020828403121561250a57600080fd5b81516107d0816124ea565b634e487b7160e01b600052602160045260246000fd5b8183823760009101908152919050565b6000808335601e1984360301811261255257600080fd5b83016020810192503590506001600160401b0381111561257157600080fd5b80360382131561202857600080fd5b81835281816020850137506000828201602090810191909152601f909101601f19169091010190565b60008235607e198336030181126125bf57600080fd5b90910192915050565b60208082528181018390526000906040808401600586901b8501820187855b8881101561266d57878303603f19018452612602828b6125a9565b6080813561260f81611f2a565b6001600160a01b0316855281880135612627816124ea565b151585890152818701358786015260606126438184018461253b565b935082828801526126578388018583612580565b978a0197965050509287019250506001016125e7565b509098975050505050505050565b60006001600160401b038084111561269557612695612124565b8360051b60206126a681830161213a565b868152935090840190808401878311156126bf57600080fd5b855b83811015612789578051858111156126d95760008081fd5b87016040818b038113156126ed5760008081fd5b8051818101818110898211171561270657612706612124565b909152815190612715826124ea565b90815281850151908782111561272b5760008081fd5b81830192508b601f84011261274257600091508182fd5b825191506127526121e98361216a565b8281528c878486010111156127675760008081fd5b61277683888301898701612083565b81870152845250509082019082016126c1565b50505050509392505050565b6000602082840312156127a757600080fd5b81516001600160401b038111156127bd57600080fd5b8201601f810184136127ce57600080fd5b6111338482516020840161267b565b8181843750600082820152601f01601f19160190565b60008184825b8581101561286f5761280b82886125a9565b803561281681611f2a565b6001600160a01b03168452602081810135612830816124ea565b15158582015260408281013590860152606061284e8184018461253b565b935061285d82880185836127dd565b965050509290920191506001016127f9565b509095945050505050565b6020808252818101839052600090604080840186845b878110156128c65781356128a381611f2a565b6001600160a01b0316835281850135858401529183019190830190600101612890565b5090979650505050505050565b6001600160a01b038681168252851660208201526080604082018190526000906129009083018587612580565b905082151560608301529695505050505050565b60006020828403121561292657600080fd5b81516107d081611f2a565b600060018060a01b03808716835260606020840152612954606084018688612580565b915080841660408401525095945050505050565b60008235605e198336030181126125bf57600080fd5b60208082528181018390526000906040808401600586901b8501820187855b8881101561266d57878303603f190184526129b8828b612968565b606081356129c581611f2a565b6001600160a01b03168552818801356129dd816124ea565b1515858901526129ef8288018361253b565b92508188870152612a038287018483612580565b9689019695505050918601915060010161299d565b60008184825b8581101561286f57612a308288612968565b8035612a3b81611f2a565b6001600160a01b03168452602081810135612a55816124ea565b1515858201526040612a698382018461253b565b9350612a7882880185836127dd565b96505050929092019150600101612a1e565b8181038181111561080857634e487b7160e01b600052601160045260246000fd5b600060208284031215612abd57600080fd5b5051919050565b60008251612ad6818460208701612083565b919091019291505056fe843c3a00fa95510a35f425371231fd3fe4642e719cb4595160763d6d02594b50189ab7a9244df0848122154315af71fe140f3db0fe014031783b0946b8c9d2e3360894a13ba1a3210667c828492db98dca3e2076cc3735a920a3ca505d382bbc02dd7bc7dec4dceedda775e58dd541e08a116c6c53815c0bd028192f7b6268006d5c9827c1f410bbb61d3b2a0a34b6b30492d9a1fd38588edca7ec4562ab9c9b72fabfa2b1ac915ec70485dd733361de83483a38cea0223da675234b1613f808a2646970667358221220d8684d32ac272a4c7b2c1750c01bf5e37789e60e38d9daefe6c74e535bf33edc64736f6c63430008140033","linkReferences":{}},"methodIdentifiers":{"BOT_ROLE()":"b1503774","CALLER_ROLE()":"774237fc","DEFAULT_ADMIN_ROLE()":"a217fddf","ERC_TRANSFER_ROLE()":"0045c409","UPGRADER_ROLE()":"f72c0d8b","UPGRADE_INTERFACE_VERSION()":"ad3cb1cc","addControllerRole(uint8,address)":"18548069","call(address,bytes)":"1b8b921d","callBatch((address,bool,bytes)[])":"e2684ae3","callBatchValue((address,bool,uint256,bytes)[])":"54172670","changeControllerOwner(address)":"dbde727b","contractType()":"cb2ef6f7","createVault(address,address,address,string)":"9828a443","feeReceiver()":"b3f00674","getRoleAdmin(bytes32)":"248a9ca3","grantRole(bytes32,address)":"2f2ff15d","hasControllerRole(uint8,address)":"a518be1a","hasRole(bytes32,address)":"91d14854","initialize(address,address,address)":"c0c53b8b","multicallAddress()":"08178604","owner()":"8da5cb5b","proxiableUUID()":"52d1902d","removeControllerRole(uint8,address)":"eabbb469","renounceRole(bytes32,address)":"36568abe","revokeRole(bytes32,address)":"d547741f","setFeeReceiver(address)":"efdcd974","setMulticallAddress(address)":"85ab402b","supportsInterface(bytes4)":"01ffc9a7","transferERC20Token(address,address,uint256)":"92940bf9","upgradeToAndCall(address,bytes)":"4f1ef286","vaultReward(address,address,uint256)":"00c6bd73","vaultRewardBatch(address,(address,uint256)[])":"61d24f15","version()":"54fd4d50"},"storageLayout":{"storage":[],"types":{}},"id":118}