{
    "abi": [
        {
            "type": "constructor",
            "inputs": [
                {
                    "name": "initialOwner",
                    "type": "address",
                    "internalType": "address"
                }
            ],
            "stateMutability": "nonpayable"
        },
        {
            "type": "function",
            "name": "balanceOf",
            "inputs": [
                {
                    "name": "account",
                    "type": "address",
                    "internalType": "address"
                },
                {
                    "name": "id",
                    "type": "uint256",
                    "internalType": "uint256"
                }
            ],
            "outputs": [
                {
                    "name": "",
                    "type": "uint256",
                    "internalType": "uint256"
                }
            ],
            "stateMutability": "view"
        },
        {
            "type": "function",
            "name": "balanceOfBatch",
            "inputs": [
                {
                    "name": "accounts",
                    "type": "address[]",
                    "internalType": "address[]"
                },
                {
                    "name": "ids",
                    "type": "uint256[]",
                    "internalType": "uint256[]"
                }
            ],
            "outputs": [
                {
                    "name": "",
                    "type": "uint256[]",
                    "internalType": "uint256[]"
                }
            ],
            "stateMutability": "view"
        },
        {
            "type": "function",
            "name": "burn",
            "inputs": [
                {
                    "name": "account",
                    "type": "address",
                    "internalType": "address"
                },
                {
                    "name": "id",
                    "type": "uint256",
                    "internalType": "uint256"
                },
                {
                    "name": "value",
                    "type": "uint256",
                    "internalType": "uint256"
                }
            ],
            "outputs": [],
            "stateMutability": "nonpayable"
        },
        {
            "type": "function",
            "name": "burnBatch",
            "inputs": [
                {
                    "name": "account",
                    "type": "address",
                    "internalType": "address"
                },
                {
                    "name": "ids",
                    "type": "uint256[]",
                    "internalType": "uint256[]"
                },
                {
                    "name": "values",
                    "type": "uint256[]",
                    "internalType": "uint256[]"
                }
            ],
            "outputs": [],
            "stateMutability": "nonpayable"
        },
        {
            "type": "function",
            "name": "exists",
            "inputs": [
                {
                    "name": "id",
                    "type": "uint256",
                    "internalType": "uint256"
                }
            ],
            "outputs": [
                {
                    "name": "",
                    "type": "bool",
                    "internalType": "bool"
                }
            ],
            "stateMutability": "view"
        },
        {
            "type": "function",
            "name": "isApprovedForAll",
            "inputs": [
                {
                    "name": "account",
                    "type": "address",
                    "internalType": "address"
                },
                {
                    "name": "operator",
                    "type": "address",
                    "internalType": "address"
                }
            ],
            "outputs": [
                {
                    "name": "",
                    "type": "bool",
                    "internalType": "bool"
                }
            ],
            "stateMutability": "view"
        },
        {
            "type": "function",
            "name": "mint",
            "inputs": [
                {
                    "name": "account",
                    "type": "address",
                    "internalType": "address"
                },
                {
                    "name": "id",
                    "type": "uint256",
                    "internalType": "uint256"
                },
                {
                    "name": "amount",
                    "type": "uint256",
                    "internalType": "uint256"
                },
                {
                    "name": "data",
                    "type": "bytes",
                    "internalType": "bytes"
                }
            ],
            "outputs": [],
            "stateMutability": "nonpayable"
        },
        {
            "type": "function",
            "name": "mintBatch",
            "inputs": [
                {
                    "name": "to",
                    "type": "address",
                    "internalType": "address"
                },
                {
                    "name": "ids",
                    "type": "uint256[]",
                    "internalType": "uint256[]"
                },
                {
                    "name": "amounts",
                    "type": "uint256[]",
                    "internalType": "uint256[]"
                },
                {
                    "name": "data",
                    "type": "bytes",
                    "internalType": "bytes"
                }
            ],
            "outputs": [],
            "stateMutability": "nonpayable"
        },
        {
            "type": "function",
            "name": "owner",
            "inputs": [],
            "outputs": [
                {
                    "name": "",
                    "type": "address",
                    "internalType": "address"
                }
            ],
            "stateMutability": "view"
        },
        {
            "type": "function",
            "name": "pause",
            "inputs": [],
            "outputs": [],
            "stateMutability": "nonpayable"
        },
        {
            "type": "function",
            "name": "paused",
            "inputs": [],
            "outputs": [
                {
                    "name": "",
                    "type": "bool",
                    "internalType": "bool"
                }
            ],
            "stateMutability": "view"
        },
        {
            "type": "function",
            "name": "renounceOwnership",
            "inputs": [],
            "outputs": [],
            "stateMutability": "nonpayable"
        },
        {
            "type": "function",
            "name": "safeBatchTransferFrom",
            "inputs": [
                {
                    "name": "from",
                    "type": "address",
                    "internalType": "address"
                },
                {
                    "name": "to",
                    "type": "address",
                    "internalType": "address"
                },
                {
                    "name": "ids",
                    "type": "uint256[]",
                    "internalType": "uint256[]"
                },
                {
                    "name": "values",
                    "type": "uint256[]",
                    "internalType": "uint256[]"
                },
                {
                    "name": "data",
                    "type": "bytes",
                    "internalType": "bytes"
                }
            ],
            "outputs": [],
            "stateMutability": "nonpayable"
        },
        {
            "type": "function",
            "name": "safeTransferFrom",
            "inputs": [
                {
                    "name": "from",
                    "type": "address",
                    "internalType": "address"
                },
                {
                    "name": "to",
                    "type": "address",
                    "internalType": "address"
                },
                {
                    "name": "id",
                    "type": "uint256",
                    "internalType": "uint256"
                },
                {
                    "name": "value",
                    "type": "uint256",
                    "internalType": "uint256"
                },
                {
                    "name": "data",
                    "type": "bytes",
                    "internalType": "bytes"
                }
            ],
            "outputs": [],
            "stateMutability": "nonpayable"
        },
        {
            "type": "function",
            "name": "setApprovalForAll",
            "inputs": [
                {
                    "name": "operator",
                    "type": "address",
                    "internalType": "address"
                },
                {
                    "name": "approved",
                    "type": "bool",
                    "internalType": "bool"
                }
            ],
            "outputs": [],
            "stateMutability": "nonpayable"
        },
        {
            "type": "function",
            "name": "setURI",
            "inputs": [
                {
                    "name": "newuri",
                    "type": "string",
                    "internalType": "string"
                }
            ],
            "outputs": [],
            "stateMutability": "nonpayable"
        },
        {
            "type": "function",
            "name": "supportsInterface",
            "inputs": [
                {
                    "name": "interfaceId",
                    "type": "bytes4",
                    "internalType": "bytes4"
                }
            ],
            "outputs": [
                {
                    "name": "",
                    "type": "bool",
                    "internalType": "bool"
                }
            ],
            "stateMutability": "view"
        },
        {
            "type": "function",
            "name": "totalSupply",
            "inputs": [],
            "outputs": [
                {
                    "name": "",
                    "type": "uint256",
                    "internalType": "uint256"
                }
            ],
            "stateMutability": "view"
        },
        {
            "type": "function",
            "name": "totalSupply",
            "inputs": [
                {
                    "name": "id",
                    "type": "uint256",
                    "internalType": "uint256"
                }
            ],
            "outputs": [
                {
                    "name": "",
                    "type": "uint256",
                    "internalType": "uint256"
                }
            ],
            "stateMutability": "view"
        },
        {
            "type": "function",
            "name": "transferOwnership",
            "inputs": [
                {
                    "name": "newOwner",
                    "type": "address",
                    "internalType": "address"
                }
            ],
            "outputs": [],
            "stateMutability": "nonpayable"
        },
        {
            "type": "function",
            "name": "unpause",
            "inputs": [],
            "outputs": [],
            "stateMutability": "nonpayable"
        },
        {
            "type": "function",
            "name": "uri",
            "inputs": [
                {
                    "name": "",
                    "type": "uint256",
                    "internalType": "uint256"
                }
            ],
            "outputs": [
                {
                    "name": "",
                    "type": "string",
                    "internalType": "string"
                }
            ],
            "stateMutability": "view"
        },
        {
            "type": "event",
            "name": "ApprovalForAll",
            "inputs": [
                {
                    "name": "account",
                    "type": "address",
                    "indexed": true,
                    "internalType": "address"
                },
                {
                    "name": "operator",
                    "type": "address",
                    "indexed": true,
                    "internalType": "address"
                },
                {
                    "name": "approved",
                    "type": "bool",
                    "indexed": false,
                    "internalType": "bool"
                }
            ],
            "anonymous": false
        },
        {
            "type": "event",
            "name": "OwnershipTransferred",
            "inputs": [
                {
                    "name": "previousOwner",
                    "type": "address",
                    "indexed": true,
                    "internalType": "address"
                },
                {
                    "name": "newOwner",
                    "type": "address",
                    "indexed": true,
                    "internalType": "address"
                }
            ],
            "anonymous": false
        },
        {
            "type": "event",
            "name": "Paused",
            "inputs": [
                {
                    "name": "account",
                    "type": "address",
                    "indexed": false,
                    "internalType": "address"
                }
            ],
            "anonymous": false
        },
        {
            "type": "event",
            "name": "TransferBatch",
            "inputs": [
                {
                    "name": "operator",
                    "type": "address",
                    "indexed": true,
                    "internalType": "address"
                },
                {
                    "name": "from",
                    "type": "address",
                    "indexed": true,
                    "internalType": "address"
                },
                {
                    "name": "to",
                    "type": "address",
                    "indexed": true,
                    "internalType": "address"
                },
                {
                    "name": "ids",
                    "type": "uint256[]",
                    "indexed": false,
                    "internalType": "uint256[]"
                },
                {
                    "name": "values",
                    "type": "uint256[]",
                    "indexed": false,
                    "internalType": "uint256[]"
                }
            ],
            "anonymous": false
        },
        {
            "type": "event",
            "name": "TransferSingle",
            "inputs": [
                {
                    "name": "operator",
                    "type": "address",
                    "indexed": true,
                    "internalType": "address"
                },
                {
                    "name": "from",
                    "type": "address",
                    "indexed": true,
                    "internalType": "address"
                },
                {
                    "name": "to",
                    "type": "address",
                    "indexed": true,
                    "internalType": "address"
                },
                {
                    "name": "id",
                    "type": "uint256",
                    "indexed": false,
                    "internalType": "uint256"
                },
                {
                    "name": "value",
                    "type": "uint256",
                    "indexed": false,
                    "internalType": "uint256"
                }
            ],
            "anonymous": false
        },
        {
            "type": "event",
            "name": "URI",
            "inputs": [
                {
                    "name": "value",
                    "type": "string",
                    "indexed": false,
                    "internalType": "string"
                },
                {
                    "name": "id",
                    "type": "uint256",
                    "indexed": true,
                    "internalType": "uint256"
                }
            ],
            "anonymous": false
        },
        {
            "type": "event",
            "name": "Unpaused",
            "inputs": [
                {
                    "name": "account",
                    "type": "address",
                    "indexed": false,
                    "internalType": "address"
                }
            ],
            "anonymous": false
        },
        {
            "type": "error",
            "name": "ERC1155InsufficientBalance",
            "inputs": [
                {
                    "name": "sender",
                    "type": "address",
                    "internalType": "address"
                },
                {
                    "name": "balance",
                    "type": "uint256",
                    "internalType": "uint256"
                },
                {
                    "name": "needed",
                    "type": "uint256",
                    "internalType": "uint256"
                },
                {
                    "name": "tokenId",
                    "type": "uint256",
                    "internalType": "uint256"
                }
            ]
        },
        {
            "type": "error",
            "name": "ERC1155InvalidApprover",
            "inputs": [
                {
                    "name": "approver",
                    "type": "address",
                    "internalType": "address"
                }
            ]
        },
        {
            "type": "error",
            "name": "ERC1155InvalidArrayLength",
            "inputs": [
                {
                    "name": "idsLength",
                    "type": "uint256",
                    "internalType": "uint256"
                },
                {
                    "name": "valuesLength",
                    "type": "uint256",
                    "internalType": "uint256"
                }
            ]
        },
        {
            "type": "error",
            "name": "ERC1155InvalidOperator",
            "inputs": [
                {
                    "name": "operator",
                    "type": "address",
                    "internalType": "address"
                }
            ]
        },
        {
            "type": "error",
            "name": "ERC1155InvalidReceiver",
            "inputs": [
                {
                    "name": "receiver",
                    "type": "address",
                    "internalType": "address"
                }
            ]
        },
        {
            "type": "error",
            "name": "ERC1155InvalidSender",
            "inputs": [
                {
                    "name": "sender",
                    "type": "address",
                    "internalType": "address"
                }
            ]
        },
        {
            "type": "error",
            "name": "ERC1155MissingApprovalForAll",
            "inputs": [
                {
                    "name": "operator",
                    "type": "address",
                    "internalType": "address"
                },
                {
                    "name": "owner",
                    "type": "address",
                    "internalType": "address"
                }
            ]
        },
        {
            "type": "error",
            "name": "EnforcedPause",
            "inputs": []
        },
        {
            "type": "error",
            "name": "ExpectedPause",
            "inputs": []
        },
        {
            "type": "error",
            "name": "OwnableInvalidOwner",
            "inputs": [
                {
                    "name": "owner",
                    "type": "address",
                    "internalType": "address"
                }
            ]
        },
        {
            "type": "error",
            "name": "OwnableUnauthorizedAccount",
            "inputs": [
                {
                    "name": "account",
                    "type": "address",
                    "internalType": "address"
                }
            ]
        }
    ],
    "bytecode": {
        "object": "0x60806040523480156200001157600080fd5b5060405162001deb38038062001deb833981016040819052620000349162000129565b60408051808201909152601d81527f68747470733a2f2f6578616d706c652e636f6d2f6d657461646174612f000000602082015281906200007581620000c5565b506001600160a01b038116620000a557604051631e4fbdf760e01b81526000600482015260240160405180910390fd5b620000b081620000d7565b50506003805460ff60a01b19169055620002cc565b6002620000d3828262000200565b5050565b600380546001600160a01b038381166001600160a01b0319831681179093556040519116919082907f8be0079c531659141344cd1fd0a4f28419497f9722a3daafe3b4186f6b6457e090600090a35050565b6000602082840312156200013c57600080fd5b81516001600160a01b03811681146200015457600080fd5b9392505050565b634e487b7160e01b600052604160045260246000fd5b600181811c908216806200018657607f821691505b602082108103620001a757634e487b7160e01b600052602260045260246000fd5b50919050565b601f821115620001fb57600081815260208120601f850160051c81016020861015620001d65750805b601f850160051c820191505b81811015620001f757828155600101620001e2565b5050505b505050565b81516001600160401b038111156200021c576200021c6200015b565b62000234816200022d845462000171565b84620001ad565b602080601f8311600181146200026c5760008415620002535750858301515b600019600386901b1c1916600185901b178555620001f7565b600085815260208120601f198616915b828110156200029d578886015182559484019460019091019084016200027c565b5085821015620002bc5787850151600019600388901b60f8161c191681555b5050505050600190811b01905550565b611b0f80620002dc6000396000f3fe608060405234801561001057600080fd5b50600436106101415760003560e01c80636b20c454116100b8578063a22cb4651161007c578063a22cb4651461029f578063bd85b039146102b2578063e985e9c5146102d2578063f242432a146102e5578063f2fde38b146102f8578063f5298aca1461030b57600080fd5b80636b20c4541461024e578063715018a614610261578063731133e9146102695780638456cb591461027c5780638da5cb5b1461028457600080fd5b80631f7fdffa1161010a5780631f7fdffa146101cc5780632eb2c2d6146101df5780633f4ba83a146101f25780634e1273f4146101fa5780634f558e791461021a5780635c975abb1461023c57600080fd5b8062fdd58e1461014657806301ffc9a71461016c57806302fe53051461018f5780630e89341c146101a457806318160ddd146101c4575b600080fd5b6101596101543660046111a2565b61031e565b6040519081526020015b60405180910390f35b61017f61017a3660046111e2565b610346565b6040519015158152602001610163565b6101a261019d3660046112a5565b610396565b005b6101b76101b23660046112f6565b6103aa565b6040516101639190611355565b600554610159565b6101a26101da366004611417565b61043e565b6101a26101ed3660046114b0565b610458565b6101a26104c4565b61020d61020836600461155a565b6104d6565b6040516101639190611655565b61017f6102283660046112f6565b600090815260046020526040902054151590565b600354600160a01b900460ff1661017f565b6101a261025c366004611668565b6105ab565b6101a261060f565b6101a26102773660046116dc565b610621565b6101a2610635565b6003546040516001600160a01b039091168152602001610163565b6101a26102ad366004611731565b610645565b6101596102c03660046112f6565b60009081526004602052604090205490565b61017f6102e036600461176d565b610654565b6101a26102f33660046117a0565b610682565b6101a2610306366004611805565b6106e1565b6101a2610319366004611820565b61071c565b6000818152602081815260408083206001600160a01b03861684529091529020545b92915050565b60006001600160e01b03198216636cdb3d1360e11b148061037757506001600160e01b031982166303a24d0760e21b145b8061034057506301ffc9a760e01b6001600160e01b0319831614610340565b61039e610752565b6103a78161077f565b50565b6060600280546103b990611853565b80601f01602080910402602001604051908101604052809291908181526020018280546103e590611853565b80156104325780601f1061040757610100808354040283529160200191610432565b820191906000526020600020905b81548152906001019060200180831161041557829003601f168201915b50505050509050919050565b610446610752565b6104528484848461078b565b50505050565b336001600160a01b038616811480159061047957506104778682610654565b155b156104af5760405163711bec9160e11b81526001600160a01b038083166004830152871660248201526044015b60405180910390fd5b6104bc86868686866107c3565b505050505050565b6104cc610752565b6104d461082a565b565b606081518351146105075781518351604051635b05999160e01b8152600481019290925260248201526044016104a6565b6000835167ffffffffffffffff81111561052357610523611206565b60405190808252806020026020018201604052801561054c578160200160208202803683370190505b50905060005b84518110156105a3576020808202860101516105769060208084028701015161031e565b8282815181106105885761058861188d565b602090810291909101015261059c816118b9565b9050610552565b509392505050565b6001600160a01b03831633148015906105cb57506105c98333610654565b155b156105ff57335b60405163711bec9160e11b81526001600160a01b03918216600482015290841660248201526044016104a6565b61060a83838361087f565b505050565b610617610752565b6104d460006108c5565b610629610752565b61045284848484610917565b61063d610752565b6104d4610974565b6106503383836109b7565b5050565b6001600160a01b03918216600090815260016020908152604080832093909416825291909152205460ff1690565b336001600160a01b03861681148015906106a357506106a18682610654565b155b156106d45760405163711bec9160e11b81526001600160a01b038083166004830152871660248201526044016104a6565b6104bc8686868686610a4d565b6106e9610752565b6001600160a01b03811661071357604051631e4fbdf760e01b8152600060048201526024016104a6565b6103a7816108c5565b6001600160a01b038316331480159061073c575061073a8333610654565b155b1561074757336105d2565b61060a838383610adb565b6003546001600160a01b031633146104d45760405163118cdaa760e01b81523360048201526024016104a6565b60026106508282611918565b6001600160a01b0384166107b557604051632bfa23e760e11b8152600060048201526024016104a6565b610452600085858585610b3f565b6001600160a01b0384166107ed57604051632bfa23e760e11b8152600060048201526024016104a6565b6001600160a01b03851661081657604051626a0d4560e21b8152600060048201526024016104a6565b6108238585858585610b3f565b5050505050565b610832610b92565b6003805460ff60a01b191690557f5db9ee0a495bf2e6ff9c91a7834c1ba4fdd244a5e8aa4e537bd38aeae4b073aa335b6040516001600160a01b03909116815260200160405180910390a1565b6001600160a01b0383166108a857604051626a0d4560e21b8152600060048201526024016104a6565b61060a836000848460405180602001604052806000815250610b3f565b600380546001600160a01b038381166001600160a01b0319831681179093556040519116919082907f8be0079c531659141344cd1fd0a4f28419497f9722a3daafe3b4186f6b6457e090600090a35050565b6001600160a01b03841661094157604051632bfa23e760e11b8152600060048201526024016104a6565b604080516001808252602082018690528183019081526060820185905260808201909252906104bc600087848487610b3f565b61097c610bbc565b6003805460ff60a01b1916600160a01b1790557f62e78cea01bee320cd4e420270b5ea74000d11b0c9f74754ebdbfc544b05a2586108623390565b6001600160a01b0382166109e05760405162ced3e160e81b8152600060048201526024016104a6565b6001600160a01b03838116600081815260016020908152604080832094871680845294825291829020805460ff191686151590811790915591519182527f17307eab39ab6107e8899845ad3d59bd9653f200f220920489ca2b5937696c31910160405180910390a3505050565b6001600160a01b038416610a7757604051632bfa23e760e11b8152600060048201526024016104a6565b6001600160a01b038516610aa057604051626a0d4560e21b8152600060048201526024016104a6565b60408051600180825260208201869052818301908152606082018590526080820190925290610ad28787848487610b3f565b50505050505050565b6001600160a01b038316610b0457604051626a0d4560e21b8152600060048201526024016104a6565b604080516001808252602082018590528183019081526060820184905260a08201909252600060808201818152919291610823918791859085905b610b4b85858585610be7565b6001600160a01b038416156108235782513390600103610b845760208481015190840151610b7d838989858589610bf3565b50506104bc565b6104bc818787878787610d17565b600354600160a01b900460ff166104d457604051638dfc202b60e01b815260040160405180910390fd5b600354600160a01b900460ff16156104d45760405163d93c066560e01b815260040160405180910390fd5b61045284848484610e00565b6001600160a01b0384163b156104bc5760405163f23a6e6160e01b81526001600160a01b0385169063f23a6e6190610c3790899089908890889088906004016119d8565b6020604051808303816000875af1925050508015610c72575060408051601f3d908101601f19168201909252610c6f91810190611a1d565b60015b610cdb573d808015610ca0576040519150601f19603f3d011682016040523d82523d6000602084013e610ca5565b606091505b508051600003610cd357604051632bfa23e760e11b81526001600160a01b03861660048201526024016104a6565b805181602001fd5b6001600160e01b0319811663f23a6e6160e01b14610ad257604051632bfa23e760e11b81526001600160a01b03861660048201526024016104a6565b6001600160a01b0384163b156104bc5760405163bc197c8160e01b81526001600160a01b0385169063bc197c8190610d5b9089908990889088908890600401611a3a565b6020604051808303816000875af1925050508015610d96575060408051601f3d908101601f19168201909252610d9391810190611a1d565b60015b610dc4573d808015610ca0576040519150601f19603f3d011682016040523d82523d6000602084013e610ca5565b6001600160e01b0319811663bc197c8160e01b14610ad257604051632bfa23e760e11b81526001600160a01b03861660048201526024016104a6565b610e0c84848484610f5a565b6001600160a01b038416610ebf576000805b8351811015610ea5576000838281518110610e3b57610e3b61188d565b602002602001015190508060046000878581518110610e5c57610e5c61188d565b602002602001015181526020019081526020016000206000828254610e819190611a98565b90915550610e9190508184611a98565b92505080610e9e906118b9565b9050610e1e565b508060056000828254610eb89190611a98565b9091555050505b6001600160a01b038316610452576000805b8351811015610f49576000838281518110610eee57610eee61188d565b602002602001015190508060046000878581518110610f0f57610f0f61188d565b602002602001015181526020019081526020016000206000828254039250508190555080830192505080610f42906118b9565b9050610ed1565b506005805491909103905550505050565b610f62610bbc565b610452848484848051825114610f985781518151604051635b05999160e01b8152600481019290925260248201526044016104a6565b3360005b83518110156110a7576020818102858101820151908501909101516001600160a01b0388161561104f576000828152602081815260408083206001600160a01b038c16845290915290205481811015611028576040516303dee4c560e01b81526001600160a01b038a1660048201526024810182905260448101839052606481018490526084016104a6565b6000838152602081815260408083206001600160a01b038d16845290915290209082900390555b6001600160a01b03871615611094576000828152602081815260408083206001600160a01b038b1684529091528120805483929061108e908490611a98565b90915550505b5050806110a0906118b9565b9050610f9c565b5082516001036111285760208301516000906020840151909150856001600160a01b0316876001600160a01b0316846001600160a01b03167fc3d58168c5ae7397731d063d5bbf3d657854427343f4c083240f7aacaa2d0f628585604051611119929190918252602082015260400190565b60405180910390a45050610823565b836001600160a01b0316856001600160a01b0316826001600160a01b03167f4a39dc06d4c0dbc64b70af90fd698a233a518aa5d07e595d983b8c0526c8f7fb8686604051611177929190611aab565b60405180910390a45050505050565b80356001600160a01b038116811461119d57600080fd5b919050565b600080604083850312156111b557600080fd5b6111be83611186565b946020939093013593505050565b6001600160e01b0319811681146103a757600080fd5b6000602082840312156111f457600080fd5b81356111ff816111cc565b9392505050565b634e487b7160e01b600052604160045260246000fd5b604051601f8201601f1916810167ffffffffffffffff8111828210171561124557611245611206565b604052919050565b600067ffffffffffffffff83111561126757611267611206565b61127a601f8401601f191660200161121c565b905082815283838301111561128e57600080fd5b828260208301376000602084830101529392505050565b6000602082840312156112b757600080fd5b813567ffffffffffffffff8111156112ce57600080fd5b8201601f810184136112df57600080fd5b6112ee8482356020840161124d565b949350505050565b60006020828403121561130857600080fd5b5035919050565b6000815180845260005b8181101561133557602081850181015186830182015201611319565b506000602082860101526020601f19601f83011685010191505092915050565b6020815260006111ff602083018461130f565b600067ffffffffffffffff82111561138257611382611206565b5060051b60200190565b600082601f83011261139d57600080fd5b813560206113b26113ad83611368565b61121c565b82815260059290921b840181019181810190868411156113d157600080fd5b8286015b848110156113ec57803583529183019183016113d5565b509695505050505050565b600082601f83011261140857600080fd5b6111ff8383356020850161124d565b6000806000806080858703121561142d57600080fd5b61143685611186565b9350602085013567ffffffffffffffff8082111561145357600080fd5b61145f8883890161138c565b9450604087013591508082111561147557600080fd5b6114818883890161138c565b9350606087013591508082111561149757600080fd5b506114a4878288016113f7565b91505092959194509250565b600080600080600060a086880312156114c857600080fd5b6114d186611186565b94506114df60208701611186565b9350604086013567ffffffffffffffff808211156114fc57600080fd5b61150889838a0161138c565b9450606088013591508082111561151e57600080fd5b61152a89838a0161138c565b9350608088013591508082111561154057600080fd5b5061154d888289016113f7565b9150509295509295909350565b6000806040838503121561156d57600080fd5b823567ffffffffffffffff8082111561158557600080fd5b818501915085601f83011261159957600080fd5b813560206115a96113ad83611368565b82815260059290921b840181019181810190898411156115c857600080fd5b948201945b838610156115ed576115de86611186565b825294820194908201906115cd565b9650508601359250508082111561160357600080fd5b506116108582860161138c565b9150509250929050565b600081518084526020808501945080840160005b8381101561164a5781518752958201959082019060010161162e565b509495945050505050565b6020815260006111ff602083018461161a565b60008060006060848603121561167d57600080fd5b61168684611186565b9250602084013567ffffffffffffffff808211156116a357600080fd5b6116af8783880161138c565b935060408601359150808211156116c557600080fd5b506116d28682870161138c565b9150509250925092565b600080600080608085870312156116f257600080fd5b6116fb85611186565b93506020850135925060408501359150606085013567ffffffffffffffff81111561172557600080fd5b6114a4878288016113f7565b6000806040838503121561174457600080fd5b61174d83611186565b91506020830135801515811461176257600080fd5b809150509250929050565b6000806040838503121561178057600080fd5b61178983611186565b915061179760208401611186565b90509250929050565b600080600080600060a086880312156117b857600080fd5b6117c186611186565b94506117cf60208701611186565b93506040860135925060608601359150608086013567ffffffffffffffff8111156117f957600080fd5b61154d888289016113f7565b60006020828403121561181757600080fd5b6111ff82611186565b60008060006060848603121561183557600080fd5b61183e84611186565b95602085013595506040909401359392505050565b600181811c9082168061186757607f821691505b60208210810361188757634e487b7160e01b600052602260045260246000fd5b50919050565b634e487b7160e01b600052603260045260246000fd5b634e487b7160e01b600052601160045260246000fd5b6000600182016118cb576118cb6118a3565b5060010190565b601f82111561060a57600081815260208120601f850160051c810160208610156118f95750805b601f850160051c820191505b818110156104bc57828155600101611905565b815167ffffffffffffffff81111561193257611932611206565b611946816119408454611853565b846118d2565b602080601f83116001811461197b57600084156119635750858301515b600019600386901b1c1916600185901b1785556104bc565b600085815260208120601f198616915b828110156119aa5788860151825594840194600190910190840161198b565b50858210156119c85787850151600019600388901b60f8161c191681555b5050505050600190811b01905550565b6001600160a01b03868116825285166020820152604081018490526060810183905260a060808201819052600090611a129083018461130f565b979650505050505050565b600060208284031215611a2f57600080fd5b81516111ff816111cc565b6001600160a01b0386811682528516602082015260a060408201819052600090611a669083018661161a565b8281036060840152611a78818661161a565b90508281036080840152611a8c818561130f565b98975050505050505050565b80820180821115610340576103406118a3565b604081526000611abe604083018561161a565b8281036020840152611ad0818561161a565b9594505050505056fea2646970667358221220e669829c3b3e711113be5ae09cc697807f373838636693b9799cfff0838e949f64736f6c63430008140033",
        "linkReferences": {}
    },
    "methodIdentifiers": {
        "balanceOf(address,uint256)": "00fdd58e",
        "balanceOfBatch(address[],uint256[])": "4e1273f4",
        "burn(address,uint256,uint256)": "f5298aca",
        "burnBatch(address,uint256[],uint256[])": "6b20c454",
        "exists(uint256)": "4f558e79",
        "isApprovedForAll(address,address)": "e985e9c5",
        "mint(address,uint256,uint256,bytes)": "731133e9",
        "mintBatch(address,uint256[],uint256[],bytes)": "1f7fdffa",
        "owner()": "8da5cb5b",
        "pause()": "8456cb59",
        "paused()": "5c975abb",
        "renounceOwnership()": "715018a6",
        "safeBatchTransferFrom(address,address,uint256[],uint256[],bytes)": "2eb2c2d6",
        "safeTransferFrom(address,address,uint256,uint256,bytes)": "f242432a",
        "setApprovalForAll(address,bool)": "a22cb465",
        "setURI(string)": "02fe5305",
        "supportsInterface(bytes4)": "01ffc9a7",
        "totalSupply()": "18160ddd",
        "totalSupply(uint256)": "bd85b039",
        "transferOwnership(address)": "f2fde38b",
        "unpause()": "3f4ba83a",
        "uri(uint256)": "0e89341c"
    },
    "storageLayout": {
        "storage": [
            {
                "astId": 54066,
                "contract": "helpers/token/Dev1155.sol:Dev1155",
                "label": "_balances",
                "offset": 0,
                "slot": "0",
                "type": "t_mapping(t_uint256,t_mapping(t_address,t_uint256))"
            },
            {
                "astId": 54072,
                "contract": "helpers/token/Dev1155.sol:Dev1155",
                "label": "_operatorApprovals",
                "offset": 0,
                "slot": "1",
                "type": "t_mapping(t_address,t_mapping(t_address,t_bool))"
            },
            {
                "astId": 54074,
                "contract": "helpers/token/Dev1155.sol:Dev1155",
                "label": "_uri",
                "offset": 0,
                "slot": "2",
                "type": "t_string_storage"
            },
            {
                "astId": 53664,
                "contract": "helpers/token/Dev1155.sol:Dev1155",
                "label": "_owner",
                "offset": 0,
                "slot": "3",
                "type": "t_address"
            },
            {
                "astId": 58206,
                "contract": "helpers/token/Dev1155.sol:Dev1155",
                "label": "_paused",
                "offset": 20,
                "slot": "3",
                "type": "t_bool"
            },
            {
                "astId": 55370,
                "contract": "helpers/token/Dev1155.sol:Dev1155",
                "label": "_totalSupply",
                "offset": 0,
                "slot": "4",
                "type": "t_mapping(t_uint256,t_uint256)"
            },
            {
                "astId": 55372,
                "contract": "helpers/token/Dev1155.sol:Dev1155",
                "label": "_totalSupplyAll",
                "offset": 0,
                "slot": "5",
                "type": "t_uint256"
            }
        ],
        "types": {
            "t_address": {
                "encoding": "inplace",
                "label": "address",
                "numberOfBytes": "20"
            },
            "t_bool": {
                "encoding": "inplace",
                "label": "bool",
                "numberOfBytes": "1"
            },
            "t_mapping(t_address,t_bool)": {
                "encoding": "mapping",
                "key": "t_address",
                "label": "mapping(address => bool)",
                "numberOfBytes": "32",
                "value": "t_bool"
            },
            "t_mapping(t_address,t_mapping(t_address,t_bool))": {
                "encoding": "mapping",
                "key": "t_address",
                "label": "mapping(address => mapping(address => bool))",
                "numberOfBytes": "32",
                "value": "t_mapping(t_address,t_bool)"
            },
            "t_mapping(t_address,t_uint256)": {
                "encoding": "mapping",
                "key": "t_address",
                "label": "mapping(address => uint256)",
                "numberOfBytes": "32",
                "value": "t_uint256"
            },
            "t_mapping(t_uint256,t_mapping(t_address,t_uint256))": {
                "encoding": "mapping",
                "key": "t_uint256",
                "label": "mapping(uint256 => mapping(address => uint256))",
                "numberOfBytes": "32",
                "value": "t_mapping(t_address,t_uint256)"
            },
            "t_mapping(t_uint256,t_uint256)": {
                "encoding": "mapping",
                "key": "t_uint256",
                "label": "mapping(uint256 => uint256)",
                "numberOfBytes": "32",
                "value": "t_uint256"
            },
            "t_string_storage": {
                "encoding": "bytes",
                "label": "string",
                "numberOfBytes": "32"
            },
            "t_uint256": {
                "encoding": "inplace",
                "label": "uint256",
                "numberOfBytes": "32"
            }
        }
    },
    "id": 3
}