{
    "abi": [
        {
            "type": "function",
            "name": "checkERC7201",
            "inputs": [],
            "outputs": [
                {
                    "name": "",
                    "type": "bytes32",
                    "internalType": "bytes32"
                }
            ],
            "stateMutability": "pure"
        },
        {
            "type": "function",
            "name": "getERC7201",
            "inputs": [
                {
                    "name": "_namespace",
                    "type": "string",
                    "internalType": "string"
                }
            ],
            "outputs": [
                {
                    "name": "",
                    "type": "bytes32",
                    "internalType": "bytes32"
                }
            ],
            "stateMutability": "pure"
        },
        {
            "type": "function",
            "name": "getRoleId",
            "inputs": [
                {
                    "name": "roleName",
                    "type": "string",
                    "internalType": "string"
                }
            ],
            "outputs": [
                {
                    "name": "",
                    "type": "bytes32",
                    "internalType": "bytes32"
                }
            ],
            "stateMutability": "pure"
        }
    ],
    "bytecode": {
        "object": "0x608060405234801561001057600080fd5b5061023e806100206000396000f3fe608060405234801561001057600080fd5b50600436106100415760003560e01c806317b7d7db146100465780637beb6a2014610060578063b8c5106714610073575b600080fd5b61004e610086565b60405190815260200160405180910390f35b61004e61006e366004610165565b6100e4565b61004e610081366004610165565b610143565b600060ff196100b660017f1651784504cf0d07ad9acf0f42cc471e083cd48d647a5a45296bec12a025ca4b6101d7565b6040516020016100c891815260200190565b6040516020818303038152906040528051906020012016905090565b600060ff60001b19600184846040516100fe9291906101f8565b60405190819003902061011191906101d7565b60405160200161012391815260200190565b604051602081830303815290604052805190602001201690505b92915050565b600082826040516101559291906101f8565b6040518091039020905092915050565b6000806020838503121561017857600080fd5b823567ffffffffffffffff8082111561019057600080fd5b818501915085601f8301126101a457600080fd5b8135818111156101b357600080fd5b8660208285010111156101c557600080fd5b60209290920196919550909350505050565b8181038181111561013d57634e487b7160e01b600052601160045260246000fd5b818382376000910190815291905056fea26469706673582212209805191488a195900b223a30ee2db517050e512c40850e0df3af7d05e2041b8264736f6c63430008140033",
        "linkReferences": {}
    },
    "methodIdentifiers": {
        "checkERC7201()": "17b7d7db",
        "getERC7201(string)": "7beb6a20",
        "getRoleId(string)": "b8c51067"
    },
    "storageLayout": {
        "storage": [],
        "types": {}
    },
    "id": 0
}