{
    "abi": [
        {
            "type": "constructor",
            "inputs": [],
            "stateMutability": "nonpayable"
        },
        {
            "type": "function",
            "name": "CONTROLLER_ROLE",
            "inputs": [],
            "outputs": [
                {
                    "name": "",
                    "type": "bytes32",
                    "internalType": "bytes32"
                }
            ],
            "stateMutability": "view"
        },
        {
            "type": "function",
            "name": "DEFAULT_ADMIN_ROLE",
            "inputs": [],
            "outputs": [
                {
                    "name": "",
                    "type": "bytes32",
                    "internalType": "bytes32"
                }
            ],
            "stateMutability": "view"
        },
        {
            "type": "function",
            "name": "UPGRADER_ROLE",
            "inputs": [],
            "outputs": [
                {
                    "name": "",
                    "type": "bytes32",
                    "internalType": "bytes32"
                }
            ],
            "stateMutability": "view"
        },
        {
            "type": "function",
            "name": "UPGRADE_INTERFACE_VERSION",
            "inputs": [],
            "outputs": [
                {
                    "name": "",
                    "type": "string",
                    "internalType": "string"
                }
            ],
            "stateMutability": "view"
        },
        {
            "type": "function",
            "name": "changeVaultFactoryOwner",
            "inputs": [
                {
                    "name": "newOwner",
                    "type": "address",
                    "internalType": "address"
                }
            ],
            "outputs": [],
            "stateMutability": "nonpayable"
        },
        {
            "type": "function",
            "name": "contractType",
            "inputs": [],
            "outputs": [
                {
                    "name": "",
                    "type": "string",
                    "internalType": "string"
                }
            ],
            "stateMutability": "view"
        },
        {
            "type": "function",
            "name": "createVault",
            "inputs": [
                {
                    "name": "projectOwner",
                    "type": "address",
                    "internalType": "address"
                },
                {
                    "name": "rewardToken",
                    "type": "address",
                    "internalType": "address"
                },
                {
                    "name": "projectName",
                    "type": "string",
                    "internalType": "string"
                },
                {
                    "name": "useTokenForPayment",
                    "type": "bool",
                    "internalType": "bool"
                }
            ],
            "outputs": [
                {
                    "name": "",
                    "type": "address",
                    "internalType": "address"
                }
            ],
            "stateMutability": "payable"
        },
        {
            "type": "function",
            "name": "creationFee",
            "inputs": [],
            "outputs": [
                {
                    "name": "ethFee",
                    "type": "uint256",
                    "internalType": "uint256"
                },
                {
                    "name": "erc20Fee",
                    "type": "uint256",
                    "internalType": "uint256"
                }
            ],
            "stateMutability": "pure"
        },
        {
            "type": "function",
            "name": "erc20PaymentToken",
            "inputs": [],
            "outputs": [
                {
                    "name": "",
                    "type": "address",
                    "internalType": "address"
                }
            ],
            "stateMutability": "view"
        },
        {
            "type": "function",
            "name": "feeReceiver",
            "inputs": [],
            "outputs": [
                {
                    "name": "",
                    "type": "address",
                    "internalType": "address"
                }
            ],
            "stateMutability": "view"
        },
        {
            "type": "function",
            "name": "getImplementationDetails",
            "inputs": [],
            "outputs": [
                {
                    "name": "implementationAddress",
                    "type": "address",
                    "internalType": "address"
                },
                {
                    "name": "",
                    "type": "string",
                    "internalType": "string"
                },
                {
                    "name": "",
                    "type": "string",
                    "internalType": "string"
                }
            ],
            "stateMutability": "view"
        },
        {
            "type": "function",
            "name": "getRoleAdmin",
            "inputs": [
                {
                    "name": "role",
                    "type": "bytes32",
                    "internalType": "bytes32"
                }
            ],
            "outputs": [
                {
                    "name": "",
                    "type": "bytes32",
                    "internalType": "bytes32"
                }
            ],
            "stateMutability": "view"
        },
        {
            "type": "function",
            "name": "getVaultInfo",
            "inputs": [
                {
                    "name": "vaultAddress",
                    "type": "address",
                    "internalType": "address"
                }
            ],
            "outputs": [
                {
                    "name": "",
                    "type": "tuple",
                    "internalType": "struct VaultInfo",
                    "components": [
                        {
                            "name": "id",
                            "type": "uint256",
                            "internalType": "uint256"
                        },
                        {
                            "name": "version",
                            "type": "string",
                            "internalType": "string"
                        },
                        {
                            "name": "projectOwner",
                            "type": "address",
                            "internalType": "address"
                        },
                        {
                            "name": "projectName",
                            "type": "string",
                            "internalType": "string"
                        },
                        {
                            "name": "rewardToken",
                            "type": "address",
                            "internalType": "address"
                        },
                        {
                            "name": "createdAt",
                            "type": "uint256",
                            "internalType": "uint256"
                        },
                        {
                            "name": "deployer",
                            "type": "address",
                            "internalType": "address"
                        }
                    ]
                }
            ],
            "stateMutability": "view"
        },
        {
            "type": "function",
            "name": "grantPermit",
            "inputs": [
                {
                    "name": "controller",
                    "type": "address",
                    "internalType": "address"
                }
            ],
            "outputs": [],
            "stateMutability": "nonpayable"
        },
        {
            "type": "function",
            "name": "grantRole",
            "inputs": [
                {
                    "name": "role",
                    "type": "bytes32",
                    "internalType": "bytes32"
                },
                {
                    "name": "account",
                    "type": "address",
                    "internalType": "address"
                }
            ],
            "outputs": [],
            "stateMutability": "nonpayable"
        },
        {
            "type": "function",
            "name": "hasRole",
            "inputs": [
                {
                    "name": "role",
                    "type": "bytes32",
                    "internalType": "bytes32"
                },
                {
                    "name": "account",
                    "type": "address",
                    "internalType": "address"
                }
            ],
            "outputs": [
                {
                    "name": "",
                    "type": "bool",
                    "internalType": "bool"
                }
            ],
            "stateMutability": "view"
        },
        {
            "type": "function",
            "name": "initialize",
            "inputs": [
                {
                    "name": "initialAdmin",
                    "type": "address",
                    "internalType": "address"
                },
                {
                    "name": "vaultImplementation",
                    "type": "address",
                    "internalType": "address"
                },
                {
                    "name": "_feeReceiver",
                    "type": "address",
                    "internalType": "address"
                },
                {
                    "name": "_creationFee",
                    "type": "uint256",
                    "internalType": "uint256"
                },
                {
                    "name": "_erc20PaymentToken",
                    "type": "address",
                    "internalType": "address"
                },
                {
                    "name": "erc20CreationFee",
                    "type": "uint256",
                    "internalType": "uint256"
                }
            ],
            "outputs": [],
            "stateMutability": "nonpayable"
        },
        {
            "type": "function",
            "name": "isController",
            "inputs": [
                {
                    "name": "controller",
                    "type": "address",
                    "internalType": "address"
                }
            ],
            "outputs": [
                {
                    "name": "",
                    "type": "bool",
                    "internalType": "bool"
                }
            ],
            "stateMutability": "view"
        },
        {
            "type": "function",
            "name": "owner",
            "inputs": [],
            "outputs": [
                {
                    "name": "",
                    "type": "address",
                    "internalType": "address"
                }
            ],
            "stateMutability": "view"
        },
        {
            "type": "function",
            "name": "proxiableUUID",
            "inputs": [],
            "outputs": [
                {
                    "name": "",
                    "type": "bytes32",
                    "internalType": "bytes32"
                }
            ],
            "stateMutability": "view"
        },
        {
            "type": "function",
            "name": "renounceRole",
            "inputs": [
                {
                    "name": "role",
                    "type": "bytes32",
                    "internalType": "bytes32"
                },
                {
                    "name": "callerConfirmation",
                    "type": "address",
                    "internalType": "address"
                }
            ],
            "outputs": [],
            "stateMutability": "nonpayable"
        },
        {
            "type": "function",
            "name": "revokePermit",
            "inputs": [
                {
                    "name": "controller",
                    "type": "address",
                    "internalType": "address"
                }
            ],
            "outputs": [],
            "stateMutability": "nonpayable"
        },
        {
            "type": "function",
            "name": "revokeRole",
            "inputs": [
                {
                    "name": "role",
                    "type": "bytes32",
                    "internalType": "bytes32"
                },
                {
                    "name": "account",
                    "type": "address",
                    "internalType": "address"
                }
            ],
            "outputs": [],
            "stateMutability": "nonpayable"
        },
        {
            "type": "function",
            "name": "setERC20PaymentToken",
            "inputs": [
                {
                    "name": "newERC20PaymentToken",
                    "type": "address",
                    "internalType": "address"
                }
            ],
            "outputs": [],
            "stateMutability": "nonpayable"
        },
        {
            "type": "function",
            "name": "setFeeReceiver",
            "inputs": [
                {
                    "name": "newFeeReceiver",
                    "type": "address",
                    "internalType": "address"
                }
            ],
            "outputs": [],
            "stateMutability": "nonpayable"
        },
        {
            "type": "function",
            "name": "supportsInterface",
            "inputs": [
                {
                    "name": "interfaceId",
                    "type": "bytes4",
                    "internalType": "bytes4"
                }
            ],
            "outputs": [
                {
                    "name": "",
                    "type": "bool",
                    "internalType": "bool"
                }
            ],
            "stateMutability": "view"
        },
        {
            "type": "function",
            "name": "totalVaults",
            "inputs": [],
            "outputs": [
                {
                    "name": "",
                    "type": "uint256",
                    "internalType": "uint256"
                }
            ],
            "stateMutability": "view"
        },
        {
            "type": "function",
            "name": "updateCreationFee",
            "inputs": [
                {
                    "name": "newCreationFee",
                    "type": "uint256",
                    "internalType": "uint256"
                },
                {
                    "name": "newERC20CreationFee",
                    "type": "uint256",
                    "internalType": "uint256"
                }
            ],
            "outputs": [],
            "stateMutability": "nonpayable"
        },
        {
            "type": "function",
            "name": "updateImplementation",
            "inputs": [
                {
                    "name": "newImplementation",
                    "type": "address",
                    "internalType": "address"
                }
            ],
            "outputs": [],
            "stateMutability": "nonpayable"
        },
        {
            "type": "function",
            "name": "updateVaultInfo",
            "inputs": [
                {
                    "name": "vault",
                    "type": "address",
                    "internalType": "address"
                }
            ],
            "outputs": [],
            "stateMutability": "nonpayable"
        },
        {
            "type": "function",
            "name": "upgradeToAndCall",
            "inputs": [
                {
                    "name": "newImplementation",
                    "type": "address",
                    "internalType": "address"
                },
                {
                    "name": "data",
                    "type": "bytes",
                    "internalType": "bytes"
                }
            ],
            "outputs": [],
            "stateMutability": "payable"
        },
        {
            "type": "function",
            "name": "version",
            "inputs": [],
            "outputs": [
                {
                    "name": "",
                    "type": "string",
                    "internalType": "string"
                }
            ],
            "stateMutability": "view"
        },
        {
            "type": "event",
            "name": "ControllerPermissionGranted",
            "inputs": [
                {
                    "name": "permissionGiver",
                    "type": "address",
                    "indexed": true,
                    "internalType": "address"
                },
                {
                    "name": "controller",
                    "type": "address",
                    "indexed": true,
                    "internalType": "address"
                }
            ],
            "anonymous": false
        },
        {
            "type": "event",
            "name": "ControllerPermissionRevoked",
            "inputs": [
                {
                    "name": "permissionGiver",
                    "type": "address",
                    "indexed": true,
                    "internalType": "address"
                },
                {
                    "name": "controller",
                    "type": "address",
                    "indexed": true,
                    "internalType": "address"
                }
            ],
            "anonymous": false
        },
        {
            "type": "event",
            "name": "CreationFeeUpdated",
            "inputs": [
                {
                    "name": "caller",
                    "type": "address",
                    "indexed": true,
                    "internalType": "address"
                },
                {
                    "name": "oldCreationFee",
                    "type": "uint256",
                    "indexed": false,
                    "internalType": "uint256"
                },
                {
                    "name": "newCreationFee",
                    "type": "uint256",
                    "indexed": true,
                    "internalType": "uint256"
                },
                {
                    "name": "oldERC20CreationFee",
                    "type": "uint256",
                    "indexed": false,
                    "internalType": "uint256"
                },
                {
                    "name": "newERC20CreationFee",
                    "type": "uint256",
                    "indexed": true,
                    "internalType": "uint256"
                }
            ],
            "anonymous": false
        },
        {
            "type": "event",
            "name": "ERC20PaymentTokenUpdated",
            "inputs": [
                {
                    "name": "caller",
                    "type": "address",
                    "indexed": true,
                    "internalType": "address"
                },
                {
                    "name": "oldToken",
                    "type": "address",
                    "indexed": true,
                    "internalType": "address"
                },
                {
                    "name": "newToken",
                    "type": "address",
                    "indexed": true,
                    "internalType": "address"
                }
            ],
            "anonymous": false
        },
        {
            "type": "event",
            "name": "FeeReceiverUpdated",
            "inputs": [
                {
                    "name": "caller",
                    "type": "address",
                    "indexed": true,
                    "internalType": "address"
                },
                {
                    "name": "oldFeeReceiver",
                    "type": "address",
                    "indexed": true,
                    "internalType": "address"
                },
                {
                    "name": "newFeeReceiver",
                    "type": "address",
                    "indexed": true,
                    "internalType": "address"
                }
            ],
            "anonymous": false
        },
        {
            "type": "event",
            "name": "Initialized",
            "inputs": [
                {
                    "name": "version",
                    "type": "uint64",
                    "indexed": false,
                    "internalType": "uint64"
                }
            ],
            "anonymous": false
        },
        {
            "type": "event",
            "name": "RoleAdminChanged",
            "inputs": [
                {
                    "name": "role",
                    "type": "bytes32",
                    "indexed": true,
                    "internalType": "bytes32"
                },
                {
                    "name": "previousAdminRole",
                    "type": "bytes32",
                    "indexed": true,
                    "internalType": "bytes32"
                },
                {
                    "name": "newAdminRole",
                    "type": "bytes32",
                    "indexed": true,
                    "internalType": "bytes32"
                }
            ],
            "anonymous": false
        },
        {
            "type": "event",
            "name": "RoleGranted",
            "inputs": [
                {
                    "name": "role",
                    "type": "bytes32",
                    "indexed": true,
                    "internalType": "bytes32"
                },
                {
                    "name": "account",
                    "type": "address",
                    "indexed": true,
                    "internalType": "address"
                },
                {
                    "name": "sender",
                    "type": "address",
                    "indexed": true,
                    "internalType": "address"
                }
            ],
            "anonymous": false
        },
        {
            "type": "event",
            "name": "RoleRevoked",
            "inputs": [
                {
                    "name": "role",
                    "type": "bytes32",
                    "indexed": true,
                    "internalType": "bytes32"
                },
                {
                    "name": "account",
                    "type": "address",
                    "indexed": true,
                    "internalType": "address"
                },
                {
                    "name": "sender",
                    "type": "address",
                    "indexed": true,
                    "internalType": "address"
                }
            ],
            "anonymous": false
        },
        {
            "type": "event",
            "name": "Upgraded",
            "inputs": [
                {
                    "name": "implementation",
                    "type": "address",
                    "indexed": true,
                    "internalType": "address"
                }
            ],
            "anonymous": false
        },
        {
            "type": "event",
            "name": "VaultCreated",
            "inputs": [
                {
                    "name": "caller",
                    "type": "address",
                    "indexed": true,
                    "internalType": "address"
                },
                {
                    "name": "vault",
                    "type": "address",
                    "indexed": true,
                    "internalType": "address"
                },
                {
                    "name": "createdAt",
                    "type": "uint256",
                    "indexed": true,
                    "internalType": "uint256"
                }
            ],
            "anonymous": false
        },
        {
            "type": "event",
            "name": "VaultFactoryOwnerUpdated",
            "inputs": [
                {
                    "name": "previousOwner",
                    "type": "address",
                    "indexed": true,
                    "internalType": "address"
                },
                {
                    "name": "newOwner",
                    "type": "address",
                    "indexed": true,
                    "internalType": "address"
                }
            ],
            "anonymous": false
        },
        {
            "type": "event",
            "name": "VaultImplementationUpdated",
            "inputs": [
                {
                    "name": "caller",
                    "type": "address",
                    "indexed": true,
                    "internalType": "address"
                },
                {
                    "name": "oldImplementation",
                    "type": "address",
                    "indexed": true,
                    "internalType": "address"
                },
                {
                    "name": "newImplementation",
                    "type": "address",
                    "indexed": true,
                    "internalType": "address"
                }
            ],
            "anonymous": false
        },
        {
            "type": "event",
            "name": "VaultInfoUpdated",
            "inputs": [
                {
                    "name": "caller",
                    "type": "address",
                    "indexed": true,
                    "internalType": "address"
                },
                {
                    "name": "newInfo",
                    "type": "tuple",
                    "indexed": true,
                    "internalType": "struct VaultInfo",
                    "components": [
                        {
                            "name": "id",
                            "type": "uint256",
                            "internalType": "uint256"
                        },
                        {
                            "name": "version",
                            "type": "string",
                            "internalType": "string"
                        },
                        {
                            "name": "projectOwner",
                            "type": "address",
                            "internalType": "address"
                        },
                        {
                            "name": "projectName",
                            "type": "string",
                            "internalType": "string"
                        },
                        {
                            "name": "rewardToken",
                            "type": "address",
                            "internalType": "address"
                        },
                        {
                            "name": "createdAt",
                            "type": "uint256",
                            "internalType": "uint256"
                        },
                        {
                            "name": "deployer",
                            "type": "address",
                            "internalType": "address"
                        }
                    ]
                }
            ],
            "anonymous": false
        },
        {
            "type": "error",
            "name": "AccessControlBadConfirmation",
            "inputs": []
        },
        {
            "type": "error",
            "name": "AccessControlUnauthorizedAccount",
            "inputs": [
                {
                    "name": "account",
                    "type": "address",
                    "internalType": "address"
                },
                {
                    "name": "neededRole",
                    "type": "bytes32",
                    "internalType": "bytes32"
                }
            ]
        },
        {
            "type": "error",
            "name": "AddressEmptyCode",
            "inputs": [
                {
                    "name": "target",
                    "type": "address",
                    "internalType": "address"
                }
            ]
        },
        {
            "type": "error",
            "name": "AddressInsufficientBalance",
            "inputs": [
                {
                    "name": "account",
                    "type": "address",
                    "internalType": "address"
                }
            ]
        },
        {
            "type": "error",
            "name": "CanNotBeZeroAddress",
            "inputs": []
        },
        {
            "type": "error",
            "name": "ERC1967InvalidImplementation",
            "inputs": [
                {
                    "name": "implementation",
                    "type": "address",
                    "internalType": "address"
                }
            ]
        },
        {
            "type": "error",
            "name": "ERC1967NonPayable",
            "inputs": []
        },
        {
            "type": "error",
            "name": "FailedInnerCall",
            "inputs": []
        },
        {
            "type": "error",
            "name": "InvalidCreationFee",
            "inputs": []
        },
        {
            "type": "error",
            "name": "InvalidInitialization",
            "inputs": []
        },
        {
            "type": "error",
            "name": "NotInitializing",
            "inputs": []
        },
        {
            "type": "error",
            "name": "NotVaultFactoryOwner",
            "inputs": []
        },
        {
            "type": "error",
            "name": "ReentrancyGuardReentrantCall",
            "inputs": []
        },
        {
            "type": "error",
            "name": "SafeERC20FailedOperation",
            "inputs": [
                {
                    "name": "token",
                    "type": "address",
                    "internalType": "address"
                }
            ]
        },
        {
            "type": "error",
            "name": "UUPSUnauthorizedCallContext",
            "inputs": []
        },
        {
            "type": "error",
            "name": "UUPSUnsupportedProxiableUUID",
            "inputs": [
                {
                    "name": "slot",
                    "type": "bytes32",
                    "internalType": "bytes32"
                }
            ]
        },
        {
            "type": "error",
            "name": "UnauthorizedAccess",
            "inputs": [
                {
                    "name": "account",
                    "type": "address",
                    "internalType": "address"
                }
            ]
        },
        {
            "type": "error",
            "name": "VaultNotDeployedByFactory",
            "inputs": [
                {
                    "name": "factory",
                    "type": "address",
                    "internalType": "address"
                }
            ]
        },
        {
            "type": "error",
            "name": "VaultNotFound",
            "inputs": []
        }
    ],
    "bytecode": {
        "object": "0x60a0604052306080523480156200001557600080fd5b506200002062000026565b620000da565b7ff0c57e16840df040f15088dc2f81fe391c3923bec73e23a9662efc9c229c6a00805468010000000000000000900460ff1615620000775760405163f92ee8a960e01b815260040160405180910390fd5b80546001600160401b0390811614620000d75780546001600160401b0319166001600160401b0390811782556040519081527fc7f505b2f371ae2175ee4913f4499e1f2633a7b5936321eed1cdaeb6115181d29060200160405180910390a15b50565b6080516131f36200010460003960008181611bf701528181611c210152611d6d01526131f36000f3fe6080604052600436106200020a5760003560e01c806390229af71162000117578063cb2ef6f711620000a1578063d547741f116200006c578063d547741f1462000643578063dce0b4e41462000668578063efdcd9741462000696578063f72c0d8b14620006bb57600080fd5b8063cb2ef6f714620005a2578063d258877d14620005dd578063d3fb93591462000602578063d4b583a0146200061a57600080fd5b8063a7ae316e11620000e2578063a7ae316e146200051b578063ad3cb1cc1462000532578063b3f006741462000565578063b429afeb146200057d57600080fd5b806390229af7146200048657806391d1485414620004ba57806394323c8214620004df578063a217fddf146200050457600080fd5b80634f1ef286116200019957806373c31134116200016457806373c3113414620003f35780638577117214620004185780638d654023146200043d5780638da5cb5b146200045557600080fd5b80634f1ef286146200035d57806352d1902d146200037457806354fd4d50146200038c57806368f20d1d14620003ce57600080fd5b80631cda77de11620001da5780631cda77de14620002c9578063248a9ca314620002ee5780632f2ff15d146200031357806336568abe146200033857600080fd5b80624acae1146200020f57806301ffc9a71462000236578063025b22bc1462000270578063092c5b3b1462000295575b600080fd5b3480156200021c57600080fd5b50620002346200022e36600462002448565b620006e0565b005b3480156200024357600080fd5b506200025b6200025536600462002468565b6200079d565b60405190151581526020015b60405180910390f35b3480156200027d57600080fd5b50620002346200028f36600462002448565b620007d5565b348015620002a257600080fd5b50620002ba6000805160206200311e83398151915281565b60405190815260200162000267565b348015620002d657600080fd5b5062000234620002e836600462002448565b6200088f565b348015620002fb57600080fd5b50620002ba6200030d36600462002494565b62000a0a565b3480156200032057600080fd5b506200023462000332366004620024ae565b62000a2d565b3480156200034557600080fd5b506200023462000357366004620024ae565b62000a55565b620002346200036e366004620025c5565b62000a90565b3480156200038157600080fd5b50620002ba62000ab5565b3480156200039957600080fd5b50620003bf60405180604001604052806005815260200164302e302e3160d81b81525081565b60405162000267919062002684565b348015620003db57600080fd5b5062000234620003ed36600462002699565b62000ad5565b3480156200040057600080fd5b506200023462000412366004620026bc565b62000b7a565b3480156200042557600080fd5b50620002346200043736600462002448565b62000d8b565b3480156200044a57600080fd5b50620002ba62000def565b3480156200046257600080fd5b506200046d62000e04565b6040516001600160a01b03909116815260200162000267565b3480156200049357600080fd5b50620004ab620004a536600462002448565b62000e1f565b604051620002679190620027b7565b348015620004c757600080fd5b506200025b620004d9366004620024ae565b62001085565b348015620004ec57600080fd5b5062000234620004fe36600462002448565b620010be565b3480156200051157600080fd5b50620002ba600081565b6200046d6200052c366004620027db565b620012a5565b3480156200053f57600080fd5b50620003bf604051806040016040528060058152602001640352e302e360dc1b81525081565b3480156200057257600080fd5b506200046d62001700565b3480156200058a57600080fd5b506200025b6200059c36600462002448565b6200171e565b348015620005af57600080fd5b50620003bf6040518060400160405280600d81526020016c5641554c5420464143544f525960981b81525081565b348015620005ea57600080fd5b5062000234620005fc36600462002448565b6200174f565b3480156200060f57600080fd5b506200046d62001799565b3480156200062757600080fd5b5062000632620017b7565b60405162000267939291906200286f565b3480156200065057600080fd5b506200023462000662366004620024ae565b620018bc565b3480156200067557600080fd5b5062000680620018de565b6040805192835260208301919091520162000267565b348015620006a357600080fd5b5062000234620006b536600462002448565b6200195a565b348015620006c857600080fd5b50620002ba6000805160206200313e83398151915281565b620006ea62001a14565b6000620006f78162001a4e565b6001600160a01b0382166200071f5760405163114a079360e21b815260040160405180910390fd5b60006200072b62001a5a565b6005810180546001600160a01b038681166001600160a01b0319831681179093556040519394501691829033907f92e3e529fc2d5c63e0ab27bbcf48f5fc3f020225b03cc96ce126bcba5c7f44b890600090a45050506200079a60016000805160206200319e83398151915255565b50565b60006001600160e01b03198216637965db0b60e01b1480620007cf57506301ffc9a760e01b6001600160e01b03198316145b92915050565b620007df62001a14565b6000620007ec8162001a4e565b6001600160a01b038216620008145760405163114a079360e21b815260040160405180910390fd5b60006200082062001a5a565b6001810180546001600160a01b038681166001600160a01b0319831681179093556040519394501691829033907fa4a6dd5df68e956c61e26f050572c12c667026351adb231907e688e5e317146790600090a45050506200079a60016000805160206200319e83398151915255565b6200089962001a14565b6000620008a68162001a4e565b6001600160a01b038216620008ce5760405163114a079360e21b815260040160405180910390fd5b6000620008da62001a5a565b80549091506001600160a01b031633811462000909576040516303f6762560e51b815260040160405180910390fd5b81546001600160a01b0319166001600160a01b0385161782556200092f60008262001abf565b506200094b6000805160206200313e8339815191528262001abf565b50620009676000805160206200311e8339815191528262001abf565b506200097560008562001b4b565b50620009916000805160206200313e8339815191528562001b4b565b50620009ad6000805160206200311e8339815191528562001b4b565b50836001600160a01b0316816001600160a01b03167f31c1e29790fe1809e375344cfe64f988152af527c070c6e9e3b9b1953ef02b2560405160405180910390a35050506200079a60016000805160206200319e83398151915255565b60009081526000805160206200317e833981519152602052604090206001015490565b62000a388262000a0a565b62000a438162001a4e565b62000a4f838362001b4b565b50505050565b6001600160a01b038116331462000a7f5760405163334bd91960e11b815260040160405180910390fd5b62000a8b828262001abf565b505050565b62000a9a62001bec565b62000aa58262001c80565b62000ab1828262001c9b565b5050565b600062000ac162001d62565b506000805160206200315e83398151915290565b62000adf62001a14565b600062000aec8162001a4e565b600062000af862001a5a565b600481018054600683018054928890558690559192508486336001600160a01b03167fb4adbd61507ce2d34f54b409b2e39d765b0cfab9729fc7cd5eddcbc6325df8b5858560405162000b55929190918252602082015260400190565b60405180910390a45050505062000ab160016000805160206200319e83398151915255565b7ff0c57e16840df040f15088dc2f81fe391c3923bec73e23a9662efc9c229c6a008054600160401b810460ff16159067ffffffffffffffff1660008115801562000bc15750825b905060008267ffffffffffffffff16600114801562000bdf5750303b155b90508115801562000bee575080155b1562000c0d5760405163f92ee8a960e01b815260040160405180910390fd5b845467ffffffffffffffff19166001178555831562000c3857845460ff60401b1916600160401b1785555b6001600160a01b038b16158062000c5657506001600160a01b038a16155b8062000c6957506001600160a01b038916155b8062000c7c57506001600160a01b038716155b1562000c9b5760405163114a079360e21b815260040160405180910390fd5b600062000ca762001a5a565b80546001600160a01b03808f166001600160a01b03199283161783556001830180548f83169084161790556002830180548e8316908416179055600483018c9055600583018054918c169190921617905560068101889055905062000d0e60008d62001b4b565b5062000d2a6000805160206200313e8339815191528d62001b4b565b5062000d368c62001dac565b50831562000d7e57845460ff60401b19168555604051600181527fc7f505b2f371ae2175ee4913f4499e1f2633a7b5936321eed1cdaeb6115181d29060200160405180910390a15b5050505050505050505050565b62000d9562001a14565b600062000da28162001a4e565b6001600160a01b03821662000dca5760405163114a079360e21b815260040160405180910390fd5b62000dd58262001dac565b506200079a60016000805160206200319e83398151915255565b600062000dfb62001a5a565b60030154905090565b600062000e1062001a5a565b546001600160a01b0316919050565b62000e7b6040518060e00160405280600081526020016060815260200160006001600160a01b031681526020016060815260200160006001600160a01b031681526020016000815260200160006001600160a01b031681525090565b62000e8562001ec9565b6001600160a01b03831660009081526020919091526040812060050154900362000ec25760405163dee790fb60e01b815260040160405180910390fd5b62000ecc62001ec9565b6000016000836001600160a01b03166001600160a01b031681526020019081526020016000206040518060e00160405290816000820154815260200160018201805462000f1990620028a9565b80601f016020809104026020016040519081016040528092919081815260200182805462000f4790620028a9565b801562000f985780601f1062000f6c5761010080835404028352916020019162000f98565b820191906000526020600020905b81548152906001019060200180831162000f7a57829003601f168201915b505050918352505060028201546001600160a01b0316602082015260038201805460409092019162000fca90620028a9565b80601f016020809104026020016040519081016040528092919081815260200182805462000ff890620028a9565b8015620010495780601f106200101d5761010080835404028352916020019162001049565b820191906000526020600020905b8154815290600101906020018083116200102b57829003601f168201915b505050918352505060048201546001600160a01b0390811660208301526005830154604083015260069092015490911660609091015292915050565b60009182526000805160206200317e833981519152602090815260408084206001600160a01b0393909316845291905290205460ff1690565b620010c862001a14565b60003390506000826001600160a01b0316637f98aa716040518163ffffffff1660e01b8152600401600060405180830381865afa1580156200110e573d6000803e3d6000fd5b505050506040513d6000823e601f3d908101601f1916820160405262001138919081019062002943565b905060006200114662001ec9565b6001600160a01b03808616600090815260209290925260409091206006810154909250163014620011915760405163f3e9cca160e01b81523060048201526024015b60405180910390fd5b6200119c836200171e565b80620011bd575081604001516001600160a01b0316836001600160a01b0316145b15620012675760208201516001820190620011d9908262002a7e565b506040808301516002830180546001600160a01b039283166001600160a01b0319918216179091556080850151600485018054919093169116179055516200122390839062002b4b565b604051908190038120906001600160a01b038516907fc480413cd7d892fe5e5a7576aa84e93cad5db3a2c057eba7d357e55abeef474690600090a35050506200128c565b604051633733be5960e21b81526001600160a01b038416600482015260240162001188565b6200079a60016000805160206200319e83398151915255565b6000620012b162001a14565b6001600160a01b0385161580620012cf57506001600160a01b038416155b15620012ee5760405163114a079360e21b815260040160405180910390fd5b33346000620012fc62001a5a565b9050620013098362001efc565b6200143657841562001344576005810154600682015460028301546001600160a01b0392831692620013419184918891168462001f42565b50505b8415801562001357575080600401548214155b156200137657604051635623662d60e01b815260040160405180910390fd5b84158015620013855750600082115b15620014365760028101546040516000916001600160a01b03169084908381818185875af1925050503d8060008114620013dc576040519150601f19603f3d011682016040523d82523d6000602084013e620013e1565b606091505b5050905080620014345760405162461bcd60e51b815260206004820152601760248201527f5061796d656e74205472616e73666572204661696c6564000000000000000000604482015260640162001188565b505b6000816003015460016200144b919062002c06565b60018301546040805163054fd4d560e41b8152905192935042926000926001600160a01b0316916354fd4d5091600480830192869291908290030181865afa1580156200149c573d6000803e3d6000fd5b505050506040513d6000823e601f3d908101601f19168201604052620014c6919081019062002c1c565b905060006040518060e001604052808581526020018381526020018d6001600160a01b031681526020018b81526020018c6001600160a01b03168152602001848152602001306001600160a01b03168152509050600185600301600082825462001531919062002c06565b9091555050604080820151905160009163dc790b7360e01b916200155b9190859060240162002c55565b60408051601f198184030181529181526020820180516001600160e01b03166001600160e01b031990941693909317909252600188015491519092506000916001600160a01b0316908390620015b19062002424565b620015be92919062002c7b565b604051809103906000f080158015620015db573d6000803e3d6000fd5b50905082620015e962001ec9565b6001600160a01b0383166000908152602091825260409020825181559082015160018201906200161a908262002a7e565b5060408201516002820180546001600160a01b0319166001600160a01b039092169190911790556060820151600382019062001657908262002a7e565b5060808201516004820180546001600160a01b03199081166001600160a01b039384161790915560a0840151600584015560c0909301516006909201805490931691811691909117909155604051429183811691908c16907f0b045af6aff86dd2cda5342fd0329a354dc66759ff1eda00d7ecf13a76c7fb3b90600090a498505050505050505050620016f860016000805160206200319e83398151915255565b949350505050565b60006200170c62001a5a565b600201546001600160a01b0316919050565b60006200172a62001ec9565b6001600160a01b03909216600090815260019290920160205250604090205460ff1690565b6200175962001a14565b6000620017668162001a4e565b6001600160a01b0382166200178e5760405163114a079360e21b815260040160405180910390fd5b62000dd58262001f9e565b6000620017a562001a5a565b600501546001600160a01b0316919050565b60006060806000620017c862001a5a565b60018101546040805163cb2ef6f760e01b815290519293506001600160a01b03909116918291829163cb2ef6f7916004808201926000929091908290030181865afa1580156200181c573d6000803e3d6000fd5b505050506040513d6000823e601f3d908101601f1916820160405262001846919081019062002c1c565b826001600160a01b03166354fd4d506040518163ffffffff1660e01b8152600401600060405180830381865afa15801562001885573d6000803e3d6000fd5b505050506040513d6000823e601f3d908101601f19168201604052620018af919081019062002c1c565b9450945094505050909192565b620018c78262000a0a565b620018d28162001a4e565b62000a4f838362001abf565b6000806000620018ed62001a5a565b6040805160e08101825282546001600160a01b039081168252600184015481166020830152600284015481169282019290925260038301546060820152600483015460808201819052600584015490921660a082015260069092015460c090920182905294909350915050565b6200196462001a14565b6000620019718162001a4e565b6001600160a01b038216620019995760405163114a079360e21b815260040160405180910390fd5b6000620019a562001a5a565b6002810180546001600160a01b038681166001600160a01b0319831681179093556040519394501691829033907f05f7659b5cb6c2c7347035c51825afefca11c87e677814eebbeb0dc1d492e68c90600090a45050506200079a60016000805160206200319e83398151915255565b6000805160206200319e83398151915280546001190162001a4857604051633ee5aeb560e01b815260040160405180910390fd5b60029055565b6200079a8133620020bb565b60008060ff1962001a8d60017f351b3c8e237bf3a716fbe9ee45a65225d359ef89a15bb4aa1b4b74b4356ceead62002ca1565b60405160200162001aa091815260200190565b60408051601f1981840301815291905280516020909101201692915050565b60006000805160206200317e83398151915262001add848462001085565b1562001b40576000848152602082815260408083206001600160a01b0387168085529252808320805460ff1916905551339287917ff6391f5c32d9c69d2a47ea670b442974b53935d1edc7fd64eb21e047a839171b9190a46001915050620007cf565b6000915050620007cf565b60006000805160206200317e83398151915262001b69848462001085565b62001b40576000848152602082815260408083206001600160a01b03871684529091529020805460ff1916600117905562001ba13390565b6001600160a01b0316836001600160a01b0316857f2f8788117e7eff1d82e926ec794901d17c78024a50270940304540a733656f0d60405160405180910390a46001915050620007cf565b306001600160a01b037f000000000000000000000000000000000000000000000000000000000000000016148062001c5f57507f00000000000000000000000000000000000000000000000000000000000000006001600160a01b031662001c53620020f8565b6001600160a01b031614155b1562001c7e5760405163703e46dd60e11b815260040160405180910390fd5b565b6000805160206200313e83398151915262000ab18162001a4e565b816001600160a01b03166352d1902d6040518163ffffffff1660e01b8152600401602060405180830381865afa92505050801562001cf8575060408051601f3d908101601f1916820190925262001cf59181019062002cb7565b60015b62001d2257604051634c9c8ce360e01b81526001600160a01b038316600482015260240162001188565b6000805160206200315e833981519152811462001d5657604051632a87526960e21b81526004810182905260240162001188565b62000a8b838362002110565b306001600160a01b037f0000000000000000000000000000000000000000000000000000000000000000161462001c7e5760405163703e46dd60e11b815260040160405180910390fd5b3362001dc86000805160206200311e8339815191528362001b4b565b506040518060a00160405280600115158152602001836001600160a01b03168152602001826001600160a01b0316815260200160008152602001600081525062001e1162001ec9565b6001600160a01b03848116600081815260019384016020908152604080832087518154938901516001600160a81b0319909416901515610100600160a81b03191617610100938716939093029290921782558681015195820180546001600160a01b031916968616969096179095556060860151600282015560809095015160039095019490945591519192908416917f7b9c8b9efe397fb771c7c860a9f9f8722bc3797e38e4641d3e2f6c0bf55acbd59190a35050565b60008060ff1962001a8d60017ff606f5a8cc3acfd846fe0e8e5c2637a92463acd449cca1db5e896f3bc8e24cf762002ca1565b600062001f0a818362001085565b8062001f2c575062001f2c6000805160206200311e8339815191528362001085565b1562001f3a57506001919050565b506000919050565b604080516001600160a01b0385811660248301528416604482015260648082018490528251808303909101815260849091019091526020810180516001600160e01b03166323b872dd60e01b17905262000a4f9085906200216d565b3362001fba6000805160206200311e8339815191528362001abf565b506040518060a00160405280600015158152602001836001600160a01b03168152602001826001600160a01b031681526020016000815260200160008152506200200362001ec9565b6001600160a01b03848116600081815260019384016020908152604080832087518154938901516001600160a81b0319909416901515610100600160a81b03191617610100938716939093029290921782558681015195820180546001600160a01b031916968616969096179095556060860151600282015560809095015160039095019490945591519192908416917fa9fcffc2fbd770d6f8195447d01e38a19ed4022313ab51b5e899060a8d7bfca39190a35050565b620020c7828262001085565b62000ab15760405163e2517d3f60e01b81526001600160a01b03821660048201526024810183905260440162001188565b60006000805160206200315e83398151915262000e10565b6200211b82620021d7565b6040516001600160a01b038316907fbc7cd75a20ee27fd9adebab32041f755214dbc6bffa90cc0225b39da2e5c2d3b90600090a2805115620021635762000a8b82826200223f565b62000ab1620022bb565b6000620021846001600160a01b03841683620022db565b90508051600014158015620021ac575080806020019051810190620021aa919062002cd1565b155b1562000a8b57604051635274afe760e01b81526001600160a01b038416600482015260240162001188565b806001600160a01b03163b6000036200220f57604051634c9c8ce360e01b81526001600160a01b038216600482015260240162001188565b6000805160206200315e83398151915280546001600160a01b0319166001600160a01b0392909216919091179055565b6060600080846001600160a01b0316846040516200225e919062002cf1565b600060405180830381855af49150503d80600081146200229b576040519150601f19603f3d011682016040523d82523d6000602084013e620022a0565b606091505b5091509150620022b2858383620022f2565b95945050505050565b341562001c7e5760405163b398979f60e01b815260040160405180910390fd5b6060620022eb8383600062002355565b9392505050565b6060826200230b576200230582620023fa565b620022eb565b81511580156200232357506001600160a01b0384163b155b156200234e57604051639996b31560e01b81526001600160a01b038516600482015260240162001188565b5092915050565b6060814710156200237c5760405163cd78605960e01b815230600482015260240162001188565b600080856001600160a01b031684866040516200239a919062002cf1565b60006040518083038185875af1925050503d8060008114620023d9576040519150601f19603f3d011682016040523d82523d6000602084013e620023de565b606091505b5091509150620023f0868383620022f2565b9695505050505050565b8051156200240b5780518082602001fd5b604051630a12f52160e11b815260040160405180910390fd5b61040e8062002d1083390190565b6001600160a01b03811681146200079a57600080fd5b6000602082840312156200245b57600080fd5b8135620022eb8162002432565b6000602082840312156200247b57600080fd5b81356001600160e01b031981168114620022eb57600080fd5b600060208284031215620024a757600080fd5b5035919050565b60008060408385031215620024c257600080fd5b823591506020830135620024d68162002432565b809150509250929050565b634e487b7160e01b600052604160045260246000fd5b60405160e0810167ffffffffffffffff811182821017156200251d576200251d620024e1565b60405290565b604051601f8201601f1916810167ffffffffffffffff811182821017156200254f576200254f620024e1565b604052919050565b600067ffffffffffffffff821115620025745762002574620024e1565b50601f01601f191660200190565b600062002599620025938462002557565b62002523565b9050828152838383011115620025ae57600080fd5b828260208301376000602084830101529392505050565b60008060408385031215620025d957600080fd5b8235620025e68162002432565b9150602083013567ffffffffffffffff8111156200260357600080fd5b8301601f810185136200261557600080fd5b620026268582356020840162002582565b9150509250929050565b60005b838110156200264d57818101518382015260200162002633565b50506000910152565b600081518084526200267081602086016020860162002630565b601f01601f19169290920160200192915050565b602081526000620022eb602083018462002656565b60008060408385031215620026ad57600080fd5b50508035926020909101359150565b60008060008060008060c08789031215620026d657600080fd5b8635620026e38162002432565b95506020870135620026f58162002432565b94506040870135620027078162002432565b9350606087013592506080870135620027208162002432565b8092505060a087013590509295509295509295565b805182526000602082015160e060208501526200275660e085018262002656565b9050604083015160018060a01b03808216604087015260608501519150858303606087015262002787838362002656565b925080608086015116608087015260a085015160a08701528060c08601511660c087015250508091505092915050565b602081526000620022eb602083018462002735565b80151581146200079a57600080fd5b60008060008060808587031215620027f257600080fd5b8435620027ff8162002432565b93506020850135620028118162002432565b9250604085013567ffffffffffffffff8111156200282e57600080fd5b8501601f810187136200284057600080fd5b620028518782356020840162002582565b92505060608501356200286481620027cc565b939692955090935050565b6001600160a01b0384168152606060208201819052600090620028959083018562002656565b8281036040840152620023f0818562002656565b600181811c90821680620028be57607f821691505b602082108103620028df57634e487b7160e01b600052602260045260246000fd5b50919050565b600082601f830112620028f757600080fd5b815162002908620025938262002557565b8181528460208386010111156200291e57600080fd5b620016f882602083016020870162002630565b80516200293e8162002432565b919050565b6000602082840312156200295657600080fd5b815167ffffffffffffffff808211156200296f57600080fd5b9083019060e082860312156200298457600080fd5b6200298e620024f7565b82518152602083015182811115620029a557600080fd5b620029b387828601620028e5565b602083015250620029c76040840162002931565b6040820152606083015182811115620029df57600080fd5b620029ed87828601620028e5565b60608301525062002a016080840162002931565b608082015260a083015160a082015262002a1e60c0840162002931565b60c082015295945050505050565b601f82111562000a8b57600081815260208120601f850160051c8101602086101562002a555750805b601f850160051c820191505b8181101562002a765782815560010162002a61565b505050505050565b815167ffffffffffffffff81111562002a9b5762002a9b620024e1565b62002ab38162002aac8454620028a9565b8462002a2c565b602080601f83116001811462002aeb576000841562002ad25750858301515b600019600386901b1c1916600185901b17855562002a76565b600085815260208120601f198616915b8281101562002b1c5788860151825594840194600190910190840162002afb565b508582101562002b3b5787850151600019600388901b60f8161c191681555b5050505050600190811b01905550565b8151815260006020830151805162002b6b81602086016020850162002630565b601f19915081601f8201168401905060018060a01b038060408701511660208301526060860151805162002ba781604086016020850162002630565b84601f8201168401945050508060808701511660408401525050620016f862002bda6060830160a0870151815260200190565b60c08601516001600160a01b0316815260200190565b634e487b7160e01b600052601160045260246000fd5b80820180821115620007cf57620007cf62002bf0565b60006020828403121562002c2f57600080fd5b815167ffffffffffffffff81111562002c4757600080fd5b620016f884828501620028e5565b6001600160a01b0383168152604060208201819052600090620016f89083018462002735565b6001600160a01b0383168152604060208201819052600090620016f89083018462002656565b81810381811115620007cf57620007cf62002bf0565b60006020828403121562002cca57600080fd5b5051919050565b60006020828403121562002ce457600080fd5b8151620022eb81620027cc565b6000825162002d0581846020870162002630565b919091019291505056fe608060405260405161040e38038061040e8339810160408190526100229161026c565b818161002e8282610037565b50505050610356565b61004082610096565b6040516001600160a01b038316907fbc7cd75a20ee27fd9adebab32041f755214dbc6bffa90cc0225b39da2e5c2d3b90600090a280511561008a576100858282610112565b505050565b610092610189565b5050565b806001600160a01b03163b6000036100d157604051634c9c8ce360e01b81526001600160a01b03821660048201526024015b60405180910390fd5b7f360894a13ba1a3210667c828492db98dca3e2076cc3735a920a3ca505d382bbc80546001600160a01b0319166001600160a01b0392909216919091179055565b6060600080846001600160a01b03168460405161012f919061033a565b600060405180830381855af49150503d806000811461016a576040519150601f19603f3d011682016040523d82523d6000602084013e61016f565b606091505b5090925090506101808583836101aa565b95945050505050565b34156101a85760405163b398979f60e01b815260040160405180910390fd5b565b6060826101bf576101ba82610209565b610202565b81511580156101d657506001600160a01b0384163b155b156101ff57604051639996b31560e01b81526001600160a01b03851660048201526024016100c8565b50805b9392505050565b8051156102195780518082602001fd5b604051630a12f52160e11b815260040160405180910390fd5b634e487b7160e01b600052604160045260246000fd5b60005b8381101561026357818101518382015260200161024b565b50506000910152565b6000806040838503121561027f57600080fd5b82516001600160a01b038116811461029657600080fd5b60208401519092506001600160401b03808211156102b357600080fd5b818501915085601f8301126102c757600080fd5b8151818111156102d9576102d9610232565b604051601f8201601f19908116603f0116810190838211818310171561030157610301610232565b8160405282815288602084870101111561031a57600080fd5b61032b836020830160208801610248565b80955050505050509250929050565b6000825161034c818460208701610248565b9190910192915050565b60aa806103646000396000f3fe6080604052600a600c565b005b60186014601a565b6051565b565b6000604c7f360894a13ba1a3210667c828492db98dca3e2076cc3735a920a3ca505d382bbc546001600160a01b031690565b905090565b3660008037600080366000845af43d6000803e808015606f573d6000f35b3d6000fdfea2646970667358221220d26294410ac74ebe5886d54cdd7c7134e5c15af061fd86296700823988dc7ac864736f6c634300081400337b765e0e932d348852a6f810bfa1ab891e259123f02db8cdcde614c570223357189ab7a9244df0848122154315af71fe140f3db0fe014031783b0946b8c9d2e3360894a13ba1a3210667c828492db98dca3e2076cc3735a920a3ca505d382bbc02dd7bc7dec4dceedda775e58dd541e08a116c6c53815c0bd028192f7b6268009b779b17422d0df92223018b32b4d1fa46e071723d6817e2486d003becc55f00a264697066735822122055c2afea2479cd6a92c9a56854ae9cb6c894625eaaa1fb4defdcf4637bf8b87c64736f6c63430008140033",
        "linkReferences": {}
    },
    "methodIdentifiers": {
        "CONTROLLER_ROLE()": "092c5b3b",
        "DEFAULT_ADMIN_ROLE()": "a217fddf",
        "UPGRADER_ROLE()": "f72c0d8b",
        "UPGRADE_INTERFACE_VERSION()": "ad3cb1cc",
        "changeVaultFactoryOwner(address)": "1cda77de",
        "contractType()": "cb2ef6f7",
        "createVault(address,address,string,bool)": "a7ae316e",
        "creationFee()": "dce0b4e4",
        "erc20PaymentToken()": "d3fb9359",
        "feeReceiver()": "b3f00674",
        "getImplementationDetails()": "d4b583a0",
        "getRoleAdmin(bytes32)": "248a9ca3",
        "getVaultInfo(address)": "90229af7",
        "grantPermit(address)": "85771172",
        "grantRole(bytes32,address)": "2f2ff15d",
        "hasRole(bytes32,address)": "91d14854",
        "initialize(address,address,address,uint256,address,uint256)": "73c31134",
        "isController(address)": "b429afeb",
        "owner()": "8da5cb5b",
        "proxiableUUID()": "52d1902d",
        "renounceRole(bytes32,address)": "36568abe",
        "revokePermit(address)": "d258877d",
        "revokeRole(bytes32,address)": "d547741f",
        "setERC20PaymentToken(address)": "004acae1",
        "setFeeReceiver(address)": "efdcd974",
        "supportsInterface(bytes4)": "01ffc9a7",
        "totalVaults()": "8d654023",
        "updateCreationFee(uint256,uint256)": "68f20d1d",
        "updateImplementation(address)": "025b22bc",
        "updateVaultInfo(address)": "94323c82",
        "upgradeToAndCall(address,bytes)": "4f1ef286",
        "version()": "54fd4d50"
    },
    "storageLayout": {
        "storage": [],
        "types": {}
    },
    "id": 120
}