{
    "abi": [
        {
            "type": "constructor",
            "inputs": [
                {
                    "name": "initialOwner",
                    "type": "address",
                    "internalType": "address"
                }
            ],
            "stateMutability": "nonpayable"
        },
        {
            "type": "function",
            "name": "DOMAIN_SEPARATOR",
            "inputs": [],
            "outputs": [
                {
                    "name": "",
                    "type": "bytes32",
                    "internalType": "bytes32"
                }
            ],
            "stateMutability": "view"
        },
        {
            "type": "function",
            "name": "allowance",
            "inputs": [
                {
                    "name": "owner",
                    "type": "address",
                    "internalType": "address"
                },
                {
                    "name": "spender",
                    "type": "address",
                    "internalType": "address"
                }
            ],
            "outputs": [
                {
                    "name": "",
                    "type": "uint256",
                    "internalType": "uint256"
                }
            ],
            "stateMutability": "view"
        },
        {
            "type": "function",
            "name": "approve",
            "inputs": [
                {
                    "name": "spender",
                    "type": "address",
                    "internalType": "address"
                },
                {
                    "name": "value",
                    "type": "uint256",
                    "internalType": "uint256"
                }
            ],
            "outputs": [
                {
                    "name": "",
                    "type": "bool",
                    "internalType": "bool"
                }
            ],
            "stateMutability": "nonpayable"
        },
        {
            "type": "function",
            "name": "balanceOf",
            "inputs": [
                {
                    "name": "account",
                    "type": "address",
                    "internalType": "address"
                }
            ],
            "outputs": [
                {
                    "name": "",
                    "type": "uint256",
                    "internalType": "uint256"
                }
            ],
            "stateMutability": "view"
        },
        {
            "type": "function",
            "name": "burn",
            "inputs": [
                {
                    "name": "value",
                    "type": "uint256",
                    "internalType": "uint256"
                }
            ],
            "outputs": [],
            "stateMutability": "nonpayable"
        },
        {
            "type": "function",
            "name": "burnFrom",
            "inputs": [
                {
                    "name": "account",
                    "type": "address",
                    "internalType": "address"
                },
                {
                    "name": "value",
                    "type": "uint256",
                    "internalType": "uint256"
                }
            ],
            "outputs": [],
            "stateMutability": "nonpayable"
        },
        {
            "type": "function",
            "name": "decimals",
            "inputs": [],
            "outputs": [
                {
                    "name": "",
                    "type": "uint8",
                    "internalType": "uint8"
                }
            ],
            "stateMutability": "view"
        },
        {
            "type": "function",
            "name": "eip712Domain",
            "inputs": [],
            "outputs": [
                {
                    "name": "fields",
                    "type": "bytes1",
                    "internalType": "bytes1"
                },
                {
                    "name": "name",
                    "type": "string",
                    "internalType": "string"
                },
                {
                    "name": "version",
                    "type": "string",
                    "internalType": "string"
                },
                {
                    "name": "chainId",
                    "type": "uint256",
                    "internalType": "uint256"
                },
                {
                    "name": "verifyingContract",
                    "type": "address",
                    "internalType": "address"
                },
                {
                    "name": "salt",
                    "type": "bytes32",
                    "internalType": "bytes32"
                },
                {
                    "name": "extensions",
                    "type": "uint256[]",
                    "internalType": "uint256[]"
                }
            ],
            "stateMutability": "view"
        },
        {
            "type": "function",
            "name": "flashFee",
            "inputs": [
                {
                    "name": "token",
                    "type": "address",
                    "internalType": "address"
                },
                {
                    "name": "value",
                    "type": "uint256",
                    "internalType": "uint256"
                }
            ],
            "outputs": [
                {
                    "name": "",
                    "type": "uint256",
                    "internalType": "uint256"
                }
            ],
            "stateMutability": "view"
        },
        {
            "type": "function",
            "name": "flashLoan",
            "inputs": [
                {
                    "name": "receiver",
                    "type": "address",
                    "internalType": "contract IERC3156FlashBorrower"
                },
                {
                    "name": "token",
                    "type": "address",
                    "internalType": "address"
                },
                {
                    "name": "value",
                    "type": "uint256",
                    "internalType": "uint256"
                },
                {
                    "name": "data",
                    "type": "bytes",
                    "internalType": "bytes"
                }
            ],
            "outputs": [
                {
                    "name": "",
                    "type": "bool",
                    "internalType": "bool"
                }
            ],
            "stateMutability": "nonpayable"
        },
        {
            "type": "function",
            "name": "maxFlashLoan",
            "inputs": [
                {
                    "name": "token",
                    "type": "address",
                    "internalType": "address"
                }
            ],
            "outputs": [
                {
                    "name": "",
                    "type": "uint256",
                    "internalType": "uint256"
                }
            ],
            "stateMutability": "view"
        },
        {
            "type": "function",
            "name": "mint",
            "inputs": [
                {
                    "name": "to",
                    "type": "address",
                    "internalType": "address"
                },
                {
                    "name": "amount",
                    "type": "uint256",
                    "internalType": "uint256"
                }
            ],
            "outputs": [],
            "stateMutability": "nonpayable"
        },
        {
            "type": "function",
            "name": "name",
            "inputs": [],
            "outputs": [
                {
                    "name": "",
                    "type": "string",
                    "internalType": "string"
                }
            ],
            "stateMutability": "view"
        },
        {
            "type": "function",
            "name": "nonces",
            "inputs": [
                {
                    "name": "owner",
                    "type": "address",
                    "internalType": "address"
                }
            ],
            "outputs": [
                {
                    "name": "",
                    "type": "uint256",
                    "internalType": "uint256"
                }
            ],
            "stateMutability": "view"
        },
        {
            "type": "function",
            "name": "owner",
            "inputs": [],
            "outputs": [
                {
                    "name": "",
                    "type": "address",
                    "internalType": "address"
                }
            ],
            "stateMutability": "view"
        },
        {
            "type": "function",
            "name": "pause",
            "inputs": [],
            "outputs": [],
            "stateMutability": "nonpayable"
        },
        {
            "type": "function",
            "name": "paused",
            "inputs": [],
            "outputs": [
                {
                    "name": "",
                    "type": "bool",
                    "internalType": "bool"
                }
            ],
            "stateMutability": "view"
        },
        {
            "type": "function",
            "name": "permit",
            "inputs": [
                {
                    "name": "owner",
                    "type": "address",
                    "internalType": "address"
                },
                {
                    "name": "spender",
                    "type": "address",
                    "internalType": "address"
                },
                {
                    "name": "value",
                    "type": "uint256",
                    "internalType": "uint256"
                },
                {
                    "name": "deadline",
                    "type": "uint256",
                    "internalType": "uint256"
                },
                {
                    "name": "v",
                    "type": "uint8",
                    "internalType": "uint8"
                },
                {
                    "name": "r",
                    "type": "bytes32",
                    "internalType": "bytes32"
                },
                {
                    "name": "s",
                    "type": "bytes32",
                    "internalType": "bytes32"
                }
            ],
            "outputs": [],
            "stateMutability": "nonpayable"
        },
        {
            "type": "function",
            "name": "renounceOwnership",
            "inputs": [],
            "outputs": [],
            "stateMutability": "nonpayable"
        },
        {
            "type": "function",
            "name": "symbol",
            "inputs": [],
            "outputs": [
                {
                    "name": "",
                    "type": "string",
                    "internalType": "string"
                }
            ],
            "stateMutability": "view"
        },
        {
            "type": "function",
            "name": "totalSupply",
            "inputs": [],
            "outputs": [
                {
                    "name": "",
                    "type": "uint256",
                    "internalType": "uint256"
                }
            ],
            "stateMutability": "view"
        },
        {
            "type": "function",
            "name": "transfer",
            "inputs": [
                {
                    "name": "to",
                    "type": "address",
                    "internalType": "address"
                },
                {
                    "name": "value",
                    "type": "uint256",
                    "internalType": "uint256"
                }
            ],
            "outputs": [
                {
                    "name": "",
                    "type": "bool",
                    "internalType": "bool"
                }
            ],
            "stateMutability": "nonpayable"
        },
        {
            "type": "function",
            "name": "transferFrom",
            "inputs": [
                {
                    "name": "from",
                    "type": "address",
                    "internalType": "address"
                },
                {
                    "name": "to",
                    "type": "address",
                    "internalType": "address"
                },
                {
                    "name": "value",
                    "type": "uint256",
                    "internalType": "uint256"
                }
            ],
            "outputs": [
                {
                    "name": "",
                    "type": "bool",
                    "internalType": "bool"
                }
            ],
            "stateMutability": "nonpayable"
        },
        {
            "type": "function",
            "name": "transferOwnership",
            "inputs": [
                {
                    "name": "newOwner",
                    "type": "address",
                    "internalType": "address"
                }
            ],
            "outputs": [],
            "stateMutability": "nonpayable"
        },
        {
            "type": "function",
            "name": "unpause",
            "inputs": [],
            "outputs": [],
            "stateMutability": "nonpayable"
        },
        {
            "type": "event",
            "name": "Approval",
            "inputs": [
                {
                    "name": "owner",
                    "type": "address",
                    "indexed": true,
                    "internalType": "address"
                },
                {
                    "name": "spender",
                    "type": "address",
                    "indexed": true,
                    "internalType": "address"
                },
                {
                    "name": "value",
                    "type": "uint256",
                    "indexed": false,
                    "internalType": "uint256"
                }
            ],
            "anonymous": false
        },
        {
            "type": "event",
            "name": "EIP712DomainChanged",
            "inputs": [],
            "anonymous": false
        },
        {
            "type": "event",
            "name": "OwnershipTransferred",
            "inputs": [
                {
                    "name": "previousOwner",
                    "type": "address",
                    "indexed": true,
                    "internalType": "address"
                },
                {
                    "name": "newOwner",
                    "type": "address",
                    "indexed": true,
                    "internalType": "address"
                }
            ],
            "anonymous": false
        },
        {
            "type": "event",
            "name": "Paused",
            "inputs": [
                {
                    "name": "account",
                    "type": "address",
                    "indexed": false,
                    "internalType": "address"
                }
            ],
            "anonymous": false
        },
        {
            "type": "event",
            "name": "Transfer",
            "inputs": [
                {
                    "name": "from",
                    "type": "address",
                    "indexed": true,
                    "internalType": "address"
                },
                {
                    "name": "to",
                    "type": "address",
                    "indexed": true,
                    "internalType": "address"
                },
                {
                    "name": "value",
                    "type": "uint256",
                    "indexed": false,
                    "internalType": "uint256"
                }
            ],
            "anonymous": false
        },
        {
            "type": "event",
            "name": "Unpaused",
            "inputs": [
                {
                    "name": "account",
                    "type": "address",
                    "indexed": false,
                    "internalType": "address"
                }
            ],
            "anonymous": false
        },
        {
            "type": "error",
            "name": "ECDSAInvalidSignature",
            "inputs": []
        },
        {
            "type": "error",
            "name": "ECDSAInvalidSignatureLength",
            "inputs": [
                {
                    "name": "length",
                    "type": "uint256",
                    "internalType": "uint256"
                }
            ]
        },
        {
            "type": "error",
            "name": "ECDSAInvalidSignatureS",
            "inputs": [
                {
                    "name": "s",
                    "type": "bytes32",
                    "internalType": "bytes32"
                }
            ]
        },
        {
            "type": "error",
            "name": "ERC20InsufficientAllowance",
            "inputs": [
                {
                    "name": "spender",
                    "type": "address",
                    "internalType": "address"
                },
                {
                    "name": "allowance",
                    "type": "uint256",
                    "internalType": "uint256"
                },
                {
                    "name": "needed",
                    "type": "uint256",
                    "internalType": "uint256"
                }
            ]
        },
        {
            "type": "error",
            "name": "ERC20InsufficientBalance",
            "inputs": [
                {
                    "name": "sender",
                    "type": "address",
                    "internalType": "address"
                },
                {
                    "name": "balance",
                    "type": "uint256",
                    "internalType": "uint256"
                },
                {
                    "name": "needed",
                    "type": "uint256",
                    "internalType": "uint256"
                }
            ]
        },
        {
            "type": "error",
            "name": "ERC20InvalidApprover",
            "inputs": [
                {
                    "name": "approver",
                    "type": "address",
                    "internalType": "address"
                }
            ]
        },
        {
            "type": "error",
            "name": "ERC20InvalidReceiver",
            "inputs": [
                {
                    "name": "receiver",
                    "type": "address",
                    "internalType": "address"
                }
            ]
        },
        {
            "type": "error",
            "name": "ERC20InvalidSender",
            "inputs": [
                {
                    "name": "sender",
                    "type": "address",
                    "internalType": "address"
                }
            ]
        },
        {
            "type": "error",
            "name": "ERC20InvalidSpender",
            "inputs": [
                {
                    "name": "spender",
                    "type": "address",
                    "internalType": "address"
                }
            ]
        },
        {
            "type": "error",
            "name": "ERC2612ExpiredSignature",
            "inputs": [
                {
                    "name": "deadline",
                    "type": "uint256",
                    "internalType": "uint256"
                }
            ]
        },
        {
            "type": "error",
            "name": "ERC2612InvalidSigner",
            "inputs": [
                {
                    "name": "signer",
                    "type": "address",
                    "internalType": "address"
                },
                {
                    "name": "owner",
                    "type": "address",
                    "internalType": "address"
                }
            ]
        },
        {
            "type": "error",
            "name": "ERC3156ExceededMaxLoan",
            "inputs": [
                {
                    "name": "maxLoan",
                    "type": "uint256",
                    "internalType": "uint256"
                }
            ]
        },
        {
            "type": "error",
            "name": "ERC3156InvalidReceiver",
            "inputs": [
                {
                    "name": "receiver",
                    "type": "address",
                    "internalType": "address"
                }
            ]
        },
        {
            "type": "error",
            "name": "ERC3156UnsupportedToken",
            "inputs": [
                {
                    "name": "token",
                    "type": "address",
                    "internalType": "address"
                }
            ]
        },
        {
            "type": "error",
            "name": "EnforcedPause",
            "inputs": []
        },
        {
            "type": "error",
            "name": "ExpectedPause",
            "inputs": []
        },
        {
            "type": "error",
            "name": "InvalidAccountNonce",
            "inputs": [
                {
                    "name": "account",
                    "type": "address",
                    "internalType": "address"
                },
                {
                    "name": "currentNonce",
                    "type": "uint256",
                    "internalType": "uint256"
                }
            ]
        },
        {
            "type": "error",
            "name": "InvalidShortString",
            "inputs": []
        },
        {
            "type": "error",
            "name": "OwnableInvalidOwner",
            "inputs": [
                {
                    "name": "owner",
                    "type": "address",
                    "internalType": "address"
                }
            ]
        },
        {
            "type": "error",
            "name": "OwnableUnauthorizedAccount",
            "inputs": [
                {
                    "name": "account",
                    "type": "address",
                    "internalType": "address"
                }
            ]
        },
        {
            "type": "error",
            "name": "StringTooLong",
            "inputs": [
                {
                    "name": "str",
                    "type": "string",
                    "internalType": "string"
                }
            ]
        }
    ],
    "bytecode": {
        "object": "0x6101606040523480156200001257600080fd5b5060405162001e8a38038062001e8a833981016040819052620000359162000496565b604051806040016040528060088152602001672232bb2a37b5b2b760c11b81525080604051806040016040528060018152602001603160f81b81525083604051806040016040528060088152602001672232bb2a37b5b2b760c11b815250604051806040016040528060038152602001622222ab60e91b8152508160039081620000c091906200056c565b506004620000cf82826200056c565b50506005805460ff19169055506001600160a01b0381166200010c57604051631e4fbdf760e01b8152600060048201526024015b60405180910390fd5b6200011781620001ff565b506200012582600662000259565b610120526200013681600762000259565b61014052815160208084019190912060e052815190820120610100524660a052620001c460e05161010051604080517f8b73c3c69bb8fe3d512ecc4cf759cc79239f7b179b0ffacaa9a75d522b39400f60208201529081019290925260608201524660808201523060a082015260009060c00160405160208183030381529060405280519060200120905090565b60805250503060c05250620001f833620001e16012600a6200074b565b620001f29064e8d4a510006200075c565b62000292565b5062000801565b600580546001600160a01b03838116610100818102610100600160a81b031985161790945560405193909204169182907f8be0079c531659141344cd1fd0a4f28419497f9722a3daafe3b4186f6b6457e090600090a35050565b600060208351101562000279576200027183620002d0565b90506200028c565b816200028684826200056c565b5060ff90505b92915050565b6001600160a01b038216620002be5760405163ec442f0560e01b81526000600482015260240162000103565b620002cc6000838362000313565b5050565b600080829050601f81511115620002fe578260405163305a27a960e01b815260040162000103919062000776565b80516200030b82620007c6565b179392505050565b6200032083838362000325565b505050565b6200032f6200033c565b6200032083838362000363565b60055460ff1615620003615760405163d93c066560e01b815260040160405180910390fd5b565b6001600160a01b03831662000392578060026000828254620003869190620007eb565b90915550620004069050565b6001600160a01b03831660009081526020819052604090205481811015620003e75760405163391434e360e21b81526001600160a01b0385166004820152602481018290526044810183905260640162000103565b6001600160a01b03841660009081526020819052604090209082900390555b6001600160a01b038216620004245760028054829003905562000443565b6001600160a01b03821660009081526020819052604090208054820190555b816001600160a01b0316836001600160a01b03167fddf252ad1be2c89b69c2b068fc378daa952ba7f163c4a11628f55a4df523b3ef836040516200048991815260200190565b60405180910390a3505050565b600060208284031215620004a957600080fd5b81516001600160a01b0381168114620004c157600080fd5b9392505050565b634e487b7160e01b600052604160045260246000fd5b600181811c90821680620004f357607f821691505b6020821081036200051457634e487b7160e01b600052602260045260246000fd5b50919050565b601f8211156200032057600081815260208120601f850160051c81016020861015620005435750805b601f850160051c820191505b8181101562000564578281556001016200054f565b505050505050565b81516001600160401b03811115620005885762000588620004c8565b620005a081620005998454620004de565b846200051a565b602080601f831160018114620005d85760008415620005bf5750858301515b600019600386901b1c1916600185901b17855562000564565b600085815260208120601f198616915b828110156200060957888601518255948401946001909101908401620005e8565b5085821015620006285787850151600019600388901b60f8161c191681555b5050505050600190811b01905550565b634e487b7160e01b600052601160045260246000fd5b600181815b808511156200068f57816000190482111562000673576200067362000638565b808516156200068157918102915b93841c939080029062000653565b509250929050565b600082620006a8575060016200028c565b81620006b7575060006200028c565b8160018114620006d05760028114620006db57620006fb565b60019150506200028c565b60ff841115620006ef57620006ef62000638565b50506001821b6200028c565b5060208310610133831016604e8410600b841016171562000720575081810a6200028c565b6200072c83836200064e565b806000190482111562000743576200074362000638565b029392505050565b6000620004c160ff84168362000697565b80820281158282048414176200028c576200028c62000638565b600060208083528351808285015260005b81811015620007a55785810183015185820160400152820162000787565b506000604082860101526040601f19601f8301168501019250505092915050565b80516020808301519190811015620005145760001960209190910360031b1b16919050565b808201808211156200028c576200028c62000638565b60805160a05160c05160e05161010051610120516101405161162e6200085c6000396000610c8201526000610c5501526000610a7501526000610a4d015260006109a8015260006109d2015260006109fc015261162e6000f3fe608060405234801561001057600080fd5b50600436106101735760003560e01c806370a08231116100de5780638da5cb5b11610097578063d505accf11610071578063d505accf14610314578063d9d98ce414610327578063dd62ed3e1461033a578063f2fde38b1461037357600080fd5b80638da5cb5b146102d057806395d89b41146102f9578063a9059cbb1461030157600080fd5b806370a0823114610256578063715018a61461027f57806379cc6790146102875780637ecebe001461029a5780638456cb59146102ad57806384b0196e146102b557600080fd5b80633f4ba83a116101305780633f4ba83a146101f557806340c10f19146101ff57806342966c68146102125780635c975abb146102255780635cffe9de14610230578063613255ab1461024357600080fd5b806306fdde0314610178578063095ea7b31461019657806318160ddd146101b957806323b872dd146101cb578063313ce567146101de5780633644e515146101ed575b600080fd5b610180610386565b60405161018d9190611247565b60405180910390f35b6101a96101a436600461126f565b610418565b604051901515815260200161018d565b6002545b60405190815260200161018d565b6101a96101d936600461129b565b610432565b6040516012815260200161018d565b6101bd610456565b6101fd610465565b005b6101fd61020d36600461126f565b610477565b6101fd6102203660046112dc565b61048d565b60055460ff166101a9565b6101a961023e3660046112f5565b61049a565b6101bd610251366004611394565b610617565b6101bd610264366004611394565b6001600160a01b031660009081526020819052604090205490565b6101fd61063f565b6101fd61029536600461126f565b610651565b6101bd6102a8366004611394565b610666565b6101fd610684565b6102bd610694565b60405161018d97969594939291906113b1565b60055461010090046001600160a01b03166040516001600160a01b03909116815260200161018d565b6101806106da565b6101a961030f36600461126f565b6106e9565b6101fd610322366004611447565b6106f7565b6101bd61033536600461126f565b610831565b6101bd6103483660046114be565b6001600160a01b03918216600090815260016020908152604080832093909416825291909152205490565b6101fd610381366004611394565b610871565b606060038054610395906114f7565b80601f01602080910402602001604051908101604052809291908181526020018280546103c1906114f7565b801561040e5780601f106103e35761010080835404028352916020019161040e565b820191906000526020600020905b8154815290600101906020018083116103f157829003601f168201915b5050505050905090565b6000336104268185856108ac565b60019150505b92915050565b6000336104408582856108be565b61044b85858561093c565b506001949350505050565b600061046061099b565b905090565b61046d610ac6565b610475610af9565b565b61047f610ac6565b6104898282610b4b565b5050565b6104973382610b81565b50565b6000806104a686610617565b9050808511156104d15760405163fd9a760960e01b8152600481018290526024015b60405180910390fd5b60006104dd8787610831565b90506104e98887610b4b565b6040516323e30c8b60e01b81527f439148f0bbc682ca079e46d6e2c2f0c1e3b820f1a291b069d8882abf8cf18dd9906001600160a01b038a16906323e30c8b906105419033908c908c9088908d908d90600401611531565b6020604051808303816000875af1158015610560573d6000803e3d6000fd5b505050506040513d601f19601f82011682018060405250810190610584919061158d565b146105ac5760405162678c5b60e81b81526001600160a01b03891660048201526024016104c8565b60006105c289306105bd858b6115bc565b6108be565b8115806105d657506001600160a01b038116155b156105f3576105ee896105e9848a6115bc565b610b81565b610608565b6105fd8988610b81565b61060889828461093c565b50600198975050505050505050565b60006001600160a01b038216301461063057600061042c565b60025461042c906000196115cf565b610647610ac6565b6104756000610bb7565b61065c8233836108be565b6104898282610b81565b6001600160a01b03811660009081526008602052604081205461042c565b61068c610ac6565b610475610c11565b6000606080600080600060606106a8610c4e565b6106b0610c7b565b60408051600080825260208201909252600f60f81b9b939a50919850469750309650945092509050565b606060048054610395906114f7565b60003361042681858561093c565b8342111561071b5760405163313c898160e11b8152600481018590526024016104c8565b60007f6e71edae12b1b97f4d1f60370fef10105fa2faae0126114a169c64845d6126c98888886107688c6001600160a01b0316600090815260086020526040902080546001810190915590565b6040805160208101969096526001600160a01b0394851690860152929091166060840152608083015260a082015260c0810186905260e00160405160208183030381529060405280519060200120905060006107c382610ca8565b905060006107d382878787610cd5565b9050896001600160a01b0316816001600160a01b03161461081a576040516325c0072360e11b81526001600160a01b0380831660048301528b1660248201526044016104c8565b6108258a8a8a6108ac565b50505050505050505050565b60006001600160a01b038316301461086757604051635ad3edc960e11b81526001600160a01b03841660048201526024016104c8565b60005b9392505050565b610879610ac6565b6001600160a01b0381166108a357604051631e4fbdf760e01b8152600060048201526024016104c8565b61049781610bb7565b6108b98383836001610d03565b505050565b6001600160a01b038381166000908152600160209081526040808320938616835292905220546000198114610936578181101561092757604051637dc7a0d960e11b81526001600160a01b038416600482015260248101829052604481018390526064016104c8565b61093684848484036000610d03565b50505050565b6001600160a01b03831661096657604051634b637e8f60e11b8152600060048201526024016104c8565b6001600160a01b0382166109905760405163ec442f0560e01b8152600060048201526024016104c8565b6108b9838383610dd8565b6000306001600160a01b037f0000000000000000000000000000000000000000000000000000000000000000161480156109f457507f000000000000000000000000000000000000000000000000000000000000000046145b15610a1e57507f000000000000000000000000000000000000000000000000000000000000000090565b610460604080517f8b73c3c69bb8fe3d512ecc4cf759cc79239f7b179b0ffacaa9a75d522b39400f60208201527f0000000000000000000000000000000000000000000000000000000000000000918101919091527f000000000000000000000000000000000000000000000000000000000000000060608201524660808201523060a082015260009060c00160405160208183030381529060405280519060200120905090565b6005546001600160a01b036101009091041633146104755760405163118cdaa760e01b81523360048201526024016104c8565b610b01610de3565b6005805460ff191690557f5db9ee0a495bf2e6ff9c91a7834c1ba4fdd244a5e8aa4e537bd38aeae4b073aa335b6040516001600160a01b03909116815260200160405180910390a1565b6001600160a01b038216610b755760405163ec442f0560e01b8152600060048201526024016104c8565b61048960008383610dd8565b6001600160a01b038216610bab57604051634b637e8f60e11b8152600060048201526024016104c8565b61048982600083610dd8565b600580546001600160a01b03838116610100818102610100600160a81b031985161790945560405193909204169182907f8be0079c531659141344cd1fd0a4f28419497f9722a3daafe3b4186f6b6457e090600090a35050565b610c19610e06565b6005805460ff191660011790557f62e78cea01bee320cd4e420270b5ea74000d11b0c9f74754ebdbfc544b05a258610b2e3390565b60606104607f00000000000000000000000000000000000000000000000000000000000000006006610e2a565b60606104607f00000000000000000000000000000000000000000000000000000000000000006007610e2a565b600061042c610cb561099b565b8360405161190160f01b8152600281019290925260228201526042902090565b600080600080610ce788888888610ed5565b925092509250610cf78282610fa4565b50909695505050505050565b6001600160a01b038416610d2d5760405163e602df0560e01b8152600060048201526024016104c8565b6001600160a01b038316610d5757604051634a1406b160e11b8152600060048201526024016104c8565b6001600160a01b038085166000908152600160209081526040808320938716835292905220829055801561093657826001600160a01b0316846001600160a01b03167f8c5be1e5ebec7d5bd14f71427d1e84f3dd0314c0f7b2291e5b200ac8c7c3b92584604051610dca91815260200190565b60405180910390a350505050565b6108b983838361105d565b60055460ff1661047557604051638dfc202b60e01b815260040160405180910390fd5b60055460ff16156104755760405163d93c066560e01b815260040160405180910390fd5b606060ff8314610e4457610e3d83611070565b905061042c565b818054610e50906114f7565b80601f0160208091040260200160405190810160405280929190818152602001828054610e7c906114f7565b8015610ec95780601f10610e9e57610100808354040283529160200191610ec9565b820191906000526020600020905b815481529060010190602001808311610eac57829003601f168201915b5050505050905061042c565b600080807f7fffffffffffffffffffffffffffffff5d576e7357a4501ddfe92f46681b20a0841115610f105750600091506003905082610f9a565b604080516000808252602082018084528a905260ff891692820192909252606081018790526080810186905260019060a0016020604051602081039080840390855afa158015610f64573d6000803e3d6000fd5b5050604051601f1901519150506001600160a01b038116610f9057506000925060019150829050610f9a565b9250600091508190505b9450945094915050565b6000826003811115610fb857610fb86115e2565b03610fc1575050565b6001826003811115610fd557610fd56115e2565b03610ff35760405163f645eedf60e01b815260040160405180910390fd5b6002826003811115611007576110076115e2565b036110285760405163fce698f760e01b8152600481018290526024016104c8565b600382600381111561103c5761103c6115e2565b03610489576040516335e2f38360e21b8152600481018290526024016104c8565b611065610e06565b6108b98383836110af565b6060600061107d836111d9565b604080516020808252818301909252919250600091906020820181803683375050509182525060208101929092525090565b6001600160a01b0383166110da5780600260008282546110cf91906115bc565b9091555061114c9050565b6001600160a01b0383166000908152602081905260409020548181101561112d5760405163391434e360e21b81526001600160a01b038516600482015260248101829052604481018390526064016104c8565b6001600160a01b03841660009081526020819052604090209082900390555b6001600160a01b03821661116857600280548290039055611187565b6001600160a01b03821660009081526020819052604090208054820190555b816001600160a01b0316836001600160a01b03167fddf252ad1be2c89b69c2b068fc378daa952ba7f163c4a11628f55a4df523b3ef836040516111cc91815260200190565b60405180910390a3505050565b600060ff8216601f81111561042c57604051632cd44ac360e21b815260040160405180910390fd5b6000815180845260005b818110156112275760208185018101518683018201520161120b565b506000602082860101526020601f19601f83011685010191505092915050565b60208152600061086a6020830184611201565b6001600160a01b038116811461049757600080fd5b6000806040838503121561128257600080fd5b823561128d8161125a565b946020939093013593505050565b6000806000606084860312156112b057600080fd5b83356112bb8161125a565b925060208401356112cb8161125a565b929592945050506040919091013590565b6000602082840312156112ee57600080fd5b5035919050565b60008060008060006080868803121561130d57600080fd5b85356113188161125a565b945060208601356113288161125a565b935060408601359250606086013567ffffffffffffffff8082111561134c57600080fd5b818801915088601f83011261136057600080fd5b81358181111561136f57600080fd5b89602082850101111561138157600080fd5b9699959850939650602001949392505050565b6000602082840312156113a657600080fd5b813561086a8161125a565b60ff60f81b881681526000602060e0818401526113d160e084018a611201565b83810360408501526113e3818a611201565b606085018990526001600160a01b038816608086015260a0850187905284810360c0860152855180825283870192509083019060005b8181101561143557835183529284019291840191600101611419565b50909c9b505050505050505050505050565b600080600080600080600060e0888a03121561146257600080fd5b873561146d8161125a565b9650602088013561147d8161125a565b95506040880135945060608801359350608088013560ff811681146114a157600080fd5b9699959850939692959460a0840135945060c09093013592915050565b600080604083850312156114d157600080fd5b82356114dc8161125a565b915060208301356114ec8161125a565b809150509250929050565b600181811c9082168061150b57607f821691505b60208210810361152b57634e487b7160e01b600052602260045260246000fd5b50919050565b6001600160a01b03878116825286166020820152604081018590526060810184905260a06080820181905281018290526000828460c0840137600060c0848401015260c0601f19601f8501168301019050979650505050505050565b60006020828403121561159f57600080fd5b5051919050565b634e487b7160e01b600052601160045260246000fd5b8082018082111561042c5761042c6115a6565b8181038181111561042c5761042c6115a6565b634e487b7160e01b600052602160045260246000fdfea26469706673582212200bb21f5cca08700beabf7270bf1610f7345bae3602acfdb0dcfa4390e810ab3d64736f6c63430008140033",
        "linkReferences": {}
    },
    "methodIdentifiers": {
        "DOMAIN_SEPARATOR()": "3644e515",
        "allowance(address,address)": "dd62ed3e",
        "approve(address,uint256)": "095ea7b3",
        "balanceOf(address)": "70a08231",
        "burn(uint256)": "42966c68",
        "burnFrom(address,uint256)": "79cc6790",
        "decimals()": "313ce567",
        "eip712Domain()": "84b0196e",
        "flashFee(address,uint256)": "d9d98ce4",
        "flashLoan(address,address,uint256,bytes)": "5cffe9de",
        "maxFlashLoan(address)": "613255ab",
        "mint(address,uint256)": "40c10f19",
        "name()": "06fdde03",
        "nonces(address)": "7ecebe00",
        "owner()": "8da5cb5b",
        "pause()": "8456cb59",
        "paused()": "5c975abb",
        "permit(address,address,uint256,uint256,uint8,bytes32,bytes32)": "d505accf",
        "renounceOwnership()": "715018a6",
        "symbol()": "95d89b41",
        "totalSupply()": "18160ddd",
        "transfer(address,uint256)": "a9059cbb",
        "transferFrom(address,address,uint256)": "23b872dd",
        "transferOwnership(address)": "f2fde38b",
        "unpause()": "3f4ba83a"
    },
    "storageLayout": {
        "storage": [
            {
                "astId": 55570,
                "contract": "helpers/token/DevToken.sol:DevToken",
                "label": "_balances",
                "offset": 0,
                "slot": "0",
                "type": "t_mapping(t_address,t_uint256)"
            },
            {
                "astId": 55576,
                "contract": "helpers/token/DevToken.sol:DevToken",
                "label": "_allowances",
                "offset": 0,
                "slot": "1",
                "type": "t_mapping(t_address,t_mapping(t_address,t_uint256))"
            },
            {
                "astId": 55578,
                "contract": "helpers/token/DevToken.sol:DevToken",
                "label": "_totalSupply",
                "offset": 0,
                "slot": "2",
                "type": "t_uint256"
            },
            {
                "astId": 55580,
                "contract": "helpers/token/DevToken.sol:DevToken",
                "label": "_name",
                "offset": 0,
                "slot": "3",
                "type": "t_string_storage"
            },
            {
                "astId": 55582,
                "contract": "helpers/token/DevToken.sol:DevToken",
                "label": "_symbol",
                "offset": 0,
                "slot": "4",
                "type": "t_string_storage"
            },
            {
                "astId": 58206,
                "contract": "helpers/token/DevToken.sol:DevToken",
                "label": "_paused",
                "offset": 0,
                "slot": "5",
                "type": "t_bool"
            },
            {
                "astId": 53664,
                "contract": "helpers/token/DevToken.sol:DevToken",
                "label": "_owner",
                "offset": 1,
                "slot": "5",
                "type": "t_address"
            },
            {
                "astId": 59281,
                "contract": "helpers/token/DevToken.sol:DevToken",
                "label": "_nameFallback",
                "offset": 0,
                "slot": "6",
                "type": "t_string_storage"
            },
            {
                "astId": 59283,
                "contract": "helpers/token/DevToken.sol:DevToken",
                "label": "_versionFallback",
                "offset": 0,
                "slot": "7",
                "type": "t_string_storage"
            },
            {
                "astId": 58143,
                "contract": "helpers/token/DevToken.sol:DevToken",
                "label": "_nonces",
                "offset": 0,
                "slot": "8",
                "type": "t_mapping(t_address,t_uint256)"
            }
        ],
        "types": {
            "t_address": {
                "encoding": "inplace",
                "label": "address",
                "numberOfBytes": "20"
            },
            "t_bool": {
                "encoding": "inplace",
                "label": "bool",
                "numberOfBytes": "1"
            },
            "t_mapping(t_address,t_mapping(t_address,t_uint256))": {
                "encoding": "mapping",
                "key": "t_address",
                "label": "mapping(address => mapping(address => uint256))",
                "numberOfBytes": "32",
                "value": "t_mapping(t_address,t_uint256)"
            },
            "t_mapping(t_address,t_uint256)": {
                "encoding": "mapping",
                "key": "t_address",
                "label": "mapping(address => uint256)",
                "numberOfBytes": "32",
                "value": "t_uint256"
            },
            "t_string_storage": {
                "encoding": "bytes",
                "label": "string",
                "numberOfBytes": "32"
            },
            "t_uint256": {
                "encoding": "inplace",
                "label": "uint256",
                "numberOfBytes": "32"
            }
        }
    },
    "id": 5
}